{
	"Staking/TokenFarm.sol": {
		"TokenFram": {
			"abi": [
				{
					"inputs": [
						{
							"internalType": "contract StellarToken",
							"name": "_stellarToken",
							"type": "address"
						},
						{
							"internalType": "contract JamToken",
							"name": "_jamToken",
							"type": "address"
						}
					],
					"stateMutability": "nonpayable",
					"type": "constructor"
				},
				{
					"inputs": [],
					"name": "Owner",
					"outputs": [
						{
							"internalType": "address",
							"name": "",
							"type": "address"
						}
					],
					"stateMutability": "view",
					"type": "function"
				},
				{
					"inputs": [
						{
							"internalType": "address",
							"name": "",
							"type": "address"
						}
					],
					"name": "hasStaked",
					"outputs": [
						{
							"internalType": "bool",
							"name": "",
							"type": "bool"
						}
					],
					"stateMutability": "view",
					"type": "function"
				},
				{
					"inputs": [
						{
							"internalType": "address",
							"name": "",
							"type": "address"
						}
					],
					"name": "isStaking",
					"outputs": [
						{
							"internalType": "bool",
							"name": "",
							"type": "bool"
						}
					],
					"stateMutability": "view",
					"type": "function"
				},
				{
					"inputs": [],
					"name": "jamToken",
					"outputs": [
						{
							"internalType": "contract JamToken",
							"name": "",
							"type": "address"
						}
					],
					"stateMutability": "view",
					"type": "function"
				},
				{
					"inputs": [],
					"name": "name",
					"outputs": [
						{
							"internalType": "string",
							"name": "",
							"type": "string"
						}
					],
					"stateMutability": "view",
					"type": "function"
				},
				{
					"inputs": [
						{
							"internalType": "uint256",
							"name": "_amount",
							"type": "uint256"
						}
					],
					"name": "stakenTokens",
					"outputs": [],
					"stateMutability": "nonpayable",
					"type": "function"
				},
				{
					"inputs": [
						{
							"internalType": "uint256",
							"name": "",
							"type": "uint256"
						}
					],
					"name": "stakers",
					"outputs": [
						{
							"internalType": "address",
							"name": "",
							"type": "address"
						}
					],
					"stateMutability": "view",
					"type": "function"
				},
				{
					"inputs": [
						{
							"internalType": "address",
							"name": "",
							"type": "address"
						}
					],
					"name": "stakingBalance",
					"outputs": [
						{
							"internalType": "uint256",
							"name": "",
							"type": "uint256"
						}
					],
					"stateMutability": "view",
					"type": "function"
				},
				{
					"inputs": [],
					"name": "stellarToken",
					"outputs": [
						{
							"internalType": "contract StellarToken",
							"name": "",
							"type": "address"
						}
					],
					"stateMutability": "view",
					"type": "function"
				}
			],
			"devdoc": {
				"kind": "dev",
				"methods": {},
				"version": 1
			},
			"evm": {
				"assembly": "    /* \"Staking/TokenFarm.sol\":141:974  contract TokenFram {\r... */\n  mstore(0x40, 0x80)\n    /* \"Staking/TokenFarm.sol\":191:232  string public name = \"Stellar Token Fram\" */\n  mload(0x40)\n  dup1\n  0x40\n  add\n  0x40\n  mstore\n  dup1\n  0x12\n  dup2\n  mstore\n  0x20\n  add\n  0x5374656c6c617220546f6b656e204672616d0000000000000000000000000000\n  dup2\n  mstore\n  pop\n  0x00\n  swap1\n  dup1\n  mload\n  swap1\n  0x20\n  add\n  swap1\n  tag_1\n  swap3\n  swap2\n  swap1\n  tag_2\n  jump\t// in\ntag_1:\n  pop\n    /* \"Staking/TokenFarm.sol\":569:737  constructor(StellarToken _stellarToken, JamToken _jamToken){\r... */\n  callvalue\n  dup1\n  iszero\n  tag_3\n  jumpi\n  0x00\n  dup1\n  revert\ntag_3:\n  pop\n  mload(0x40)\n  sub(codesize, bytecodeSize)\n  dup1\n  bytecodeSize\n  dup4\n  codecopy\n  dup2\n  dup2\n  add\n  0x40\n  mstore\n  dup2\n  add\n  swap1\n  tag_4\n  swap2\n  swap1\n  tag_5\n  jump\t// in\ntag_4:\n    /* \"Staking/TokenFarm.sol\":654:667  _stellarToken */\n  dup2\n    /* \"Staking/TokenFarm.sol\":639:651  stellarToken */\n  0x03\n  0x00\n    /* \"Staking/TokenFarm.sol\":639:667  stellarToken = _stellarToken */\n  0x0100\n  exp\n  dup2\n  sload\n  dup2\n  0xffffffffffffffffffffffffffffffffffffffff\n  mul\n  not\n  and\n  swap1\n  dup4\n  0xffffffffffffffffffffffffffffffffffffffff\n  and\n  mul\n  or\n  swap1\n  sstore\n  pop\n    /* \"Staking/TokenFarm.sol\":689:698  _jamToken */\n  dup1\n    /* \"Staking/TokenFarm.sol\":678:686  jamToken */\n  0x02\n  0x00\n    /* \"Staking/TokenFarm.sol\":678:698  jamToken = _jamToken */\n  0x0100\n  exp\n  dup2\n  sload\n  dup2\n  0xffffffffffffffffffffffffffffffffffffffff\n  mul\n  not\n  and\n  swap1\n  dup4\n  0xffffffffffffffffffffffffffffffffffffffff\n  and\n  mul\n  or\n  swap1\n  sstore\n  pop\n    /* \"Staking/TokenFarm.sol\":717:727  msg.sender */\n  caller\n    /* \"Staking/TokenFarm.sol\":709:714  Owner */\n  0x01\n  0x00\n    /* \"Staking/TokenFarm.sol\":709:727  Owner = msg.sender */\n  0x0100\n  exp\n  dup2\n  sload\n  dup2\n  0xffffffffffffffffffffffffffffffffffffffff\n  mul\n  not\n  and\n  swap1\n  dup4\n  0xffffffffffffffffffffffffffffffffffffffff\n  and\n  mul\n  or\n  swap1\n  sstore\n  pop\n    /* \"Staking/TokenFarm.sol\":569:737  constructor(StellarToken _stellarToken, JamToken _jamToken){\r... */\n  pop\n  pop\n    /* \"Staking/TokenFarm.sol\":141:974  contract TokenFram {\r... */\n  jump(tag_8)\ntag_2:\n  dup3\n  dup1\n  sload\n  tag_9\n  swap1\n  tag_10\n  jump\t// in\ntag_9:\n  swap1\n  0x00\n  mstore\n  keccak256(0x00, 0x20)\n  swap1\n  0x1f\n  add\n  0x20\n  swap1\n  div\n  dup2\n  add\n  swap3\n  dup3\n  tag_12\n  jumpi\n  0x00\n  dup6\n  sstore\n  jump(tag_11)\ntag_12:\n  dup3\n  0x1f\n  lt\n  tag_13\n  jumpi\n  dup1\n  mload\n  not(0xff)\n  and\n  dup4\n  dup1\n  add\n  or\n  dup6\n  sstore\n  jump(tag_11)\ntag_13:\n  dup3\n  dup1\n  add\n  0x01\n  add\n  dup6\n  sstore\n  dup3\n  iszero\n  tag_11\n  jumpi\n  swap2\n  dup3\n  add\ntag_14:\n  dup3\n  dup2\n  gt\n  iszero\n  tag_15\n  jumpi\n  dup3\n  mload\n  dup3\n  sstore\n  swap2\n  0x20\n  add\n  swap2\n  swap1\n  0x01\n  add\n  swap1\n  jump(tag_14)\ntag_15:\ntag_11:\n  pop\n  swap1\n  pop\n  tag_16\n  swap2\n  swap1\n  tag_17\n  jump\t// in\ntag_16:\n  pop\n  swap1\n  jump\t// out\ntag_17:\ntag_18:\n  dup1\n  dup3\n  gt\n  iszero\n  tag_19\n  jumpi\n  0x00\n  dup2\n  0x00\n  swap1\n  sstore\n  pop\n  0x01\n  add\n  jump(tag_18)\ntag_19:\n  pop\n  swap1\n  jump\t// out\n    /* \"#utility.yul\":7:182   */\ntag_21:\n    /* \"#utility.yul\":80:85   */\n  0x00\n    /* \"#utility.yul\":111:117   */\n  dup2\n    /* \"#utility.yul\":105:118   */\n  mload\n    /* \"#utility.yul\":96:118   */\n  swap1\n  pop\n    /* \"#utility.yul\":127:176   */\n  tag_23\n    /* \"#utility.yul\":170:175   */\n  dup2\n    /* \"#utility.yul\":127:176   */\n  tag_24\n  jump\t// in\ntag_23:\n    /* \"#utility.yul\":7:182   */\n  swap3\n  swap2\n  pop\n  pop\n  jump\t// out\n    /* \"#utility.yul\":188:371   */\ntag_25:\n    /* \"#utility.yul\":265:270   */\n  0x00\n    /* \"#utility.yul\":296:302   */\n  dup2\n    /* \"#utility.yul\":290:303   */\n  mload\n    /* \"#utility.yul\":281:303   */\n  swap1\n  pop\n    /* \"#utility.yul\":312:365   */\n  tag_27\n    /* \"#utility.yul\":359:364   */\n  dup2\n    /* \"#utility.yul\":312:365   */\n  tag_28\n  jump\t// in\ntag_27:\n    /* \"#utility.yul\":188:371   */\n  swap3\n  swap2\n  pop\n  pop\n  jump\t// out\n    /* \"#utility.yul\":377:956   */\ntag_5:\n    /* \"#utility.yul\":492:498   */\n  0x00\n    /* \"#utility.yul\":500:506   */\n  dup1\n    /* \"#utility.yul\":549:551   */\n  0x40\n    /* \"#utility.yul\":537:546   */\n  dup4\n    /* \"#utility.yul\":528:535   */\n  dup6\n    /* \"#utility.yul\":524:547   */\n  sub\n    /* \"#utility.yul\":520:552   */\n  slt\n    /* \"#utility.yul\":517:636   */\n  iszero\n  tag_30\n  jumpi\n    /* \"#utility.yul\":555:634   */\n  tag_31\n  tag_32\n  jump\t// in\ntag_31:\n    /* \"#utility.yul\":517:636   */\ntag_30:\n    /* \"#utility.yul\":675:676   */\n  0x00\n    /* \"#utility.yul\":700:784   */\n  tag_33\n    /* \"#utility.yul\":776:783   */\n  dup6\n    /* \"#utility.yul\":767:773   */\n  dup3\n    /* \"#utility.yul\":756:765   */\n  dup7\n    /* \"#utility.yul\":752:774   */\n  add\n    /* \"#utility.yul\":700:784   */\n  tag_25\n  jump\t// in\ntag_33:\n    /* \"#utility.yul\":690:784   */\n  swap3\n  pop\n    /* \"#utility.yul\":646:794   */\n  pop\n    /* \"#utility.yul\":833:835   */\n  0x20\n    /* \"#utility.yul\":859:939   */\n  tag_34\n    /* \"#utility.yul\":931:938   */\n  dup6\n    /* \"#utility.yul\":922:928   */\n  dup3\n    /* \"#utility.yul\":911:920   */\n  dup7\n    /* \"#utility.yul\":907:929   */\n  add\n    /* \"#utility.yul\":859:939   */\n  tag_21\n  jump\t// in\ntag_34:\n    /* \"#utility.yul\":849:939   */\n  swap2\n  pop\n    /* \"#utility.yul\":804:949   */\n  pop\n    /* \"#utility.yul\":377:956   */\n  swap3\n  pop\n  swap3\n  swap1\n  pop\n  jump\t// out\n    /* \"#utility.yul\":1043:1139   */\ntag_37:\n    /* \"#utility.yul\":1080:1087   */\n  0x00\n    /* \"#utility.yul\":1109:1133   */\n  tag_39\n    /* \"#utility.yul\":1127:1132   */\n  dup3\n    /* \"#utility.yul\":1109:1133   */\n  tag_40\n  jump\t// in\ntag_39:\n    /* \"#utility.yul\":1098:1133   */\n  swap1\n  pop\n    /* \"#utility.yul\":1043:1139   */\n  swap2\n  swap1\n  pop\n  jump\t// out\n    /* \"#utility.yul\":1145:1257   */\ntag_41:\n    /* \"#utility.yul\":1198:1205   */\n  0x00\n    /* \"#utility.yul\":1227:1251   */\n  tag_43\n    /* \"#utility.yul\":1245:1250   */\n  dup3\n    /* \"#utility.yul\":1227:1251   */\n  tag_37\n  jump\t// in\ntag_43:\n    /* \"#utility.yul\":1216:1251   */\n  swap1\n  pop\n    /* \"#utility.yul\":1145:1257   */\n  swap2\n  swap1\n  pop\n  jump\t// out\n    /* \"#utility.yul\":1263:1379   */\ntag_44:\n    /* \"#utility.yul\":1320:1327   */\n  0x00\n    /* \"#utility.yul\":1349:1373   */\n  tag_46\n    /* \"#utility.yul\":1367:1372   */\n  dup3\n    /* \"#utility.yul\":1349:1373   */\n  tag_37\n  jump\t// in\ntag_46:\n    /* \"#utility.yul\":1338:1373   */\n  swap1\n  pop\n    /* \"#utility.yul\":1263:1379   */\n  swap2\n  swap1\n  pop\n  jump\t// out\n    /* \"#utility.yul\":1385:1511   */\ntag_40:\n    /* \"#utility.yul\":1422:1429   */\n  0x00\n    /* \"#utility.yul\":1462:1504   */\n  0xffffffffffffffffffffffffffffffffffffffff\n    /* \"#utility.yul\":1455:1460   */\n  dup3\n    /* \"#utility.yul\":1451:1505   */\n  and\n    /* \"#utility.yul\":1440:1505   */\n  swap1\n  pop\n    /* \"#utility.yul\":1385:1511   */\n  swap2\n  swap1\n  pop\n  jump\t// out\n    /* \"#utility.yul\":1517:1837   */\ntag_10:\n    /* \"#utility.yul\":1561:1567   */\n  0x00\n    /* \"#utility.yul\":1598:1599   */\n  0x02\n    /* \"#utility.yul\":1592:1596   */\n  dup3\n    /* \"#utility.yul\":1588:1600   */\n  div\n    /* \"#utility.yul\":1578:1600   */\n  swap1\n  pop\n    /* \"#utility.yul\":1645:1646   */\n  0x01\n    /* \"#utility.yul\":1639:1643   */\n  dup3\n    /* \"#utility.yul\":1635:1647   */\n  and\n    /* \"#utility.yul\":1666:1684   */\n  dup1\n    /* \"#utility.yul\":1656:1737   */\n  tag_49\n  jumpi\n    /* \"#utility.yul\":1722:1726   */\n  0x7f\n    /* \"#utility.yul\":1714:1720   */\n  dup3\n    /* \"#utility.yul\":1710:1727   */\n  and\n    /* \"#utility.yul\":1700:1727   */\n  swap2\n  pop\n    /* \"#utility.yul\":1656:1737   */\ntag_49:\n    /* \"#utility.yul\":1784:1786   */\n  0x20\n    /* \"#utility.yul\":1776:1782   */\n  dup3\n    /* \"#utility.yul\":1773:1787   */\n  lt\n    /* \"#utility.yul\":1753:1771   */\n  dup2\n    /* \"#utility.yul\":1750:1788   */\n  eq\n    /* \"#utility.yul\":1747:1831   */\n  iszero\n  tag_50\n  jumpi\n    /* \"#utility.yul\":1803:1821   */\n  tag_51\n  tag_52\n  jump\t// in\ntag_51:\n    /* \"#utility.yul\":1747:1831   */\ntag_50:\n    /* \"#utility.yul\":1568:1837   */\n  pop\n    /* \"#utility.yul\":1517:1837   */\n  swap2\n  swap1\n  pop\n  jump\t// out\n    /* \"#utility.yul\":1843:2023   */\ntag_52:\n    /* \"#utility.yul\":1891:1968   */\n  0x4e487b7100000000000000000000000000000000000000000000000000000000\n    /* \"#utility.yul\":1888:1889   */\n  0x00\n    /* \"#utility.yul\":1881:1969   */\n  mstore\n    /* \"#utility.yul\":1988:1992   */\n  0x22\n    /* \"#utility.yul\":1985:1986   */\n  0x04\n    /* \"#utility.yul\":1978:1993   */\n  mstore\n    /* \"#utility.yul\":2012:2016   */\n  0x24\n    /* \"#utility.yul\":2009:2010   */\n  0x00\n    /* \"#utility.yul\":2002:2017   */\n  revert\n    /* \"#utility.yul\":2152:2269   */\ntag_32:\n    /* \"#utility.yul\":2261:2262   */\n  0x00\n    /* \"#utility.yul\":2258:2259   */\n  dup1\n    /* \"#utility.yul\":2251:2263   */\n  revert\n    /* \"#utility.yul\":2275:2429   */\ntag_24:\n    /* \"#utility.yul\":2364:2404   */\n  tag_58\n    /* \"#utility.yul\":2398:2403   */\n  dup2\n    /* \"#utility.yul\":2364:2404   */\n  tag_41\n  jump\t// in\ntag_58:\n    /* \"#utility.yul\":2357:2362   */\n  dup2\n    /* \"#utility.yul\":2354:2405   */\n  eq\n    /* \"#utility.yul\":2344:2423   */\n  tag_59\n  jumpi\n    /* \"#utility.yul\":2419:2420   */\n  0x00\n    /* \"#utility.yul\":2416:2417   */\n  dup1\n    /* \"#utility.yul\":2409:2421   */\n  revert\n    /* \"#utility.yul\":2344:2423   */\ntag_59:\n    /* \"#utility.yul\":2275:2429   */\n  pop\n  jump\t// out\n    /* \"#utility.yul\":2435:2597   */\ntag_28:\n    /* \"#utility.yul\":2528:2572   */\n  tag_61\n    /* \"#utility.yul\":2566:2571   */\n  dup2\n    /* \"#utility.yul\":2528:2572   */\n  tag_44\n  jump\t// in\ntag_61:\n    /* \"#utility.yul\":2521:2526   */\n  dup2\n    /* \"#utility.yul\":2518:2573   */\n  eq\n    /* \"#utility.yul\":2508:2591   */\n  tag_62\n  jumpi\n    /* \"#utility.yul\":2587:2588   */\n  0x00\n    /* \"#utility.yul\":2584:2585   */\n  dup1\n    /* \"#utility.yul\":2577:2589   */\n  revert\n    /* \"#utility.yul\":2508:2591   */\ntag_62:\n    /* \"#utility.yul\":2435:2597   */\n  pop\n  jump\t// out\n    /* \"Staking/TokenFarm.sol\":141:974  contract TokenFram {\r... */\ntag_8:\n  dataSize(sub_0)\n  dup1\n  dataOffset(sub_0)\n  0x00\n  codecopy\n  0x00\n  return\nstop\n\nsub_0: assembly {\n        /* \"Staking/TokenFarm.sol\":141:974  contract TokenFram {\r... */\n      mstore(0x40, 0x80)\n      callvalue\n      dup1\n      iszero\n      tag_1\n      jumpi\n      0x00\n      dup1\n      revert\n    tag_1:\n      pop\n      jumpi(tag_2, lt(calldatasize, 0x04))\n      shr(0xe0, calldataload(0x00))\n      dup1\n      0x6f49712b\n      gt\n      tag_12\n      jumpi\n      dup1\n      0x6f49712b\n      eq\n      tag_7\n      jumpi\n      dup1\n      0xb4a99a4e\n      eq\n      tag_8\n      jumpi\n      dup1\n      0xc93c8f34\n      eq\n      tag_9\n      jumpi\n      dup1\n      0xf416d760\n      eq\n      tag_10\n      jumpi\n      dup1\n      0xfd5e6dd1\n      eq\n      tag_11\n      jumpi\n      jump(tag_2)\n    tag_12:\n      dup1\n      0x06fdde03\n      eq\n      tag_3\n      jumpi\n      dup1\n      0x0f141533\n      eq\n      tag_4\n      jumpi\n      dup1\n      0x45bc78ab\n      eq\n      tag_5\n      jumpi\n      dup1\n      0x6e9e2822\n      eq\n      tag_6\n      jumpi\n    tag_2:\n      0x00\n      dup1\n      revert\n        /* \"Staking/TokenFarm.sol\":191:232  string public name = \"Stellar Token Fram\" */\n    tag_3:\n      tag_13\n      tag_14\n      jump\t// in\n    tag_13:\n      mload(0x40)\n      tag_15\n      swap2\n      swap1\n      tag_16\n      jump\t// in\n    tag_15:\n      mload(0x40)\n      dup1\n      swap2\n      sub\n      swap1\n      return\n        /* \"Staking/TokenFarm.sol\":297:329  StellarToken public stellarToken */\n    tag_4:\n      tag_17\n      tag_18\n      jump\t// in\n    tag_17:\n      mload(0x40)\n      tag_19\n      swap2\n      swap1\n      tag_20\n      jump\t// in\n    tag_19:\n      mload(0x40)\n      dup1\n      swap2\n      sub\n      swap1\n      return\n        /* \"Staking/TokenFarm.sol\":399:445  mapping(address => uint) public stakingBalance */\n    tag_5:\n      tag_21\n      0x04\n      dup1\n      calldatasize\n      sub\n      dup2\n      add\n      swap1\n      tag_22\n      swap2\n      swap1\n      tag_23\n      jump\t// in\n    tag_22:\n      tag_24\n      jump\t// in\n    tag_21:\n      mload(0x40)\n      tag_25\n      swap2\n      swap1\n      tag_26\n      jump\t// in\n    tag_25:\n      mload(0x40)\n      dup1\n      swap2\n      sub\n      swap1\n      return\n        /* \"Staking/TokenFarm.sol\":768:969  function stakenTokens(uint _amount) public {\r... */\n    tag_6:\n      tag_27\n      0x04\n      dup1\n      calldatasize\n      sub\n      dup2\n      add\n      swap1\n      tag_28\n      swap2\n      swap1\n      tag_29\n      jump\t// in\n    tag_28:\n      tag_30\n      jump\t// in\n    tag_27:\n      stop\n        /* \"Staking/TokenFarm.sol\":500:541  mapping(address => bool) public isStaking */\n    tag_7:\n      tag_31\n      0x04\n      dup1\n      calldatasize\n      sub\n      dup2\n      add\n      swap1\n      tag_32\n      swap2\n      swap1\n      tag_23\n      jump\t// in\n    tag_32:\n      tag_33\n      jump\t// in\n    tag_31:\n      mload(0x40)\n      tag_34\n      swap2\n      swap1\n      tag_35\n      jump\t// in\n    tag_34:\n      mload(0x40)\n      dup1\n      swap2\n      sub\n      swap1\n      return\n        /* \"Staking/TokenFarm.sol\":239:259  address public Owner */\n    tag_8:\n      tag_36\n      tag_37\n      jump\t// in\n    tag_36:\n      mload(0x40)\n      tag_38\n      swap2\n      swap1\n      tag_39\n      jump\t// in\n    tag_38:\n      mload(0x40)\n      dup1\n      swap2\n      sub\n      swap1\n      return\n        /* \"Staking/TokenFarm.sol\":452:493  mapping(address => bool) public hasStaked */\n    tag_9:\n      tag_40\n      0x04\n      dup1\n      calldatasize\n      sub\n      dup2\n      add\n      swap1\n      tag_41\n      swap2\n      swap1\n      tag_23\n      jump\t// in\n    tag_41:\n      tag_42\n      jump\t// in\n    tag_40:\n      mload(0x40)\n      tag_43\n      swap2\n      swap1\n      tag_35\n      jump\t// in\n    tag_43:\n      mload(0x40)\n      dup1\n      swap2\n      sub\n      swap1\n      return\n        /* \"Staking/TokenFarm.sol\":266:290  JamToken public jamToken */\n    tag_10:\n      tag_44\n      tag_45\n      jump\t// in\n    tag_44:\n      mload(0x40)\n      tag_46\n      swap2\n      swap1\n      tag_47\n      jump\t// in\n    tag_46:\n      mload(0x40)\n      dup1\n      swap2\n      sub\n      swap1\n      return\n        /* \"Staking/TokenFarm.sol\":367:392  address [] public stakers */\n    tag_11:\n      tag_48\n      0x04\n      dup1\n      calldatasize\n      sub\n      dup2\n      add\n      swap1\n      tag_49\n      swap2\n      swap1\n      tag_29\n      jump\t// in\n    tag_49:\n      tag_50\n      jump\t// in\n    tag_48:\n      mload(0x40)\n      tag_51\n      swap2\n      swap1\n      tag_39\n      jump\t// in\n    tag_51:\n      mload(0x40)\n      dup1\n      swap2\n      sub\n      swap1\n      return\n        /* \"Staking/TokenFarm.sol\":191:232  string public name = \"Stellar Token Fram\" */\n    tag_14:\n      0x00\n      dup1\n      sload\n      tag_52\n      swap1\n      tag_53\n      jump\t// in\n    tag_52:\n      dup1\n      0x1f\n      add\n      0x20\n      dup1\n      swap2\n      div\n      mul\n      0x20\n      add\n      mload(0x40)\n      swap1\n      dup2\n      add\n      0x40\n      mstore\n      dup1\n      swap3\n      swap2\n      swap1\n      dup2\n      dup2\n      mstore\n      0x20\n      add\n      dup3\n      dup1\n      sload\n      tag_54\n      swap1\n      tag_53\n      jump\t// in\n    tag_54:\n      dup1\n      iszero\n      tag_55\n      jumpi\n      dup1\n      0x1f\n      lt\n      tag_56\n      jumpi\n      0x0100\n      dup1\n      dup4\n      sload\n      div\n      mul\n      dup4\n      mstore\n      swap2\n      0x20\n      add\n      swap2\n      jump(tag_55)\n    tag_56:\n      dup3\n      add\n      swap2\n      swap1\n      0x00\n      mstore\n      keccak256(0x00, 0x20)\n      swap1\n    tag_57:\n      dup2\n      sload\n      dup2\n      mstore\n      swap1\n      0x01\n      add\n      swap1\n      0x20\n      add\n      dup1\n      dup4\n      gt\n      tag_57\n      jumpi\n      dup3\n      swap1\n      sub\n      0x1f\n      and\n      dup3\n      add\n      swap2\n    tag_55:\n      pop\n      pop\n      pop\n      pop\n      pop\n      dup2\n      jump\t// out\n        /* \"Staking/TokenFarm.sol\":297:329  StellarToken public stellarToken */\n    tag_18:\n      0x03\n      0x00\n      swap1\n      sload\n      swap1\n      0x0100\n      exp\n      swap1\n      div\n      0xffffffffffffffffffffffffffffffffffffffff\n      and\n      dup2\n      jump\t// out\n        /* \"Staking/TokenFarm.sol\":399:445  mapping(address => uint) public stakingBalance */\n    tag_24:\n      mstore(0x20, 0x05)\n      dup1\n      0x00\n      mstore\n      keccak256(0x00, 0x40)\n      0x00\n      swap2\n      pop\n      swap1\n      pop\n      sload\n      dup2\n      jump\t// out\n        /* \"Staking/TokenFarm.sol\":768:969  function stakenTokens(uint _amount) public {\r... */\n    tag_30:\n        /* \"Staking/TokenFarm.sol\":890:891  0 */\n      0x00\n        /* \"Staking/TokenFarm.sol\":880:887  _amount */\n      dup2\n        /* \"Staking/TokenFarm.sol\":880:891  _amount < 0 */\n      lt\n        /* \"Staking/TokenFarm.sol\":872:930  require(_amount < 0, \"La cantidad no puede ser menor a 0\") */\n      tag_59\n      jumpi\n      mload(0x40)\n      0x08c379a000000000000000000000000000000000000000000000000000000000\n      dup2\n      mstore\n      0x04\n      add\n      tag_60\n      swap1\n      tag_61\n      jump\t// in\n    tag_60:\n      mload(0x40)\n      dup1\n      swap2\n      sub\n      swap1\n      revert\n    tag_59:\n        /* \"Staking/TokenFarm.sol\":768:969  function stakenTokens(uint _amount) public {\r... */\n      pop\n      jump\t// out\n        /* \"Staking/TokenFarm.sol\":500:541  mapping(address => bool) public isStaking */\n    tag_33:\n      mstore(0x20, 0x07)\n      dup1\n      0x00\n      mstore\n      keccak256(0x00, 0x40)\n      0x00\n      swap2\n      pop\n      sload\n      swap1\n      0x0100\n      exp\n      swap1\n      div\n      0xff\n      and\n      dup2\n      jump\t// out\n        /* \"Staking/TokenFarm.sol\":239:259  address public Owner */\n    tag_37:\n      0x01\n      0x00\n      swap1\n      sload\n      swap1\n      0x0100\n      exp\n      swap1\n      div\n      0xffffffffffffffffffffffffffffffffffffffff\n      and\n      dup2\n      jump\t// out\n        /* \"Staking/TokenFarm.sol\":452:493  mapping(address => bool) public hasStaked */\n    tag_42:\n      mstore(0x20, 0x06)\n      dup1\n      0x00\n      mstore\n      keccak256(0x00, 0x40)\n      0x00\n      swap2\n      pop\n      sload\n      swap1\n      0x0100\n      exp\n      swap1\n      div\n      0xff\n      and\n      dup2\n      jump\t// out\n        /* \"Staking/TokenFarm.sol\":266:290  JamToken public jamToken */\n    tag_45:\n      0x02\n      0x00\n      swap1\n      sload\n      swap1\n      0x0100\n      exp\n      swap1\n      div\n      0xffffffffffffffffffffffffffffffffffffffff\n      and\n      dup2\n      jump\t// out\n        /* \"Staking/TokenFarm.sol\":367:392  address [] public stakers */\n    tag_50:\n      0x04\n      dup2\n      dup2\n      sload\n      dup2\n      lt\n      tag_62\n      jumpi\n      0x00\n      dup1\n      revert\n    tag_62:\n      swap1\n      0x00\n      mstore\n      keccak256(0x00, 0x20)\n      add\n      0x00\n      swap2\n      pop\n      sload\n      swap1\n      0x0100\n      exp\n      swap1\n      div\n      0xffffffffffffffffffffffffffffffffffffffff\n      and\n      dup2\n      jump\t// out\n        /* \"#utility.yul\":7:146   */\n    tag_65:\n        /* \"#utility.yul\":53:58   */\n      0x00\n        /* \"#utility.yul\":91:97   */\n      dup2\n        /* \"#utility.yul\":78:98   */\n      calldataload\n        /* \"#utility.yul\":69:98   */\n      swap1\n      pop\n        /* \"#utility.yul\":107:140   */\n      tag_67\n        /* \"#utility.yul\":134:139   */\n      dup2\n        /* \"#utility.yul\":107:140   */\n      tag_68\n      jump\t// in\n    tag_67:\n        /* \"#utility.yul\":7:146   */\n      swap3\n      swap2\n      pop\n      pop\n      jump\t// out\n        /* \"#utility.yul\":152:291   */\n    tag_69:\n        /* \"#utility.yul\":198:203   */\n      0x00\n        /* \"#utility.yul\":236:242   */\n      dup2\n        /* \"#utility.yul\":223:243   */\n      calldataload\n        /* \"#utility.yul\":214:243   */\n      swap1\n      pop\n        /* \"#utility.yul\":252:285   */\n      tag_71\n        /* \"#utility.yul\":279:284   */\n      dup2\n        /* \"#utility.yul\":252:285   */\n      tag_72\n      jump\t// in\n    tag_71:\n        /* \"#utility.yul\":152:291   */\n      swap3\n      swap2\n      pop\n      pop\n      jump\t// out\n        /* \"#utility.yul\":297:626   */\n    tag_23:\n        /* \"#utility.yul\":356:362   */\n      0x00\n        /* \"#utility.yul\":405:407   */\n      0x20\n        /* \"#utility.yul\":393:402   */\n      dup3\n        /* \"#utility.yul\":384:391   */\n      dup5\n        /* \"#utility.yul\":380:403   */\n      sub\n        /* \"#utility.yul\":376:408   */\n      slt\n        /* \"#utility.yul\":373:492   */\n      iszero\n      tag_74\n      jumpi\n        /* \"#utility.yul\":411:490   */\n      tag_75\n      tag_76\n      jump\t// in\n    tag_75:\n        /* \"#utility.yul\":373:492   */\n    tag_74:\n        /* \"#utility.yul\":531:532   */\n      0x00\n        /* \"#utility.yul\":556:609   */\n      tag_77\n        /* \"#utility.yul\":601:608   */\n      dup5\n        /* \"#utility.yul\":592:598   */\n      dup3\n        /* \"#utility.yul\":581:590   */\n      dup6\n        /* \"#utility.yul\":577:599   */\n      add\n        /* \"#utility.yul\":556:609   */\n      tag_65\n      jump\t// in\n    tag_77:\n        /* \"#utility.yul\":546:609   */\n      swap2\n      pop\n        /* \"#utility.yul\":502:619   */\n      pop\n        /* \"#utility.yul\":297:626   */\n      swap3\n      swap2\n      pop\n      pop\n      jump\t// out\n        /* \"#utility.yul\":632:961   */\n    tag_29:\n        /* \"#utility.yul\":691:697   */\n      0x00\n        /* \"#utility.yul\":740:742   */\n      0x20\n        /* \"#utility.yul\":728:737   */\n      dup3\n        /* \"#utility.yul\":719:726   */\n      dup5\n        /* \"#utility.yul\":715:738   */\n      sub\n        /* \"#utility.yul\":711:743   */\n      slt\n        /* \"#utility.yul\":708:827   */\n      iszero\n      tag_79\n      jumpi\n        /* \"#utility.yul\":746:825   */\n      tag_80\n      tag_76\n      jump\t// in\n    tag_80:\n        /* \"#utility.yul\":708:827   */\n    tag_79:\n        /* \"#utility.yul\":866:867   */\n      0x00\n        /* \"#utility.yul\":891:944   */\n      tag_81\n        /* \"#utility.yul\":936:943   */\n      dup5\n        /* \"#utility.yul\":927:933   */\n      dup3\n        /* \"#utility.yul\":916:925   */\n      dup6\n        /* \"#utility.yul\":912:934   */\n      add\n        /* \"#utility.yul\":891:944   */\n      tag_69\n      jump\t// in\n    tag_81:\n        /* \"#utility.yul\":881:944   */\n      swap2\n      pop\n        /* \"#utility.yul\":837:954   */\n      pop\n        /* \"#utility.yul\":632:961   */\n      swap3\n      swap2\n      pop\n      pop\n      jump\t// out\n        /* \"#utility.yul\":967:1085   */\n    tag_82:\n        /* \"#utility.yul\":1054:1078   */\n      tag_84\n        /* \"#utility.yul\":1072:1077   */\n      dup2\n        /* \"#utility.yul\":1054:1078   */\n      tag_85\n      jump\t// in\n    tag_84:\n        /* \"#utility.yul\":1049:1052   */\n      dup3\n        /* \"#utility.yul\":1042:1079   */\n      mstore\n        /* \"#utility.yul\":967:1085   */\n      pop\n      pop\n      jump\t// out\n        /* \"#utility.yul\":1091:1200   */\n    tag_86:\n        /* \"#utility.yul\":1172:1193   */\n      tag_88\n        /* \"#utility.yul\":1187:1192   */\n      dup2\n        /* \"#utility.yul\":1172:1193   */\n      tag_89\n      jump\t// in\n    tag_88:\n        /* \"#utility.yul\":1167:1170   */\n      dup3\n        /* \"#utility.yul\":1160:1194   */\n      mstore\n        /* \"#utility.yul\":1091:1200   */\n      pop\n      pop\n      jump\t// out\n        /* \"#utility.yul\":1206:1369   */\n    tag_90:\n        /* \"#utility.yul\":1309:1362   */\n      tag_92\n        /* \"#utility.yul\":1356:1361   */\n      dup2\n        /* \"#utility.yul\":1309:1362   */\n      tag_93\n      jump\t// in\n    tag_92:\n        /* \"#utility.yul\":1304:1307   */\n      dup3\n        /* \"#utility.yul\":1297:1363   */\n      mstore\n        /* \"#utility.yul\":1206:1369   */\n      pop\n      pop\n      jump\t// out\n        /* \"#utility.yul\":1375:1546   */\n    tag_94:\n        /* \"#utility.yul\":1482:1539   */\n      tag_96\n        /* \"#utility.yul\":1533:1538   */\n      dup2\n        /* \"#utility.yul\":1482:1539   */\n      tag_97\n      jump\t// in\n    tag_96:\n        /* \"#utility.yul\":1477:1480   */\n      dup3\n        /* \"#utility.yul\":1470:1540   */\n      mstore\n        /* \"#utility.yul\":1375:1546   */\n      pop\n      pop\n      jump\t// out\n        /* \"#utility.yul\":1552:1916   */\n    tag_98:\n        /* \"#utility.yul\":1640:1643   */\n      0x00\n        /* \"#utility.yul\":1668:1707   */\n      tag_100\n        /* \"#utility.yul\":1701:1706   */\n      dup3\n        /* \"#utility.yul\":1668:1707   */\n      tag_101\n      jump\t// in\n    tag_100:\n        /* \"#utility.yul\":1723:1794   */\n      tag_102\n        /* \"#utility.yul\":1787:1793   */\n      dup2\n        /* \"#utility.yul\":1782:1785   */\n      dup6\n        /* \"#utility.yul\":1723:1794   */\n      tag_103\n      jump\t// in\n    tag_102:\n        /* \"#utility.yul\":1716:1794   */\n      swap4\n      pop\n        /* \"#utility.yul\":1803:1855   */\n      tag_104\n        /* \"#utility.yul\":1848:1854   */\n      dup2\n        /* \"#utility.yul\":1843:1846   */\n      dup6\n        /* \"#utility.yul\":1836:1840   */\n      0x20\n        /* \"#utility.yul\":1829:1834   */\n      dup7\n        /* \"#utility.yul\":1825:1841   */\n      add\n        /* \"#utility.yul\":1803:1855   */\n      tag_105\n      jump\t// in\n    tag_104:\n        /* \"#utility.yul\":1880:1909   */\n      tag_106\n        /* \"#utility.yul\":1902:1908   */\n      dup2\n        /* \"#utility.yul\":1880:1909   */\n      tag_107\n      jump\t// in\n    tag_106:\n        /* \"#utility.yul\":1875:1878   */\n      dup5\n        /* \"#utility.yul\":1871:1910   */\n      add\n        /* \"#utility.yul\":1864:1910   */\n      swap2\n      pop\n        /* \"#utility.yul\":1644:1916   */\n      pop\n        /* \"#utility.yul\":1552:1916   */\n      swap3\n      swap2\n      pop\n      pop\n      jump\t// out\n        /* \"#utility.yul\":1922:2288   */\n    tag_108:\n        /* \"#utility.yul\":2064:2067   */\n      0x00\n        /* \"#utility.yul\":2085:2152   */\n      tag_110\n        /* \"#utility.yul\":2149:2151   */\n      0x22\n        /* \"#utility.yul\":2144:2147   */\n      dup4\n        /* \"#utility.yul\":2085:2152   */\n      tag_103\n      jump\t// in\n    tag_110:\n        /* \"#utility.yul\":2078:2152   */\n      swap2\n      pop\n        /* \"#utility.yul\":2161:2254   */\n      tag_111\n        /* \"#utility.yul\":2250:2253   */\n      dup3\n        /* \"#utility.yul\":2161:2254   */\n      tag_112\n      jump\t// in\n    tag_111:\n        /* \"#utility.yul\":2279:2281   */\n      0x40\n        /* \"#utility.yul\":2274:2277   */\n      dup3\n        /* \"#utility.yul\":2270:2282   */\n      add\n        /* \"#utility.yul\":2263:2282   */\n      swap1\n      pop\n        /* \"#utility.yul\":1922:2288   */\n      swap2\n      swap1\n      pop\n      jump\t// out\n        /* \"#utility.yul\":2294:2412   */\n    tag_113:\n        /* \"#utility.yul\":2381:2405   */\n      tag_115\n        /* \"#utility.yul\":2399:2404   */\n      dup2\n        /* \"#utility.yul\":2381:2405   */\n      tag_116\n      jump\t// in\n    tag_115:\n        /* \"#utility.yul\":2376:2379   */\n      dup3\n        /* \"#utility.yul\":2369:2406   */\n      mstore\n        /* \"#utility.yul\":2294:2412   */\n      pop\n      pop\n      jump\t// out\n        /* \"#utility.yul\":2418:2640   */\n    tag_39:\n        /* \"#utility.yul\":2511:2515   */\n      0x00\n        /* \"#utility.yul\":2549:2551   */\n      0x20\n        /* \"#utility.yul\":2538:2547   */\n      dup3\n        /* \"#utility.yul\":2534:2552   */\n      add\n        /* \"#utility.yul\":2526:2552   */\n      swap1\n      pop\n        /* \"#utility.yul\":2562:2633   */\n      tag_118\n        /* \"#utility.yul\":2630:2631   */\n      0x00\n        /* \"#utility.yul\":2619:2628   */\n      dup4\n        /* \"#utility.yul\":2615:2632   */\n      add\n        /* \"#utility.yul\":2606:2612   */\n      dup5\n        /* \"#utility.yul\":2562:2633   */\n      tag_82\n      jump\t// in\n    tag_118:\n        /* \"#utility.yul\":2418:2640   */\n      swap3\n      swap2\n      pop\n      pop\n      jump\t// out\n        /* \"#utility.yul\":2646:2856   */\n    tag_35:\n        /* \"#utility.yul\":2733:2737   */\n      0x00\n        /* \"#utility.yul\":2771:2773   */\n      0x20\n        /* \"#utility.yul\":2760:2769   */\n      dup3\n        /* \"#utility.yul\":2756:2774   */\n      add\n        /* \"#utility.yul\":2748:2774   */\n      swap1\n      pop\n        /* \"#utility.yul\":2784:2849   */\n      tag_120\n        /* \"#utility.yul\":2846:2847   */\n      0x00\n        /* \"#utility.yul\":2835:2844   */\n      dup4\n        /* \"#utility.yul\":2831:2848   */\n      add\n        /* \"#utility.yul\":2822:2828   */\n      dup5\n        /* \"#utility.yul\":2784:2849   */\n      tag_86\n      jump\t// in\n    tag_120:\n        /* \"#utility.yul\":2646:2856   */\n      swap3\n      swap2\n      pop\n      pop\n      jump\t// out\n        /* \"#utility.yul\":2862:3116   */\n    tag_47:\n        /* \"#utility.yul\":2971:2975   */\n      0x00\n        /* \"#utility.yul\":3009:3011   */\n      0x20\n        /* \"#utility.yul\":2998:3007   */\n      dup3\n        /* \"#utility.yul\":2994:3012   */\n      add\n        /* \"#utility.yul\":2986:3012   */\n      swap1\n      pop\n        /* \"#utility.yul\":3022:3109   */\n      tag_122\n        /* \"#utility.yul\":3106:3107   */\n      0x00\n        /* \"#utility.yul\":3095:3104   */\n      dup4\n        /* \"#utility.yul\":3091:3108   */\n      add\n        /* \"#utility.yul\":3082:3088   */\n      dup5\n        /* \"#utility.yul\":3022:3109   */\n      tag_90\n      jump\t// in\n    tag_122:\n        /* \"#utility.yul\":2862:3116   */\n      swap3\n      swap2\n      pop\n      pop\n      jump\t// out\n        /* \"#utility.yul\":3122:3384   */\n    tag_20:\n        /* \"#utility.yul\":3235:3239   */\n      0x00\n        /* \"#utility.yul\":3273:3275   */\n      0x20\n        /* \"#utility.yul\":3262:3271   */\n      dup3\n        /* \"#utility.yul\":3258:3276   */\n      add\n        /* \"#utility.yul\":3250:3276   */\n      swap1\n      pop\n        /* \"#utility.yul\":3286:3377   */\n      tag_124\n        /* \"#utility.yul\":3374:3375   */\n      0x00\n        /* \"#utility.yul\":3363:3372   */\n      dup4\n        /* \"#utility.yul\":3359:3376   */\n      add\n        /* \"#utility.yul\":3350:3356   */\n      dup5\n        /* \"#utility.yul\":3286:3377   */\n      tag_94\n      jump\t// in\n    tag_124:\n        /* \"#utility.yul\":3122:3384   */\n      swap3\n      swap2\n      pop\n      pop\n      jump\t// out\n        /* \"#utility.yul\":3390:3703   */\n    tag_16:\n        /* \"#utility.yul\":3503:3507   */\n      0x00\n        /* \"#utility.yul\":3541:3543   */\n      0x20\n        /* \"#utility.yul\":3530:3539   */\n      dup3\n        /* \"#utility.yul\":3526:3544   */\n      add\n        /* \"#utility.yul\":3518:3544   */\n      swap1\n      pop\n        /* \"#utility.yul\":3590:3599   */\n      dup2\n        /* \"#utility.yul\":3584:3588   */\n      dup2\n        /* \"#utility.yul\":3580:3600   */\n      sub\n        /* \"#utility.yul\":3576:3577   */\n      0x00\n        /* \"#utility.yul\":3565:3574   */\n      dup4\n        /* \"#utility.yul\":3561:3578   */\n      add\n        /* \"#utility.yul\":3554:3601   */\n      mstore\n        /* \"#utility.yul\":3618:3696   */\n      tag_126\n        /* \"#utility.yul\":3691:3695   */\n      dup2\n        /* \"#utility.yul\":3682:3688   */\n      dup5\n        /* \"#utility.yul\":3618:3696   */\n      tag_98\n      jump\t// in\n    tag_126:\n        /* \"#utility.yul\":3610:3696   */\n      swap1\n      pop\n        /* \"#utility.yul\":3390:3703   */\n      swap3\n      swap2\n      pop\n      pop\n      jump\t// out\n        /* \"#utility.yul\":3709:4128   */\n    tag_61:\n        /* \"#utility.yul\":3875:3879   */\n      0x00\n        /* \"#utility.yul\":3913:3915   */\n      0x20\n        /* \"#utility.yul\":3902:3911   */\n      dup3\n        /* \"#utility.yul\":3898:3916   */\n      add\n        /* \"#utility.yul\":3890:3916   */\n      swap1\n      pop\n        /* \"#utility.yul\":3962:3971   */\n      dup2\n        /* \"#utility.yul\":3956:3960   */\n      dup2\n        /* \"#utility.yul\":3952:3972   */\n      sub\n        /* \"#utility.yul\":3948:3949   */\n      0x00\n        /* \"#utility.yul\":3937:3946   */\n      dup4\n        /* \"#utility.yul\":3933:3950   */\n      add\n        /* \"#utility.yul\":3926:3973   */\n      mstore\n        /* \"#utility.yul\":3990:4121   */\n      tag_128\n        /* \"#utility.yul\":4116:4120   */\n      dup2\n        /* \"#utility.yul\":3990:4121   */\n      tag_108\n      jump\t// in\n    tag_128:\n        /* \"#utility.yul\":3982:4121   */\n      swap1\n      pop\n        /* \"#utility.yul\":3709:4128   */\n      swap2\n      swap1\n      pop\n      jump\t// out\n        /* \"#utility.yul\":4134:4356   */\n    tag_26:\n        /* \"#utility.yul\":4227:4231   */\n      0x00\n        /* \"#utility.yul\":4265:4267   */\n      0x20\n        /* \"#utility.yul\":4254:4263   */\n      dup3\n        /* \"#utility.yul\":4250:4268   */\n      add\n        /* \"#utility.yul\":4242:4268   */\n      swap1\n      pop\n        /* \"#utility.yul\":4278:4349   */\n      tag_130\n        /* \"#utility.yul\":4346:4347   */\n      0x00\n        /* \"#utility.yul\":4335:4344   */\n      dup4\n        /* \"#utility.yul\":4331:4348   */\n      add\n        /* \"#utility.yul\":4322:4328   */\n      dup5\n        /* \"#utility.yul\":4278:4349   */\n      tag_113\n      jump\t// in\n    tag_130:\n        /* \"#utility.yul\":4134:4356   */\n      swap3\n      swap2\n      pop\n      pop\n      jump\t// out\n        /* \"#utility.yul\":4443:4542   */\n    tag_101:\n        /* \"#utility.yul\":4495:4501   */\n      0x00\n        /* \"#utility.yul\":4529:4534   */\n      dup2\n        /* \"#utility.yul\":4523:4535   */\n      mload\n        /* \"#utility.yul\":4513:4535   */\n      swap1\n      pop\n        /* \"#utility.yul\":4443:4542   */\n      swap2\n      swap1\n      pop\n      jump\t// out\n        /* \"#utility.yul\":4548:4717   */\n    tag_103:\n        /* \"#utility.yul\":4632:4643   */\n      0x00\n        /* \"#utility.yul\":4666:4672   */\n      dup3\n        /* \"#utility.yul\":4661:4664   */\n      dup3\n        /* \"#utility.yul\":4654:4673   */\n      mstore\n        /* \"#utility.yul\":4706:4710   */\n      0x20\n        /* \"#utility.yul\":4701:4704   */\n      dup3\n        /* \"#utility.yul\":4697:4711   */\n      add\n        /* \"#utility.yul\":4682:4711   */\n      swap1\n      pop\n        /* \"#utility.yul\":4548:4717   */\n      swap3\n      swap2\n      pop\n      pop\n      jump\t// out\n        /* \"#utility.yul\":4723:4819   */\n    tag_85:\n        /* \"#utility.yul\":4760:4767   */\n      0x00\n        /* \"#utility.yul\":4789:4813   */\n      tag_136\n        /* \"#utility.yul\":4807:4812   */\n      dup3\n        /* \"#utility.yul\":4789:4813   */\n      tag_137\n      jump\t// in\n    tag_136:\n        /* \"#utility.yul\":4778:4813   */\n      swap1\n      pop\n        /* \"#utility.yul\":4723:4819   */\n      swap2\n      swap1\n      pop\n      jump\t// out\n        /* \"#utility.yul\":4825:4915   */\n    tag_89:\n        /* \"#utility.yul\":4859:4866   */\n      0x00\n        /* \"#utility.yul\":4902:4907   */\n      dup2\n        /* \"#utility.yul\":4895:4908   */\n      iszero\n        /* \"#utility.yul\":4888:4909   */\n      iszero\n        /* \"#utility.yul\":4877:4909   */\n      swap1\n      pop\n        /* \"#utility.yul\":4825:4915   */\n      swap2\n      swap1\n      pop\n      jump\t// out\n        /* \"#utility.yul\":4921:5047   */\n    tag_137:\n        /* \"#utility.yul\":4958:4965   */\n      0x00\n        /* \"#utility.yul\":4998:5040   */\n      0xffffffffffffffffffffffffffffffffffffffff\n        /* \"#utility.yul\":4991:4996   */\n      dup3\n        /* \"#utility.yul\":4987:5041   */\n      and\n        /* \"#utility.yul\":4976:5041   */\n      swap1\n      pop\n        /* \"#utility.yul\":4921:5047   */\n      swap2\n      swap1\n      pop\n      jump\t// out\n        /* \"#utility.yul\":5053:5130   */\n    tag_116:\n        /* \"#utility.yul\":5090:5097   */\n      0x00\n        /* \"#utility.yul\":5119:5124   */\n      dup2\n        /* \"#utility.yul\":5108:5124   */\n      swap1\n      pop\n        /* \"#utility.yul\":5053:5130   */\n      swap2\n      swap1\n      pop\n      jump\t// out\n        /* \"#utility.yul\":5136:5278   */\n    tag_93:\n        /* \"#utility.yul\":5202:5211   */\n      0x00\n        /* \"#utility.yul\":5235:5272   */\n      tag_142\n        /* \"#utility.yul\":5266:5271   */\n      dup3\n        /* \"#utility.yul\":5235:5272   */\n      tag_143\n      jump\t// in\n    tag_142:\n        /* \"#utility.yul\":5222:5272   */\n      swap1\n      pop\n        /* \"#utility.yul\":5136:5278   */\n      swap2\n      swap1\n      pop\n      jump\t// out\n        /* \"#utility.yul\":5284:5430   */\n    tag_97:\n        /* \"#utility.yul\":5354:5363   */\n      0x00\n        /* \"#utility.yul\":5387:5424   */\n      tag_145\n        /* \"#utility.yul\":5418:5423   */\n      dup3\n        /* \"#utility.yul\":5387:5424   */\n      tag_143\n      jump\t// in\n    tag_145:\n        /* \"#utility.yul\":5374:5424   */\n      swap1\n      pop\n        /* \"#utility.yul\":5284:5430   */\n      swap2\n      swap1\n      pop\n      jump\t// out\n        /* \"#utility.yul\":5436:5562   */\n    tag_143:\n        /* \"#utility.yul\":5486:5495   */\n      0x00\n        /* \"#utility.yul\":5519:5556   */\n      tag_147\n        /* \"#utility.yul\":5550:5555   */\n      dup3\n        /* \"#utility.yul\":5519:5556   */\n      tag_148\n      jump\t// in\n    tag_147:\n        /* \"#utility.yul\":5506:5556   */\n      swap1\n      pop\n        /* \"#utility.yul\":5436:5562   */\n      swap2\n      swap1\n      pop\n      jump\t// out\n        /* \"#utility.yul\":5568:5681   */\n    tag_148:\n        /* \"#utility.yul\":5618:5627   */\n      0x00\n        /* \"#utility.yul\":5651:5675   */\n      tag_150\n        /* \"#utility.yul\":5669:5674   */\n      dup3\n        /* \"#utility.yul\":5651:5675   */\n      tag_137\n      jump\t// in\n    tag_150:\n        /* \"#utility.yul\":5638:5675   */\n      swap1\n      pop\n        /* \"#utility.yul\":5568:5681   */\n      swap2\n      swap1\n      pop\n      jump\t// out\n        /* \"#utility.yul\":5687:5994   */\n    tag_105:\n        /* \"#utility.yul\":5755:5756   */\n      0x00\n        /* \"#utility.yul\":5765:5878   */\n    tag_152:\n        /* \"#utility.yul\":5779:5785   */\n      dup4\n        /* \"#utility.yul\":5776:5777   */\n      dup2\n        /* \"#utility.yul\":5773:5786   */\n      lt\n        /* \"#utility.yul\":5765:5878   */\n      iszero\n      tag_154\n      jumpi\n        /* \"#utility.yul\":5864:5865   */\n      dup1\n        /* \"#utility.yul\":5859:5862   */\n      dup3\n        /* \"#utility.yul\":5855:5866   */\n      add\n        /* \"#utility.yul\":5849:5867   */\n      mload\n        /* \"#utility.yul\":5845:5846   */\n      dup2\n        /* \"#utility.yul\":5840:5843   */\n      dup5\n        /* \"#utility.yul\":5836:5847   */\n      add\n        /* \"#utility.yul\":5829:5868   */\n      mstore\n        /* \"#utility.yul\":5801:5803   */\n      0x20\n        /* \"#utility.yul\":5798:5799   */\n      dup2\n        /* \"#utility.yul\":5794:5804   */\n      add\n        /* \"#utility.yul\":5789:5804   */\n      swap1\n      pop\n        /* \"#utility.yul\":5765:5878   */\n      jump(tag_152)\n    tag_154:\n        /* \"#utility.yul\":5896:5902   */\n      dup4\n        /* \"#utility.yul\":5893:5894   */\n      dup2\n        /* \"#utility.yul\":5890:5903   */\n      gt\n        /* \"#utility.yul\":5887:5988   */\n      iszero\n      tag_155\n      jumpi\n        /* \"#utility.yul\":5976:5977   */\n      0x00\n        /* \"#utility.yul\":5967:5973   */\n      dup5\n        /* \"#utility.yul\":5962:5965   */\n      dup5\n        /* \"#utility.yul\":5958:5974   */\n      add\n        /* \"#utility.yul\":5951:5978   */\n      mstore\n        /* \"#utility.yul\":5887:5988   */\n    tag_155:\n        /* \"#utility.yul\":5736:5994   */\n      pop\n        /* \"#utility.yul\":5687:5994   */\n      pop\n      pop\n      pop\n      jump\t// out\n        /* \"#utility.yul\":6000:6320   */\n    tag_53:\n        /* \"#utility.yul\":6044:6050   */\n      0x00\n        /* \"#utility.yul\":6081:6082   */\n      0x02\n        /* \"#utility.yul\":6075:6079   */\n      dup3\n        /* \"#utility.yul\":6071:6083   */\n      div\n        /* \"#utility.yul\":6061:6083   */\n      swap1\n      pop\n        /* \"#utility.yul\":6128:6129   */\n      0x01\n        /* \"#utility.yul\":6122:6126   */\n      dup3\n        /* \"#utility.yul\":6118:6130   */\n      and\n        /* \"#utility.yul\":6149:6167   */\n      dup1\n        /* \"#utility.yul\":6139:6220   */\n      tag_157\n      jumpi\n        /* \"#utility.yul\":6205:6209   */\n      0x7f\n        /* \"#utility.yul\":6197:6203   */\n      dup3\n        /* \"#utility.yul\":6193:6210   */\n      and\n        /* \"#utility.yul\":6183:6210   */\n      swap2\n      pop\n        /* \"#utility.yul\":6139:6220   */\n    tag_157:\n        /* \"#utility.yul\":6267:6269   */\n      0x20\n        /* \"#utility.yul\":6259:6265   */\n      dup3\n        /* \"#utility.yul\":6256:6270   */\n      lt\n        /* \"#utility.yul\":6236:6254   */\n      dup2\n        /* \"#utility.yul\":6233:6271   */\n      eq\n        /* \"#utility.yul\":6230:6314   */\n      iszero\n      tag_158\n      jumpi\n        /* \"#utility.yul\":6286:6304   */\n      tag_159\n      tag_160\n      jump\t// in\n    tag_159:\n        /* \"#utility.yul\":6230:6314   */\n    tag_158:\n        /* \"#utility.yul\":6051:6320   */\n      pop\n        /* \"#utility.yul\":6000:6320   */\n      swap2\n      swap1\n      pop\n      jump\t// out\n        /* \"#utility.yul\":6326:6506   */\n    tag_160:\n        /* \"#utility.yul\":6374:6451   */\n      0x4e487b7100000000000000000000000000000000000000000000000000000000\n        /* \"#utility.yul\":6371:6372   */\n      0x00\n        /* \"#utility.yul\":6364:6452   */\n      mstore\n        /* \"#utility.yul\":6471:6475   */\n      0x22\n        /* \"#utility.yul\":6468:6469   */\n      0x04\n        /* \"#utility.yul\":6461:6476   */\n      mstore\n        /* \"#utility.yul\":6495:6499   */\n      0x24\n        /* \"#utility.yul\":6492:6493   */\n      0x00\n        /* \"#utility.yul\":6485:6500   */\n      revert\n        /* \"#utility.yul\":6635:6752   */\n    tag_76:\n        /* \"#utility.yul\":6744:6745   */\n      0x00\n        /* \"#utility.yul\":6741:6742   */\n      dup1\n        /* \"#utility.yul\":6734:6746   */\n      revert\n        /* \"#utility.yul\":6758:6860   */\n    tag_107:\n        /* \"#utility.yul\":6799:6805   */\n      0x00\n        /* \"#utility.yul\":6850:6852   */\n      0x1f\n        /* \"#utility.yul\":6846:6853   */\n      not\n        /* \"#utility.yul\":6841:6843   */\n      0x1f\n        /* \"#utility.yul\":6834:6839   */\n      dup4\n        /* \"#utility.yul\":6830:6844   */\n      add\n        /* \"#utility.yul\":6826:6854   */\n      and\n        /* \"#utility.yul\":6816:6854   */\n      swap1\n      pop\n        /* \"#utility.yul\":6758:6860   */\n      swap2\n      swap1\n      pop\n      jump\t// out\n        /* \"#utility.yul\":6866:7087   */\n    tag_112:\n        /* \"#utility.yul\":7006:7040   */\n      0x4c612063616e7469646164206e6f20707565646520736572206d656e6f722061\n        /* \"#utility.yul\":7002:7003   */\n      0x00\n        /* \"#utility.yul\":6994:7000   */\n      dup3\n        /* \"#utility.yul\":6990:7004   */\n      add\n        /* \"#utility.yul\":6983:7041   */\n      mstore\n        /* \"#utility.yul\":7075:7079   */\n      0x2030000000000000000000000000000000000000000000000000000000000000\n        /* \"#utility.yul\":7070:7072   */\n      0x20\n        /* \"#utility.yul\":7062:7068   */\n      dup3\n        /* \"#utility.yul\":7058:7073   */\n      add\n        /* \"#utility.yul\":7051:7080   */\n      mstore\n        /* \"#utility.yul\":6866:7087   */\n      pop\n      jump\t// out\n        /* \"#utility.yul\":7093:7215   */\n    tag_68:\n        /* \"#utility.yul\":7166:7190   */\n      tag_168\n        /* \"#utility.yul\":7184:7189   */\n      dup2\n        /* \"#utility.yul\":7166:7190   */\n      tag_85\n      jump\t// in\n    tag_168:\n        /* \"#utility.yul\":7159:7164   */\n      dup2\n        /* \"#utility.yul\":7156:7191   */\n      eq\n        /* \"#utility.yul\":7146:7209   */\n      tag_169\n      jumpi\n        /* \"#utility.yul\":7205:7206   */\n      0x00\n        /* \"#utility.yul\":7202:7203   */\n      dup1\n        /* \"#utility.yul\":7195:7207   */\n      revert\n        /* \"#utility.yul\":7146:7209   */\n    tag_169:\n        /* \"#utility.yul\":7093:7215   */\n      pop\n      jump\t// out\n        /* \"#utility.yul\":7221:7343   */\n    tag_72:\n        /* \"#utility.yul\":7294:7318   */\n      tag_171\n        /* \"#utility.yul\":7312:7317   */\n      dup2\n        /* \"#utility.yul\":7294:7318   */\n      tag_116\n      jump\t// in\n    tag_171:\n        /* \"#utility.yul\":7287:7292   */\n      dup2\n        /* \"#utility.yul\":7284:7319   */\n      eq\n        /* \"#utility.yul\":7274:7337   */\n      tag_172\n      jumpi\n        /* \"#utility.yul\":7333:7334   */\n      0x00\n        /* \"#utility.yul\":7330:7331   */\n      dup1\n        /* \"#utility.yul\":7323:7335   */\n      revert\n        /* \"#utility.yul\":7274:7337   */\n    tag_172:\n        /* \"#utility.yul\":7221:7343   */\n      pop\n      jump\t// out\n\n    auxdata: 0xa264697066735822122073ec1856de90fa01b76c1dda820ed2174a03be8b3fec3aaf0a04849f74eb218164736f6c63430008070033\n}\n",
				"bytecode": {
					"linkReferences": {},
					"object": "60806040526040518060400160405280601281526020017f5374656c6c617220546f6b656e204672616d0000000000000000000000000000815250600090805190602001906200005192919062000150565b503480156200005f57600080fd5b5060405162000b4538038062000b4583398181016040528101906200008591906200022e565b81600360006101000a81548173ffffffffffffffffffffffffffffffffffffffff021916908373ffffffffffffffffffffffffffffffffffffffff16021790555080600260006101000a81548173ffffffffffffffffffffffffffffffffffffffff021916908373ffffffffffffffffffffffffffffffffffffffff16021790555033600160006101000a81548173ffffffffffffffffffffffffffffffffffffffff021916908373ffffffffffffffffffffffffffffffffffffffff16021790555050506200036f565b8280546200015e90620002d1565b90600052602060002090601f016020900481019282620001825760008555620001ce565b82601f106200019d57805160ff1916838001178555620001ce565b82800160010185558215620001ce579182015b82811115620001cd578251825591602001919060010190620001b0565b5b509050620001dd9190620001e1565b5090565b5b80821115620001fc576000816000905550600101620001e2565b5090565b60008151905062000211816200033b565b92915050565b600081519050620002288162000355565b92915050565b6000806040838503121562000248576200024762000336565b5b6000620002588582860162000217565b92505060206200026b8582860162000200565b9150509250929050565b60006200028282620002b1565b9050919050565b6000620002968262000275565b9050919050565b6000620002aa8262000275565b9050919050565b600073ffffffffffffffffffffffffffffffffffffffff82169050919050565b60006002820490506001821680620002ea57607f821691505b6020821081141562000301576200030062000307565b5b50919050565b7f4e487b7100000000000000000000000000000000000000000000000000000000600052602260045260246000fd5b600080fd5b620003468162000289565b81146200035257600080fd5b50565b62000360816200029d565b81146200036c57600080fd5b50565b6107c6806200037f6000396000f3fe608060405234801561001057600080fd5b50600436106100935760003560e01c80636f49712b116100665780636f49712b14610120578063b4a99a4e14610150578063c93c8f341461016e578063f416d7601461019e578063fd5e6dd1146101bc57610093565b806306fdde03146100985780630f141533146100b657806345bc78ab146100d45780636e9e282214610104575b600080fd5b6100a06101ec565b6040516100ad9190610560565b60405180910390f35b6100be61027a565b6040516100cb9190610545565b60405180910390f35b6100ee60048036038101906100e991906103f3565b6102a0565b6040516100fb91906105a2565b60405180910390f35b61011e60048036038101906101199190610420565b6102b8565b005b61013a600480360381019061013591906103f3565b6102fe565b604051610147919061050f565b60405180910390f35b61015861031e565b60405161016591906104f4565b60405180910390f35b610188600480360381019061018391906103f3565b610344565b604051610195919061050f565b60405180910390f35b6101a6610364565b6040516101b3919061052a565b60405180910390f35b6101d660048036038101906101d19190610420565b61038a565b6040516101e391906104f4565b60405180910390f35b600080546101f99061069c565b80601f01602080910402602001604051908101604052809291908181526020018280546102259061069c565b80156102725780601f1061024757610100808354040283529160200191610272565b820191906000526020600020905b81548152906001019060200180831161025557829003601f168201915b505050505081565b600360009054906101000a900473ffffffffffffffffffffffffffffffffffffffff1681565b60056020528060005260406000206000915090505481565b600081106102fb576040517f08c379a00000000000000000000000000000000000000000000000000000000081526004016102f290610582565b60405180910390fd5b50565b60076020528060005260406000206000915054906101000a900460ff1681565b600160009054906101000a900473ffffffffffffffffffffffffffffffffffffffff1681565b60066020528060005260406000206000915054906101000a900460ff1681565b600260009054906101000a900473ffffffffffffffffffffffffffffffffffffffff1681565b6004818154811061039a57600080fd5b906000526020600020016000915054906101000a900473ffffffffffffffffffffffffffffffffffffffff1681565b6000813590506103d881610762565b92915050565b6000813590506103ed81610779565b92915050565b600060208284031215610409576104086106fd565b5b6000610417848285016103c9565b91505092915050565b600060208284031215610436576104356106fd565b5b6000610444848285016103de565b91505092915050565b610456816105d9565b82525050565b610465816105eb565b82525050565b61047481610621565b82525050565b61048381610633565b82525050565b6000610494826105bd565b61049e81856105c8565b93506104ae818560208601610669565b6104b781610702565b840191505092915050565b60006104cf6022836105c8565b91506104da82610713565b604082019050919050565b6104ee81610617565b82525050565b6000602082019050610509600083018461044d565b92915050565b6000602082019050610524600083018461045c565b92915050565b600060208201905061053f600083018461046b565b92915050565b600060208201905061055a600083018461047a565b92915050565b6000602082019050818103600083015261057a8184610489565b905092915050565b6000602082019050818103600083015261059b816104c2565b9050919050565b60006020820190506105b760008301846104e5565b92915050565b600081519050919050565b600082825260208201905092915050565b60006105e4826105f7565b9050919050565b60008115159050919050565b600073ffffffffffffffffffffffffffffffffffffffff82169050919050565b6000819050919050565b600061062c82610645565b9050919050565b600061063e82610645565b9050919050565b600061065082610657565b9050919050565b6000610662826105f7565b9050919050565b60005b8381101561068757808201518184015260208101905061066c565b83811115610696576000848401525b50505050565b600060028204905060018216806106b457607f821691505b602082108114156106c8576106c76106ce565b5b50919050565b7f4e487b7100000000000000000000000000000000000000000000000000000000600052602260045260246000fd5b600080fd5b6000601f19601f8301169050919050565b7f4c612063616e7469646164206e6f20707565646520736572206d656e6f72206160008201527f2030000000000000000000000000000000000000000000000000000000000000602082015250565b61076b816105d9565b811461077657600080fd5b50565b61078281610617565b811461078d57600080fd5b5056fea264697066735822122073ec1856de90fa01b76c1dda820ed2174a03be8b3fec3aaf0a04849f74eb218164736f6c63430008070033",
					"opcodes": "PUSH1 0x80 PUSH1 0x40 MSTORE PUSH1 0x40 MLOAD DUP1 PUSH1 0x40 ADD PUSH1 0x40 MSTORE DUP1 PUSH1 0x12 DUP2 MSTORE PUSH1 0x20 ADD PUSH32 0x5374656C6C617220546F6B656E204672616D0000000000000000000000000000 DUP2 MSTORE POP PUSH1 0x0 SWAP1 DUP1 MLOAD SWAP1 PUSH1 0x20 ADD SWAP1 PUSH3 0x51 SWAP3 SWAP2 SWAP1 PUSH3 0x150 JUMP JUMPDEST POP CALLVALUE DUP1 ISZERO PUSH3 0x5F JUMPI PUSH1 0x0 DUP1 REVERT JUMPDEST POP PUSH1 0x40 MLOAD PUSH3 0xB45 CODESIZE SUB DUP1 PUSH3 0xB45 DUP4 CODECOPY DUP2 DUP2 ADD PUSH1 0x40 MSTORE DUP2 ADD SWAP1 PUSH3 0x85 SWAP2 SWAP1 PUSH3 0x22E JUMP JUMPDEST DUP2 PUSH1 0x3 PUSH1 0x0 PUSH2 0x100 EXP DUP2 SLOAD DUP2 PUSH20 0xFFFFFFFFFFFFFFFFFFFFFFFFFFFFFFFFFFFFFFFF MUL NOT AND SWAP1 DUP4 PUSH20 0xFFFFFFFFFFFFFFFFFFFFFFFFFFFFFFFFFFFFFFFF AND MUL OR SWAP1 SSTORE POP DUP1 PUSH1 0x2 PUSH1 0x0 PUSH2 0x100 EXP DUP2 SLOAD DUP2 PUSH20 0xFFFFFFFFFFFFFFFFFFFFFFFFFFFFFFFFFFFFFFFF MUL NOT AND SWAP1 DUP4 PUSH20 0xFFFFFFFFFFFFFFFFFFFFFFFFFFFFFFFFFFFFFFFF AND MUL OR SWAP1 SSTORE POP CALLER PUSH1 0x1 PUSH1 0x0 PUSH2 0x100 EXP DUP2 SLOAD DUP2 PUSH20 0xFFFFFFFFFFFFFFFFFFFFFFFFFFFFFFFFFFFFFFFF MUL NOT AND SWAP1 DUP4 PUSH20 0xFFFFFFFFFFFFFFFFFFFFFFFFFFFFFFFFFFFFFFFF AND MUL OR SWAP1 SSTORE POP POP POP PUSH3 0x36F JUMP JUMPDEST DUP3 DUP1 SLOAD PUSH3 0x15E SWAP1 PUSH3 0x2D1 JUMP JUMPDEST SWAP1 PUSH1 0x0 MSTORE PUSH1 0x20 PUSH1 0x0 KECCAK256 SWAP1 PUSH1 0x1F ADD PUSH1 0x20 SWAP1 DIV DUP2 ADD SWAP3 DUP3 PUSH3 0x182 JUMPI PUSH1 0x0 DUP6 SSTORE PUSH3 0x1CE JUMP JUMPDEST DUP3 PUSH1 0x1F LT PUSH3 0x19D JUMPI DUP1 MLOAD PUSH1 0xFF NOT AND DUP4 DUP1 ADD OR DUP6 SSTORE PUSH3 0x1CE JUMP JUMPDEST DUP3 DUP1 ADD PUSH1 0x1 ADD DUP6 SSTORE DUP3 ISZERO PUSH3 0x1CE JUMPI SWAP2 DUP3 ADD JUMPDEST DUP3 DUP2 GT ISZERO PUSH3 0x1CD JUMPI DUP3 MLOAD DUP3 SSTORE SWAP2 PUSH1 0x20 ADD SWAP2 SWAP1 PUSH1 0x1 ADD SWAP1 PUSH3 0x1B0 JUMP JUMPDEST JUMPDEST POP SWAP1 POP PUSH3 0x1DD SWAP2 SWAP1 PUSH3 0x1E1 JUMP JUMPDEST POP SWAP1 JUMP JUMPDEST JUMPDEST DUP1 DUP3 GT ISZERO PUSH3 0x1FC JUMPI PUSH1 0x0 DUP2 PUSH1 0x0 SWAP1 SSTORE POP PUSH1 0x1 ADD PUSH3 0x1E2 JUMP JUMPDEST POP SWAP1 JUMP JUMPDEST PUSH1 0x0 DUP2 MLOAD SWAP1 POP PUSH3 0x211 DUP2 PUSH3 0x33B JUMP JUMPDEST SWAP3 SWAP2 POP POP JUMP JUMPDEST PUSH1 0x0 DUP2 MLOAD SWAP1 POP PUSH3 0x228 DUP2 PUSH3 0x355 JUMP JUMPDEST SWAP3 SWAP2 POP POP JUMP JUMPDEST PUSH1 0x0 DUP1 PUSH1 0x40 DUP4 DUP6 SUB SLT ISZERO PUSH3 0x248 JUMPI PUSH3 0x247 PUSH3 0x336 JUMP JUMPDEST JUMPDEST PUSH1 0x0 PUSH3 0x258 DUP6 DUP3 DUP7 ADD PUSH3 0x217 JUMP JUMPDEST SWAP3 POP POP PUSH1 0x20 PUSH3 0x26B DUP6 DUP3 DUP7 ADD PUSH3 0x200 JUMP JUMPDEST SWAP2 POP POP SWAP3 POP SWAP3 SWAP1 POP JUMP JUMPDEST PUSH1 0x0 PUSH3 0x282 DUP3 PUSH3 0x2B1 JUMP JUMPDEST SWAP1 POP SWAP2 SWAP1 POP JUMP JUMPDEST PUSH1 0x0 PUSH3 0x296 DUP3 PUSH3 0x275 JUMP JUMPDEST SWAP1 POP SWAP2 SWAP1 POP JUMP JUMPDEST PUSH1 0x0 PUSH3 0x2AA DUP3 PUSH3 0x275 JUMP JUMPDEST SWAP1 POP SWAP2 SWAP1 POP JUMP JUMPDEST PUSH1 0x0 PUSH20 0xFFFFFFFFFFFFFFFFFFFFFFFFFFFFFFFFFFFFFFFF DUP3 AND SWAP1 POP SWAP2 SWAP1 POP JUMP JUMPDEST PUSH1 0x0 PUSH1 0x2 DUP3 DIV SWAP1 POP PUSH1 0x1 DUP3 AND DUP1 PUSH3 0x2EA JUMPI PUSH1 0x7F DUP3 AND SWAP2 POP JUMPDEST PUSH1 0x20 DUP3 LT DUP2 EQ ISZERO PUSH3 0x301 JUMPI PUSH3 0x300 PUSH3 0x307 JUMP JUMPDEST JUMPDEST POP SWAP2 SWAP1 POP JUMP JUMPDEST PUSH32 0x4E487B7100000000000000000000000000000000000000000000000000000000 PUSH1 0x0 MSTORE PUSH1 0x22 PUSH1 0x4 MSTORE PUSH1 0x24 PUSH1 0x0 REVERT JUMPDEST PUSH1 0x0 DUP1 REVERT JUMPDEST PUSH3 0x346 DUP2 PUSH3 0x289 JUMP JUMPDEST DUP2 EQ PUSH3 0x352 JUMPI PUSH1 0x0 DUP1 REVERT JUMPDEST POP JUMP JUMPDEST PUSH3 0x360 DUP2 PUSH3 0x29D JUMP JUMPDEST DUP2 EQ PUSH3 0x36C JUMPI PUSH1 0x0 DUP1 REVERT JUMPDEST POP JUMP JUMPDEST PUSH2 0x7C6 DUP1 PUSH3 0x37F PUSH1 0x0 CODECOPY PUSH1 0x0 RETURN INVALID PUSH1 0x80 PUSH1 0x40 MSTORE CALLVALUE DUP1 ISZERO PUSH2 0x10 JUMPI PUSH1 0x0 DUP1 REVERT JUMPDEST POP PUSH1 0x4 CALLDATASIZE LT PUSH2 0x93 JUMPI PUSH1 0x0 CALLDATALOAD PUSH1 0xE0 SHR DUP1 PUSH4 0x6F49712B GT PUSH2 0x66 JUMPI DUP1 PUSH4 0x6F49712B EQ PUSH2 0x120 JUMPI DUP1 PUSH4 0xB4A99A4E EQ PUSH2 0x150 JUMPI DUP1 PUSH4 0xC93C8F34 EQ PUSH2 0x16E JUMPI DUP1 PUSH4 0xF416D760 EQ PUSH2 0x19E JUMPI DUP1 PUSH4 0xFD5E6DD1 EQ PUSH2 0x1BC JUMPI PUSH2 0x93 JUMP JUMPDEST DUP1 PUSH4 0x6FDDE03 EQ PUSH2 0x98 JUMPI DUP1 PUSH4 0xF141533 EQ PUSH2 0xB6 JUMPI DUP1 PUSH4 0x45BC78AB EQ PUSH2 0xD4 JUMPI DUP1 PUSH4 0x6E9E2822 EQ PUSH2 0x104 JUMPI JUMPDEST PUSH1 0x0 DUP1 REVERT JUMPDEST PUSH2 0xA0 PUSH2 0x1EC JUMP JUMPDEST PUSH1 0x40 MLOAD PUSH2 0xAD SWAP2 SWAP1 PUSH2 0x560 JUMP JUMPDEST PUSH1 0x40 MLOAD DUP1 SWAP2 SUB SWAP1 RETURN JUMPDEST PUSH2 0xBE PUSH2 0x27A JUMP JUMPDEST PUSH1 0x40 MLOAD PUSH2 0xCB SWAP2 SWAP1 PUSH2 0x545 JUMP JUMPDEST PUSH1 0x40 MLOAD DUP1 SWAP2 SUB SWAP1 RETURN JUMPDEST PUSH2 0xEE PUSH1 0x4 DUP1 CALLDATASIZE SUB DUP2 ADD SWAP1 PUSH2 0xE9 SWAP2 SWAP1 PUSH2 0x3F3 JUMP JUMPDEST PUSH2 0x2A0 JUMP JUMPDEST PUSH1 0x40 MLOAD PUSH2 0xFB SWAP2 SWAP1 PUSH2 0x5A2 JUMP JUMPDEST PUSH1 0x40 MLOAD DUP1 SWAP2 SUB SWAP1 RETURN JUMPDEST PUSH2 0x11E PUSH1 0x4 DUP1 CALLDATASIZE SUB DUP2 ADD SWAP1 PUSH2 0x119 SWAP2 SWAP1 PUSH2 0x420 JUMP JUMPDEST PUSH2 0x2B8 JUMP JUMPDEST STOP JUMPDEST PUSH2 0x13A PUSH1 0x4 DUP1 CALLDATASIZE SUB DUP2 ADD SWAP1 PUSH2 0x135 SWAP2 SWAP1 PUSH2 0x3F3 JUMP JUMPDEST PUSH2 0x2FE JUMP JUMPDEST PUSH1 0x40 MLOAD PUSH2 0x147 SWAP2 SWAP1 PUSH2 0x50F JUMP JUMPDEST PUSH1 0x40 MLOAD DUP1 SWAP2 SUB SWAP1 RETURN JUMPDEST PUSH2 0x158 PUSH2 0x31E JUMP JUMPDEST PUSH1 0x40 MLOAD PUSH2 0x165 SWAP2 SWAP1 PUSH2 0x4F4 JUMP JUMPDEST PUSH1 0x40 MLOAD DUP1 SWAP2 SUB SWAP1 RETURN JUMPDEST PUSH2 0x188 PUSH1 0x4 DUP1 CALLDATASIZE SUB DUP2 ADD SWAP1 PUSH2 0x183 SWAP2 SWAP1 PUSH2 0x3F3 JUMP JUMPDEST PUSH2 0x344 JUMP JUMPDEST PUSH1 0x40 MLOAD PUSH2 0x195 SWAP2 SWAP1 PUSH2 0x50F JUMP JUMPDEST PUSH1 0x40 MLOAD DUP1 SWAP2 SUB SWAP1 RETURN JUMPDEST PUSH2 0x1A6 PUSH2 0x364 JUMP JUMPDEST PUSH1 0x40 MLOAD PUSH2 0x1B3 SWAP2 SWAP1 PUSH2 0x52A JUMP JUMPDEST PUSH1 0x40 MLOAD DUP1 SWAP2 SUB SWAP1 RETURN JUMPDEST PUSH2 0x1D6 PUSH1 0x4 DUP1 CALLDATASIZE SUB DUP2 ADD SWAP1 PUSH2 0x1D1 SWAP2 SWAP1 PUSH2 0x420 JUMP JUMPDEST PUSH2 0x38A JUMP JUMPDEST PUSH1 0x40 MLOAD PUSH2 0x1E3 SWAP2 SWAP1 PUSH2 0x4F4 JUMP JUMPDEST PUSH1 0x40 MLOAD DUP1 SWAP2 SUB SWAP1 RETURN JUMPDEST PUSH1 0x0 DUP1 SLOAD PUSH2 0x1F9 SWAP1 PUSH2 0x69C JUMP JUMPDEST DUP1 PUSH1 0x1F ADD PUSH1 0x20 DUP1 SWAP2 DIV MUL PUSH1 0x20 ADD PUSH1 0x40 MLOAD SWAP1 DUP2 ADD PUSH1 0x40 MSTORE DUP1 SWAP3 SWAP2 SWAP1 DUP2 DUP2 MSTORE PUSH1 0x20 ADD DUP3 DUP1 SLOAD PUSH2 0x225 SWAP1 PUSH2 0x69C JUMP JUMPDEST DUP1 ISZERO PUSH2 0x272 JUMPI DUP1 PUSH1 0x1F LT PUSH2 0x247 JUMPI PUSH2 0x100 DUP1 DUP4 SLOAD DIV MUL DUP4 MSTORE SWAP2 PUSH1 0x20 ADD SWAP2 PUSH2 0x272 JUMP JUMPDEST DUP3 ADD SWAP2 SWAP1 PUSH1 0x0 MSTORE PUSH1 0x20 PUSH1 0x0 KECCAK256 SWAP1 JUMPDEST DUP2 SLOAD DUP2 MSTORE SWAP1 PUSH1 0x1 ADD SWAP1 PUSH1 0x20 ADD DUP1 DUP4 GT PUSH2 0x255 JUMPI DUP3 SWAP1 SUB PUSH1 0x1F AND DUP3 ADD SWAP2 JUMPDEST POP POP POP POP POP DUP2 JUMP JUMPDEST PUSH1 0x3 PUSH1 0x0 SWAP1 SLOAD SWAP1 PUSH2 0x100 EXP SWAP1 DIV PUSH20 0xFFFFFFFFFFFFFFFFFFFFFFFFFFFFFFFFFFFFFFFF AND DUP2 JUMP JUMPDEST PUSH1 0x5 PUSH1 0x20 MSTORE DUP1 PUSH1 0x0 MSTORE PUSH1 0x40 PUSH1 0x0 KECCAK256 PUSH1 0x0 SWAP2 POP SWAP1 POP SLOAD DUP2 JUMP JUMPDEST PUSH1 0x0 DUP2 LT PUSH2 0x2FB JUMPI PUSH1 0x40 MLOAD PUSH32 0x8C379A000000000000000000000000000000000000000000000000000000000 DUP2 MSTORE PUSH1 0x4 ADD PUSH2 0x2F2 SWAP1 PUSH2 0x582 JUMP JUMPDEST PUSH1 0x40 MLOAD DUP1 SWAP2 SUB SWAP1 REVERT JUMPDEST POP JUMP JUMPDEST PUSH1 0x7 PUSH1 0x20 MSTORE DUP1 PUSH1 0x0 MSTORE PUSH1 0x40 PUSH1 0x0 KECCAK256 PUSH1 0x0 SWAP2 POP SLOAD SWAP1 PUSH2 0x100 EXP SWAP1 DIV PUSH1 0xFF AND DUP2 JUMP JUMPDEST PUSH1 0x1 PUSH1 0x0 SWAP1 SLOAD SWAP1 PUSH2 0x100 EXP SWAP1 DIV PUSH20 0xFFFFFFFFFFFFFFFFFFFFFFFFFFFFFFFFFFFFFFFF AND DUP2 JUMP JUMPDEST PUSH1 0x6 PUSH1 0x20 MSTORE DUP1 PUSH1 0x0 MSTORE PUSH1 0x40 PUSH1 0x0 KECCAK256 PUSH1 0x0 SWAP2 POP SLOAD SWAP1 PUSH2 0x100 EXP SWAP1 DIV PUSH1 0xFF AND DUP2 JUMP JUMPDEST PUSH1 0x2 PUSH1 0x0 SWAP1 SLOAD SWAP1 PUSH2 0x100 EXP SWAP1 DIV PUSH20 0xFFFFFFFFFFFFFFFFFFFFFFFFFFFFFFFFFFFFFFFF AND DUP2 JUMP JUMPDEST PUSH1 0x4 DUP2 DUP2 SLOAD DUP2 LT PUSH2 0x39A JUMPI PUSH1 0x0 DUP1 REVERT JUMPDEST SWAP1 PUSH1 0x0 MSTORE PUSH1 0x20 PUSH1 0x0 KECCAK256 ADD PUSH1 0x0 SWAP2 POP SLOAD SWAP1 PUSH2 0x100 EXP SWAP1 DIV PUSH20 0xFFFFFFFFFFFFFFFFFFFFFFFFFFFFFFFFFFFFFFFF AND DUP2 JUMP JUMPDEST PUSH1 0x0 DUP2 CALLDATALOAD SWAP1 POP PUSH2 0x3D8 DUP2 PUSH2 0x762 JUMP JUMPDEST SWAP3 SWAP2 POP POP JUMP JUMPDEST PUSH1 0x0 DUP2 CALLDATALOAD SWAP1 POP PUSH2 0x3ED DUP2 PUSH2 0x779 JUMP JUMPDEST SWAP3 SWAP2 POP POP JUMP JUMPDEST PUSH1 0x0 PUSH1 0x20 DUP3 DUP5 SUB SLT ISZERO PUSH2 0x409 JUMPI PUSH2 0x408 PUSH2 0x6FD JUMP JUMPDEST JUMPDEST PUSH1 0x0 PUSH2 0x417 DUP5 DUP3 DUP6 ADD PUSH2 0x3C9 JUMP JUMPDEST SWAP2 POP POP SWAP3 SWAP2 POP POP JUMP JUMPDEST PUSH1 0x0 PUSH1 0x20 DUP3 DUP5 SUB SLT ISZERO PUSH2 0x436 JUMPI PUSH2 0x435 PUSH2 0x6FD JUMP JUMPDEST JUMPDEST PUSH1 0x0 PUSH2 0x444 DUP5 DUP3 DUP6 ADD PUSH2 0x3DE JUMP JUMPDEST SWAP2 POP POP SWAP3 SWAP2 POP POP JUMP JUMPDEST PUSH2 0x456 DUP2 PUSH2 0x5D9 JUMP JUMPDEST DUP3 MSTORE POP POP JUMP JUMPDEST PUSH2 0x465 DUP2 PUSH2 0x5EB JUMP JUMPDEST DUP3 MSTORE POP POP JUMP JUMPDEST PUSH2 0x474 DUP2 PUSH2 0x621 JUMP JUMPDEST DUP3 MSTORE POP POP JUMP JUMPDEST PUSH2 0x483 DUP2 PUSH2 0x633 JUMP JUMPDEST DUP3 MSTORE POP POP JUMP JUMPDEST PUSH1 0x0 PUSH2 0x494 DUP3 PUSH2 0x5BD JUMP JUMPDEST PUSH2 0x49E DUP2 DUP6 PUSH2 0x5C8 JUMP JUMPDEST SWAP4 POP PUSH2 0x4AE DUP2 DUP6 PUSH1 0x20 DUP7 ADD PUSH2 0x669 JUMP JUMPDEST PUSH2 0x4B7 DUP2 PUSH2 0x702 JUMP JUMPDEST DUP5 ADD SWAP2 POP POP SWAP3 SWAP2 POP POP JUMP JUMPDEST PUSH1 0x0 PUSH2 0x4CF PUSH1 0x22 DUP4 PUSH2 0x5C8 JUMP JUMPDEST SWAP2 POP PUSH2 0x4DA DUP3 PUSH2 0x713 JUMP JUMPDEST PUSH1 0x40 DUP3 ADD SWAP1 POP SWAP2 SWAP1 POP JUMP JUMPDEST PUSH2 0x4EE DUP2 PUSH2 0x617 JUMP JUMPDEST DUP3 MSTORE POP POP JUMP JUMPDEST PUSH1 0x0 PUSH1 0x20 DUP3 ADD SWAP1 POP PUSH2 0x509 PUSH1 0x0 DUP4 ADD DUP5 PUSH2 0x44D JUMP JUMPDEST SWAP3 SWAP2 POP POP JUMP JUMPDEST PUSH1 0x0 PUSH1 0x20 DUP3 ADD SWAP1 POP PUSH2 0x524 PUSH1 0x0 DUP4 ADD DUP5 PUSH2 0x45C JUMP JUMPDEST SWAP3 SWAP2 POP POP JUMP JUMPDEST PUSH1 0x0 PUSH1 0x20 DUP3 ADD SWAP1 POP PUSH2 0x53F PUSH1 0x0 DUP4 ADD DUP5 PUSH2 0x46B JUMP JUMPDEST SWAP3 SWAP2 POP POP JUMP JUMPDEST PUSH1 0x0 PUSH1 0x20 DUP3 ADD SWAP1 POP PUSH2 0x55A PUSH1 0x0 DUP4 ADD DUP5 PUSH2 0x47A JUMP JUMPDEST SWAP3 SWAP2 POP POP JUMP JUMPDEST PUSH1 0x0 PUSH1 0x20 DUP3 ADD SWAP1 POP DUP2 DUP2 SUB PUSH1 0x0 DUP4 ADD MSTORE PUSH2 0x57A DUP2 DUP5 PUSH2 0x489 JUMP JUMPDEST SWAP1 POP SWAP3 SWAP2 POP POP JUMP JUMPDEST PUSH1 0x0 PUSH1 0x20 DUP3 ADD SWAP1 POP DUP2 DUP2 SUB PUSH1 0x0 DUP4 ADD MSTORE PUSH2 0x59B DUP2 PUSH2 0x4C2 JUMP JUMPDEST SWAP1 POP SWAP2 SWAP1 POP JUMP JUMPDEST PUSH1 0x0 PUSH1 0x20 DUP3 ADD SWAP1 POP PUSH2 0x5B7 PUSH1 0x0 DUP4 ADD DUP5 PUSH2 0x4E5 JUMP JUMPDEST SWAP3 SWAP2 POP POP JUMP JUMPDEST PUSH1 0x0 DUP2 MLOAD SWAP1 POP SWAP2 SWAP1 POP JUMP JUMPDEST PUSH1 0x0 DUP3 DUP3 MSTORE PUSH1 0x20 DUP3 ADD SWAP1 POP SWAP3 SWAP2 POP POP JUMP JUMPDEST PUSH1 0x0 PUSH2 0x5E4 DUP3 PUSH2 0x5F7 JUMP JUMPDEST SWAP1 POP SWAP2 SWAP1 POP JUMP JUMPDEST PUSH1 0x0 DUP2 ISZERO ISZERO SWAP1 POP SWAP2 SWAP1 POP JUMP JUMPDEST PUSH1 0x0 PUSH20 0xFFFFFFFFFFFFFFFFFFFFFFFFFFFFFFFFFFFFFFFF DUP3 AND SWAP1 POP SWAP2 SWAP1 POP JUMP JUMPDEST PUSH1 0x0 DUP2 SWAP1 POP SWAP2 SWAP1 POP JUMP JUMPDEST PUSH1 0x0 PUSH2 0x62C DUP3 PUSH2 0x645 JUMP JUMPDEST SWAP1 POP SWAP2 SWAP1 POP JUMP JUMPDEST PUSH1 0x0 PUSH2 0x63E DUP3 PUSH2 0x645 JUMP JUMPDEST SWAP1 POP SWAP2 SWAP1 POP JUMP JUMPDEST PUSH1 0x0 PUSH2 0x650 DUP3 PUSH2 0x657 JUMP JUMPDEST SWAP1 POP SWAP2 SWAP1 POP JUMP JUMPDEST PUSH1 0x0 PUSH2 0x662 DUP3 PUSH2 0x5F7 JUMP JUMPDEST SWAP1 POP SWAP2 SWAP1 POP JUMP JUMPDEST PUSH1 0x0 JUMPDEST DUP4 DUP2 LT ISZERO PUSH2 0x687 JUMPI DUP1 DUP3 ADD MLOAD DUP2 DUP5 ADD MSTORE PUSH1 0x20 DUP2 ADD SWAP1 POP PUSH2 0x66C JUMP JUMPDEST DUP4 DUP2 GT ISZERO PUSH2 0x696 JUMPI PUSH1 0x0 DUP5 DUP5 ADD MSTORE JUMPDEST POP POP POP POP JUMP JUMPDEST PUSH1 0x0 PUSH1 0x2 DUP3 DIV SWAP1 POP PUSH1 0x1 DUP3 AND DUP1 PUSH2 0x6B4 JUMPI PUSH1 0x7F DUP3 AND SWAP2 POP JUMPDEST PUSH1 0x20 DUP3 LT DUP2 EQ ISZERO PUSH2 0x6C8 JUMPI PUSH2 0x6C7 PUSH2 0x6CE JUMP JUMPDEST JUMPDEST POP SWAP2 SWAP1 POP JUMP JUMPDEST PUSH32 0x4E487B7100000000000000000000000000000000000000000000000000000000 PUSH1 0x0 MSTORE PUSH1 0x22 PUSH1 0x4 MSTORE PUSH1 0x24 PUSH1 0x0 REVERT JUMPDEST PUSH1 0x0 DUP1 REVERT JUMPDEST PUSH1 0x0 PUSH1 0x1F NOT PUSH1 0x1F DUP4 ADD AND SWAP1 POP SWAP2 SWAP1 POP JUMP JUMPDEST PUSH32 0x4C612063616E7469646164206E6F20707565646520736572206D656E6F722061 PUSH1 0x0 DUP3 ADD MSTORE PUSH32 0x2030000000000000000000000000000000000000000000000000000000000000 PUSH1 0x20 DUP3 ADD MSTORE POP JUMP JUMPDEST PUSH2 0x76B DUP2 PUSH2 0x5D9 JUMP JUMPDEST DUP2 EQ PUSH2 0x776 JUMPI PUSH1 0x0 DUP1 REVERT JUMPDEST POP JUMP JUMPDEST PUSH2 0x782 DUP2 PUSH2 0x617 JUMP JUMPDEST DUP2 EQ PUSH2 0x78D JUMPI PUSH1 0x0 DUP1 REVERT JUMPDEST POP JUMP INVALID LOG2 PUSH5 0x6970667358 0x22 SLT KECCAK256 PUSH20 0xEC1856DE90FA01B76C1DDA820ED2174A03BE8B3F 0xEC GASPRICE 0xAF EXP DIV DUP5 SWAP16 PUSH21 0xEB218164736F6C6343000807003300000000000000 "
				},
				"gasEstimates": {
					"creation": {
						"codeDepositCost": "398000",
						"executionCost": "infinite",
						"totalCost": "infinite"
					},
					"external": {
						"Owner()": "2536",
						"hasStaked(address)": "2889",
						"isStaking(address)": "2845",
						"jamToken()": "2666",
						"name()": "infinite",
						"stakenTokens(uint256)": "801",
						"stakers(uint256)": "5044",
						"stakingBalance(address)": "2859",
						"stellarToken()": "2623"
					}
				},
				"methodIdentifiers": {
					"Owner()": "b4a99a4e",
					"hasStaked(address)": "c93c8f34",
					"isStaking(address)": "6f49712b",
					"jamToken()": "f416d760",
					"name()": "06fdde03",
					"stakenTokens(uint256)": "6e9e2822",
					"stakers(uint256)": "fd5e6dd1",
					"stakingBalance(address)": "45bc78ab",
					"stellarToken()": "0f141533"
				}
			},
			"storageLayout": {
				"storage": [
					{
						"astId": 368,
						"contract": "Staking/TokenFarm.sol:TokenFram",
						"label": "name",
						"offset": 0,
						"slot": "0",
						"type": "t_string_storage"
					},
					{
						"astId": 370,
						"contract": "Staking/TokenFarm.sol:TokenFram",
						"label": "Owner",
						"offset": 0,
						"slot": "1",
						"type": "t_address"
					},
					{
						"astId": 373,
						"contract": "Staking/TokenFarm.sol:TokenFram",
						"label": "jamToken",
						"offset": 0,
						"slot": "2",
						"type": "t_contract(JamToken)180"
					},
					{
						"astId": 376,
						"contract": "Staking/TokenFarm.sol:TokenFram",
						"label": "stellarToken",
						"offset": 0,
						"slot": "3",
						"type": "t_contract(StellarToken)361"
					},
					{
						"astId": 379,
						"contract": "Staking/TokenFarm.sol:TokenFram",
						"label": "stakers",
						"offset": 0,
						"slot": "4",
						"type": "t_array(t_address)dyn_storage"
					},
					{
						"astId": 383,
						"contract": "Staking/TokenFarm.sol:TokenFram",
						"label": "stakingBalance",
						"offset": 0,
						"slot": "5",
						"type": "t_mapping(t_address,t_uint256)"
					},
					{
						"astId": 387,
						"contract": "Staking/TokenFarm.sol:TokenFram",
						"label": "hasStaked",
						"offset": 0,
						"slot": "6",
						"type": "t_mapping(t_address,t_bool)"
					},
					{
						"astId": 391,
						"contract": "Staking/TokenFarm.sol:TokenFram",
						"label": "isStaking",
						"offset": 0,
						"slot": "7",
						"type": "t_mapping(t_address,t_bool)"
					}
				],
				"types": {
					"t_address": {
						"encoding": "inplace",
						"label": "address",
						"numberOfBytes": "20"
					},
					"t_array(t_address)dyn_storage": {
						"base": "t_address",
						"encoding": "dynamic_array",
						"label": "address[]",
						"numberOfBytes": "32"
					},
					"t_bool": {
						"encoding": "inplace",
						"label": "bool",
						"numberOfBytes": "1"
					},
					"t_contract(JamToken)180": {
						"encoding": "inplace",
						"label": "contract JamToken",
						"numberOfBytes": "20"
					},
					"t_contract(StellarToken)361": {
						"encoding": "inplace",
						"label": "contract StellarToken",
						"numberOfBytes": "20"
					},
					"t_mapping(t_address,t_bool)": {
						"encoding": "mapping",
						"key": "t_address",
						"label": "mapping(address => bool)",
						"numberOfBytes": "32",
						"value": "t_bool"
					},
					"t_mapping(t_address,t_uint256)": {
						"encoding": "mapping",
						"key": "t_address",
						"label": "mapping(address => uint256)",
						"numberOfBytes": "32",
						"value": "t_uint256"
					},
					"t_string_storage": {
						"encoding": "bytes",
						"label": "string",
						"numberOfBytes": "32"
					},
					"t_uint256": {
						"encoding": "inplace",
						"label": "uint256",
						"numberOfBytes": "32"
					}
				}
			},
			"userdoc": {
				"kind": "user",
				"methods": {},
				"version": 1
			}
		}
	}
}