{
	"Staking/TokenFarm.sol": {
		"TokenFram": {
			"abi": [
				{
					"inputs": [],
					"name": "Owner",
					"outputs": [
						{
							"internalType": "address",
							"name": "",
							"type": "address"
						}
					],
					"stateMutability": "view",
					"type": "function"
				},
				{
					"inputs": [],
					"name": "jamToken",
					"outputs": [
						{
							"internalType": "contract JamToken",
							"name": "",
							"type": "address"
						}
					],
					"stateMutability": "view",
					"type": "function"
				},
				{
					"inputs": [],
					"name": "name",
					"outputs": [
						{
							"internalType": "string",
							"name": "",
							"type": "string"
						}
					],
					"stateMutability": "view",
					"type": "function"
				},
				{
					"inputs": [
						{
							"internalType": "uint256",
							"name": "",
							"type": "uint256"
						}
					],
					"name": "stakers",
					"outputs": [
						{
							"internalType": "address",
							"name": "",
							"type": "address"
						}
					],
					"stateMutability": "view",
					"type": "function"
				},
				{
					"inputs": [
						{
							"internalType": "address",
							"name": "",
							"type": "address"
						}
					],
					"name": "stakingBalance",
					"outputs": [
						{
							"internalType": "uint256",
							"name": "",
							"type": "uint256"
						}
					],
					"stateMutability": "view",
					"type": "function"
				},
				{
					"inputs": [],
					"name": "stellarToken",
					"outputs": [
						{
							"internalType": "contract StellarToken",
							"name": "",
							"type": "address"
						}
					],
					"stateMutability": "view",
					"type": "function"
				}
			],
			"devdoc": {
				"kind": "dev",
				"methods": {},
				"version": 1
			},
			"evm": {
				"assembly": "    /* \"Staking/TokenFarm.sol\":141:451  contract TokenFram {\r... */\n  mstore(0x40, 0x80)\n    /* \"Staking/TokenFarm.sol\":191:232  string public name = \"Stellar Token Fram\" */\n  mload(0x40)\n  dup1\n  0x40\n  add\n  0x40\n  mstore\n  dup1\n  0x12\n  dup2\n  mstore\n  0x20\n  add\n  0x5374656c6c617220546f6b656e204672616d0000000000000000000000000000\n  dup2\n  mstore\n  pop\n  0x00\n  swap1\n  dup1\n  mload\n  swap1\n  0x20\n  add\n  swap1\n  tag_1\n  swap3\n  swap2\n  swap1\n  tag_2\n  jump\t// in\ntag_1:\n  pop\n    /* \"Staking/TokenFarm.sol\":141:451  contract TokenFram {\r... */\n  callvalue\n  dup1\n  iszero\n  tag_3\n  jumpi\n  0x00\n  dup1\n  revert\ntag_3:\n  pop\n  jump(tag_4)\ntag_2:\n  dup3\n  dup1\n  sload\n  tag_5\n  swap1\n  tag_6\n  jump\t// in\ntag_5:\n  swap1\n  0x00\n  mstore\n  keccak256(0x00, 0x20)\n  swap1\n  0x1f\n  add\n  0x20\n  swap1\n  div\n  dup2\n  add\n  swap3\n  dup3\n  tag_8\n  jumpi\n  0x00\n  dup6\n  sstore\n  jump(tag_7)\ntag_8:\n  dup3\n  0x1f\n  lt\n  tag_9\n  jumpi\n  dup1\n  mload\n  not(0xff)\n  and\n  dup4\n  dup1\n  add\n  or\n  dup6\n  sstore\n  jump(tag_7)\ntag_9:\n  dup3\n  dup1\n  add\n  0x01\n  add\n  dup6\n  sstore\n  dup3\n  iszero\n  tag_7\n  jumpi\n  swap2\n  dup3\n  add\ntag_10:\n  dup3\n  dup2\n  gt\n  iszero\n  tag_11\n  jumpi\n  dup3\n  mload\n  dup3\n  sstore\n  swap2\n  0x20\n  add\n  swap2\n  swap1\n  0x01\n  add\n  swap1\n  jump(tag_10)\ntag_11:\ntag_7:\n  pop\n  swap1\n  pop\n  tag_12\n  swap2\n  swap1\n  tag_13\n  jump\t// in\ntag_12:\n  pop\n  swap1\n  jump\t// out\ntag_13:\ntag_14:\n  dup1\n  dup3\n  gt\n  iszero\n  tag_15\n  jumpi\n  0x00\n  dup2\n  0x00\n  swap1\n  sstore\n  pop\n  0x01\n  add\n  jump(tag_14)\ntag_15:\n  pop\n  swap1\n  jump\t// out\n    /* \"#utility.yul\":7:327   */\ntag_6:\n    /* \"#utility.yul\":51:57   */\n  0x00\n    /* \"#utility.yul\":88:89   */\n  0x02\n    /* \"#utility.yul\":82:86   */\n  dup3\n    /* \"#utility.yul\":78:90   */\n  div\n    /* \"#utility.yul\":68:90   */\n  swap1\n  pop\n    /* \"#utility.yul\":135:136   */\n  0x01\n    /* \"#utility.yul\":129:133   */\n  dup3\n    /* \"#utility.yul\":125:137   */\n  and\n    /* \"#utility.yul\":156:174   */\n  dup1\n    /* \"#utility.yul\":146:227   */\n  tag_18\n  jumpi\n    /* \"#utility.yul\":212:216   */\n  0x7f\n    /* \"#utility.yul\":204:210   */\n  dup3\n    /* \"#utility.yul\":200:217   */\n  and\n    /* \"#utility.yul\":190:217   */\n  swap2\n  pop\n    /* \"#utility.yul\":146:227   */\ntag_18:\n    /* \"#utility.yul\":274:276   */\n  0x20\n    /* \"#utility.yul\":266:272   */\n  dup3\n    /* \"#utility.yul\":263:277   */\n  lt\n    /* \"#utility.yul\":243:261   */\n  dup2\n    /* \"#utility.yul\":240:278   */\n  eq\n    /* \"#utility.yul\":237:321   */\n  iszero\n  tag_19\n  jumpi\n    /* \"#utility.yul\":293:311   */\n  tag_20\n  tag_21\n  jump\t// in\ntag_20:\n    /* \"#utility.yul\":237:321   */\ntag_19:\n    /* \"#utility.yul\":58:327   */\n  pop\n    /* \"#utility.yul\":7:327   */\n  swap2\n  swap1\n  pop\n  jump\t// out\n    /* \"#utility.yul\":333:513   */\ntag_21:\n    /* \"#utility.yul\":381:458   */\n  0x4e487b7100000000000000000000000000000000000000000000000000000000\n    /* \"#utility.yul\":378:379   */\n  0x00\n    /* \"#utility.yul\":371:459   */\n  mstore\n    /* \"#utility.yul\":478:482   */\n  0x22\n    /* \"#utility.yul\":475:476   */\n  0x04\n    /* \"#utility.yul\":468:483   */\n  mstore\n    /* \"#utility.yul\":502:506   */\n  0x24\n    /* \"#utility.yul\":499:500   */\n  0x00\n    /* \"#utility.yul\":492:507   */\n  revert\n    /* \"Staking/TokenFarm.sol\":141:451  contract TokenFram {\r... */\ntag_4:\n  dataSize(sub_0)\n  dup1\n  dataOffset(sub_0)\n  0x00\n  codecopy\n  0x00\n  return\nstop\n\nsub_0: assembly {\n        /* \"Staking/TokenFarm.sol\":141:451  contract TokenFram {\r... */\n      mstore(0x40, 0x80)\n      callvalue\n      dup1\n      iszero\n      tag_1\n      jumpi\n      0x00\n      dup1\n      revert\n    tag_1:\n      pop\n      jumpi(tag_2, lt(calldatasize, 0x04))\n      shr(0xe0, calldataload(0x00))\n      dup1\n      0x06fdde03\n      eq\n      tag_3\n      jumpi\n      dup1\n      0x0f141533\n      eq\n      tag_4\n      jumpi\n      dup1\n      0x45bc78ab\n      eq\n      tag_5\n      jumpi\n      dup1\n      0xb4a99a4e\n      eq\n      tag_6\n      jumpi\n      dup1\n      0xf416d760\n      eq\n      tag_7\n      jumpi\n      dup1\n      0xfd5e6dd1\n      eq\n      tag_8\n      jumpi\n    tag_2:\n      0x00\n      dup1\n      revert\n        /* \"Staking/TokenFarm.sol\":191:232  string public name = \"Stellar Token Fram\" */\n    tag_3:\n      tag_9\n      tag_10\n      jump\t// in\n    tag_9:\n      mload(0x40)\n      tag_11\n      swap2\n      swap1\n      tag_12\n      jump\t// in\n    tag_11:\n      mload(0x40)\n      dup1\n      swap2\n      sub\n      swap1\n      return\n        /* \"Staking/TokenFarm.sol\":297:329  StellarToken public stellarToken */\n    tag_4:\n      tag_13\n      tag_14\n      jump\t// in\n    tag_13:\n      mload(0x40)\n      tag_15\n      swap2\n      swap1\n      tag_16\n      jump\t// in\n    tag_15:\n      mload(0x40)\n      dup1\n      swap2\n      sub\n      swap1\n      return\n        /* \"Staking/TokenFarm.sol\":399:445  mapping(address => uint) public stakingBalance */\n    tag_5:\n      tag_17\n      0x04\n      dup1\n      calldatasize\n      sub\n      dup2\n      add\n      swap1\n      tag_18\n      swap2\n      swap1\n      tag_19\n      jump\t// in\n    tag_18:\n      tag_20\n      jump\t// in\n    tag_17:\n      mload(0x40)\n      tag_21\n      swap2\n      swap1\n      tag_22\n      jump\t// in\n    tag_21:\n      mload(0x40)\n      dup1\n      swap2\n      sub\n      swap1\n      return\n        /* \"Staking/TokenFarm.sol\":239:259  address public Owner */\n    tag_6:\n      tag_23\n      tag_24\n      jump\t// in\n    tag_23:\n      mload(0x40)\n      tag_25\n      swap2\n      swap1\n      tag_26\n      jump\t// in\n    tag_25:\n      mload(0x40)\n      dup1\n      swap2\n      sub\n      swap1\n      return\n        /* \"Staking/TokenFarm.sol\":266:290  JamToken public jamToken */\n    tag_7:\n      tag_27\n      tag_28\n      jump\t// in\n    tag_27:\n      mload(0x40)\n      tag_29\n      swap2\n      swap1\n      tag_30\n      jump\t// in\n    tag_29:\n      mload(0x40)\n      dup1\n      swap2\n      sub\n      swap1\n      return\n        /* \"Staking/TokenFarm.sol\":367:392  address [] public stakers */\n    tag_8:\n      tag_31\n      0x04\n      dup1\n      calldatasize\n      sub\n      dup2\n      add\n      swap1\n      tag_32\n      swap2\n      swap1\n      tag_33\n      jump\t// in\n    tag_32:\n      tag_34\n      jump\t// in\n    tag_31:\n      mload(0x40)\n      tag_35\n      swap2\n      swap1\n      tag_26\n      jump\t// in\n    tag_35:\n      mload(0x40)\n      dup1\n      swap2\n      sub\n      swap1\n      return\n        /* \"Staking/TokenFarm.sol\":191:232  string public name = \"Stellar Token Fram\" */\n    tag_10:\n      0x00\n      dup1\n      sload\n      tag_36\n      swap1\n      tag_37\n      jump\t// in\n    tag_36:\n      dup1\n      0x1f\n      add\n      0x20\n      dup1\n      swap2\n      div\n      mul\n      0x20\n      add\n      mload(0x40)\n      swap1\n      dup2\n      add\n      0x40\n      mstore\n      dup1\n      swap3\n      swap2\n      swap1\n      dup2\n      dup2\n      mstore\n      0x20\n      add\n      dup3\n      dup1\n      sload\n      tag_38\n      swap1\n      tag_37\n      jump\t// in\n    tag_38:\n      dup1\n      iszero\n      tag_39\n      jumpi\n      dup1\n      0x1f\n      lt\n      tag_40\n      jumpi\n      0x0100\n      dup1\n      dup4\n      sload\n      div\n      mul\n      dup4\n      mstore\n      swap2\n      0x20\n      add\n      swap2\n      jump(tag_39)\n    tag_40:\n      dup3\n      add\n      swap2\n      swap1\n      0x00\n      mstore\n      keccak256(0x00, 0x20)\n      swap1\n    tag_41:\n      dup2\n      sload\n      dup2\n      mstore\n      swap1\n      0x01\n      add\n      swap1\n      0x20\n      add\n      dup1\n      dup4\n      gt\n      tag_41\n      jumpi\n      dup3\n      swap1\n      sub\n      0x1f\n      and\n      dup3\n      add\n      swap2\n    tag_39:\n      pop\n      pop\n      pop\n      pop\n      pop\n      dup2\n      jump\t// out\n        /* \"Staking/TokenFarm.sol\":297:329  StellarToken public stellarToken */\n    tag_14:\n      0x03\n      0x00\n      swap1\n      sload\n      swap1\n      0x0100\n      exp\n      swap1\n      div\n      0xffffffffffffffffffffffffffffffffffffffff\n      and\n      dup2\n      jump\t// out\n        /* \"Staking/TokenFarm.sol\":399:445  mapping(address => uint) public stakingBalance */\n    tag_20:\n      mstore(0x20, 0x05)\n      dup1\n      0x00\n      mstore\n      keccak256(0x00, 0x40)\n      0x00\n      swap2\n      pop\n      swap1\n      pop\n      sload\n      dup2\n      jump\t// out\n        /* \"Staking/TokenFarm.sol\":239:259  address public Owner */\n    tag_24:\n      0x01\n      0x00\n      swap1\n      sload\n      swap1\n      0x0100\n      exp\n      swap1\n      div\n      0xffffffffffffffffffffffffffffffffffffffff\n      and\n      dup2\n      jump\t// out\n        /* \"Staking/TokenFarm.sol\":266:290  JamToken public jamToken */\n    tag_28:\n      0x02\n      0x00\n      swap1\n      sload\n      swap1\n      0x0100\n      exp\n      swap1\n      div\n      0xffffffffffffffffffffffffffffffffffffffff\n      and\n      dup2\n      jump\t// out\n        /* \"Staking/TokenFarm.sol\":367:392  address [] public stakers */\n    tag_34:\n      0x04\n      dup2\n      dup2\n      sload\n      dup2\n      lt\n      tag_42\n      jumpi\n      0x00\n      dup1\n      revert\n    tag_42:\n      swap1\n      0x00\n      mstore\n      keccak256(0x00, 0x20)\n      add\n      0x00\n      swap2\n      pop\n      sload\n      swap1\n      0x0100\n      exp\n      swap1\n      div\n      0xffffffffffffffffffffffffffffffffffffffff\n      and\n      dup2\n      jump\t// out\n        /* \"#utility.yul\":7:146   */\n    tag_45:\n        /* \"#utility.yul\":53:58   */\n      0x00\n        /* \"#utility.yul\":91:97   */\n      dup2\n        /* \"#utility.yul\":78:98   */\n      calldataload\n        /* \"#utility.yul\":69:98   */\n      swap1\n      pop\n        /* \"#utility.yul\":107:140   */\n      tag_47\n        /* \"#utility.yul\":134:139   */\n      dup2\n        /* \"#utility.yul\":107:140   */\n      tag_48\n      jump\t// in\n    tag_47:\n        /* \"#utility.yul\":7:146   */\n      swap3\n      swap2\n      pop\n      pop\n      jump\t// out\n        /* \"#utility.yul\":152:291   */\n    tag_49:\n        /* \"#utility.yul\":198:203   */\n      0x00\n        /* \"#utility.yul\":236:242   */\n      dup2\n        /* \"#utility.yul\":223:243   */\n      calldataload\n        /* \"#utility.yul\":214:243   */\n      swap1\n      pop\n        /* \"#utility.yul\":252:285   */\n      tag_51\n        /* \"#utility.yul\":279:284   */\n      dup2\n        /* \"#utility.yul\":252:285   */\n      tag_52\n      jump\t// in\n    tag_51:\n        /* \"#utility.yul\":152:291   */\n      swap3\n      swap2\n      pop\n      pop\n      jump\t// out\n        /* \"#utility.yul\":297:626   */\n    tag_19:\n        /* \"#utility.yul\":356:362   */\n      0x00\n        /* \"#utility.yul\":405:407   */\n      0x20\n        /* \"#utility.yul\":393:402   */\n      dup3\n        /* \"#utility.yul\":384:391   */\n      dup5\n        /* \"#utility.yul\":380:403   */\n      sub\n        /* \"#utility.yul\":376:408   */\n      slt\n        /* \"#utility.yul\":373:492   */\n      iszero\n      tag_54\n      jumpi\n        /* \"#utility.yul\":411:490   */\n      tag_55\n      tag_56\n      jump\t// in\n    tag_55:\n        /* \"#utility.yul\":373:492   */\n    tag_54:\n        /* \"#utility.yul\":531:532   */\n      0x00\n        /* \"#utility.yul\":556:609   */\n      tag_57\n        /* \"#utility.yul\":601:608   */\n      dup5\n        /* \"#utility.yul\":592:598   */\n      dup3\n        /* \"#utility.yul\":581:590   */\n      dup6\n        /* \"#utility.yul\":577:599   */\n      add\n        /* \"#utility.yul\":556:609   */\n      tag_45\n      jump\t// in\n    tag_57:\n        /* \"#utility.yul\":546:609   */\n      swap2\n      pop\n        /* \"#utility.yul\":502:619   */\n      pop\n        /* \"#utility.yul\":297:626   */\n      swap3\n      swap2\n      pop\n      pop\n      jump\t// out\n        /* \"#utility.yul\":632:961   */\n    tag_33:\n        /* \"#utility.yul\":691:697   */\n      0x00\n        /* \"#utility.yul\":740:742   */\n      0x20\n        /* \"#utility.yul\":728:737   */\n      dup3\n        /* \"#utility.yul\":719:726   */\n      dup5\n        /* \"#utility.yul\":715:738   */\n      sub\n        /* \"#utility.yul\":711:743   */\n      slt\n        /* \"#utility.yul\":708:827   */\n      iszero\n      tag_59\n      jumpi\n        /* \"#utility.yul\":746:825   */\n      tag_60\n      tag_56\n      jump\t// in\n    tag_60:\n        /* \"#utility.yul\":708:827   */\n    tag_59:\n        /* \"#utility.yul\":866:867   */\n      0x00\n        /* \"#utility.yul\":891:944   */\n      tag_61\n        /* \"#utility.yul\":936:943   */\n      dup5\n        /* \"#utility.yul\":927:933   */\n      dup3\n        /* \"#utility.yul\":916:925   */\n      dup6\n        /* \"#utility.yul\":912:934   */\n      add\n        /* \"#utility.yul\":891:944   */\n      tag_49\n      jump\t// in\n    tag_61:\n        /* \"#utility.yul\":881:944   */\n      swap2\n      pop\n        /* \"#utility.yul\":837:954   */\n      pop\n        /* \"#utility.yul\":632:961   */\n      swap3\n      swap2\n      pop\n      pop\n      jump\t// out\n        /* \"#utility.yul\":967:1085   */\n    tag_62:\n        /* \"#utility.yul\":1054:1078   */\n      tag_64\n        /* \"#utility.yul\":1072:1077   */\n      dup2\n        /* \"#utility.yul\":1054:1078   */\n      tag_65\n      jump\t// in\n    tag_64:\n        /* \"#utility.yul\":1049:1052   */\n      dup3\n        /* \"#utility.yul\":1042:1079   */\n      mstore\n        /* \"#utility.yul\":967:1085   */\n      pop\n      pop\n      jump\t// out\n        /* \"#utility.yul\":1091:1254   */\n    tag_66:\n        /* \"#utility.yul\":1194:1247   */\n      tag_68\n        /* \"#utility.yul\":1241:1246   */\n      dup2\n        /* \"#utility.yul\":1194:1247   */\n      tag_69\n      jump\t// in\n    tag_68:\n        /* \"#utility.yul\":1189:1192   */\n      dup3\n        /* \"#utility.yul\":1182:1248   */\n      mstore\n        /* \"#utility.yul\":1091:1254   */\n      pop\n      pop\n      jump\t// out\n        /* \"#utility.yul\":1260:1431   */\n    tag_70:\n        /* \"#utility.yul\":1367:1424   */\n      tag_72\n        /* \"#utility.yul\":1418:1423   */\n      dup2\n        /* \"#utility.yul\":1367:1424   */\n      tag_73\n      jump\t// in\n    tag_72:\n        /* \"#utility.yul\":1362:1365   */\n      dup3\n        /* \"#utility.yul\":1355:1425   */\n      mstore\n        /* \"#utility.yul\":1260:1431   */\n      pop\n      pop\n      jump\t// out\n        /* \"#utility.yul\":1437:1801   */\n    tag_74:\n        /* \"#utility.yul\":1525:1528   */\n      0x00\n        /* \"#utility.yul\":1553:1592   */\n      tag_76\n        /* \"#utility.yul\":1586:1591   */\n      dup3\n        /* \"#utility.yul\":1553:1592   */\n      tag_77\n      jump\t// in\n    tag_76:\n        /* \"#utility.yul\":1608:1679   */\n      tag_78\n        /* \"#utility.yul\":1672:1678   */\n      dup2\n        /* \"#utility.yul\":1667:1670   */\n      dup6\n        /* \"#utility.yul\":1608:1679   */\n      tag_79\n      jump\t// in\n    tag_78:\n        /* \"#utility.yul\":1601:1679   */\n      swap4\n      pop\n        /* \"#utility.yul\":1688:1740   */\n      tag_80\n        /* \"#utility.yul\":1733:1739   */\n      dup2\n        /* \"#utility.yul\":1728:1731   */\n      dup6\n        /* \"#utility.yul\":1721:1725   */\n      0x20\n        /* \"#utility.yul\":1714:1719   */\n      dup7\n        /* \"#utility.yul\":1710:1726   */\n      add\n        /* \"#utility.yul\":1688:1740   */\n      tag_81\n      jump\t// in\n    tag_80:\n        /* \"#utility.yul\":1765:1794   */\n      tag_82\n        /* \"#utility.yul\":1787:1793   */\n      dup2\n        /* \"#utility.yul\":1765:1794   */\n      tag_83\n      jump\t// in\n    tag_82:\n        /* \"#utility.yul\":1760:1763   */\n      dup5\n        /* \"#utility.yul\":1756:1795   */\n      add\n        /* \"#utility.yul\":1749:1795   */\n      swap2\n      pop\n        /* \"#utility.yul\":1529:1801   */\n      pop\n        /* \"#utility.yul\":1437:1801   */\n      swap3\n      swap2\n      pop\n      pop\n      jump\t// out\n        /* \"#utility.yul\":1807:1925   */\n    tag_84:\n        /* \"#utility.yul\":1894:1918   */\n      tag_86\n        /* \"#utility.yul\":1912:1917   */\n      dup2\n        /* \"#utility.yul\":1894:1918   */\n      tag_87\n      jump\t// in\n    tag_86:\n        /* \"#utility.yul\":1889:1892   */\n      dup3\n        /* \"#utility.yul\":1882:1919   */\n      mstore\n        /* \"#utility.yul\":1807:1925   */\n      pop\n      pop\n      jump\t// out\n        /* \"#utility.yul\":1931:2153   */\n    tag_26:\n        /* \"#utility.yul\":2024:2028   */\n      0x00\n        /* \"#utility.yul\":2062:2064   */\n      0x20\n        /* \"#utility.yul\":2051:2060   */\n      dup3\n        /* \"#utility.yul\":2047:2065   */\n      add\n        /* \"#utility.yul\":2039:2065   */\n      swap1\n      pop\n        /* \"#utility.yul\":2075:2146   */\n      tag_89\n        /* \"#utility.yul\":2143:2144   */\n      0x00\n        /* \"#utility.yul\":2132:2141   */\n      dup4\n        /* \"#utility.yul\":2128:2145   */\n      add\n        /* \"#utility.yul\":2119:2125   */\n      dup5\n        /* \"#utility.yul\":2075:2146   */\n      tag_62\n      jump\t// in\n    tag_89:\n        /* \"#utility.yul\":1931:2153   */\n      swap3\n      swap2\n      pop\n      pop\n      jump\t// out\n        /* \"#utility.yul\":2159:2413   */\n    tag_30:\n        /* \"#utility.yul\":2268:2272   */\n      0x00\n        /* \"#utility.yul\":2306:2308   */\n      0x20\n        /* \"#utility.yul\":2295:2304   */\n      dup3\n        /* \"#utility.yul\":2291:2309   */\n      add\n        /* \"#utility.yul\":2283:2309   */\n      swap1\n      pop\n        /* \"#utility.yul\":2319:2406   */\n      tag_91\n        /* \"#utility.yul\":2403:2404   */\n      0x00\n        /* \"#utility.yul\":2392:2401   */\n      dup4\n        /* \"#utility.yul\":2388:2405   */\n      add\n        /* \"#utility.yul\":2379:2385   */\n      dup5\n        /* \"#utility.yul\":2319:2406   */\n      tag_66\n      jump\t// in\n    tag_91:\n        /* \"#utility.yul\":2159:2413   */\n      swap3\n      swap2\n      pop\n      pop\n      jump\t// out\n        /* \"#utility.yul\":2419:2681   */\n    tag_16:\n        /* \"#utility.yul\":2532:2536   */\n      0x00\n        /* \"#utility.yul\":2570:2572   */\n      0x20\n        /* \"#utility.yul\":2559:2568   */\n      dup3\n        /* \"#utility.yul\":2555:2573   */\n      add\n        /* \"#utility.yul\":2547:2573   */\n      swap1\n      pop\n        /* \"#utility.yul\":2583:2674   */\n      tag_93\n        /* \"#utility.yul\":2671:2672   */\n      0x00\n        /* \"#utility.yul\":2660:2669   */\n      dup4\n        /* \"#utility.yul\":2656:2673   */\n      add\n        /* \"#utility.yul\":2647:2653   */\n      dup5\n        /* \"#utility.yul\":2583:2674   */\n      tag_70\n      jump\t// in\n    tag_93:\n        /* \"#utility.yul\":2419:2681   */\n      swap3\n      swap2\n      pop\n      pop\n      jump\t// out\n        /* \"#utility.yul\":2687:3000   */\n    tag_12:\n        /* \"#utility.yul\":2800:2804   */\n      0x00\n        /* \"#utility.yul\":2838:2840   */\n      0x20\n        /* \"#utility.yul\":2827:2836   */\n      dup3\n        /* \"#utility.yul\":2823:2841   */\n      add\n        /* \"#utility.yul\":2815:2841   */\n      swap1\n      pop\n        /* \"#utility.yul\":2887:2896   */\n      dup2\n        /* \"#utility.yul\":2881:2885   */\n      dup2\n        /* \"#utility.yul\":2877:2897   */\n      sub\n        /* \"#utility.yul\":2873:2874   */\n      0x00\n        /* \"#utility.yul\":2862:2871   */\n      dup4\n        /* \"#utility.yul\":2858:2875   */\n      add\n        /* \"#utility.yul\":2851:2898   */\n      mstore\n        /* \"#utility.yul\":2915:2993   */\n      tag_95\n        /* \"#utility.yul\":2988:2992   */\n      dup2\n        /* \"#utility.yul\":2979:2985   */\n      dup5\n        /* \"#utility.yul\":2915:2993   */\n      tag_74\n      jump\t// in\n    tag_95:\n        /* \"#utility.yul\":2907:2993   */\n      swap1\n      pop\n        /* \"#utility.yul\":2687:3000   */\n      swap3\n      swap2\n      pop\n      pop\n      jump\t// out\n        /* \"#utility.yul\":3006:3228   */\n    tag_22:\n        /* \"#utility.yul\":3099:3103   */\n      0x00\n        /* \"#utility.yul\":3137:3139   */\n      0x20\n        /* \"#utility.yul\":3126:3135   */\n      dup3\n        /* \"#utility.yul\":3122:3140   */\n      add\n        /* \"#utility.yul\":3114:3140   */\n      swap1\n      pop\n        /* \"#utility.yul\":3150:3221   */\n      tag_97\n        /* \"#utility.yul\":3218:3219   */\n      0x00\n        /* \"#utility.yul\":3207:3216   */\n      dup4\n        /* \"#utility.yul\":3203:3220   */\n      add\n        /* \"#utility.yul\":3194:3200   */\n      dup5\n        /* \"#utility.yul\":3150:3221   */\n      tag_84\n      jump\t// in\n    tag_97:\n        /* \"#utility.yul\":3006:3228   */\n      swap3\n      swap2\n      pop\n      pop\n      jump\t// out\n        /* \"#utility.yul\":3315:3414   */\n    tag_77:\n        /* \"#utility.yul\":3367:3373   */\n      0x00\n        /* \"#utility.yul\":3401:3406   */\n      dup2\n        /* \"#utility.yul\":3395:3407   */\n      mload\n        /* \"#utility.yul\":3385:3407   */\n      swap1\n      pop\n        /* \"#utility.yul\":3315:3414   */\n      swap2\n      swap1\n      pop\n      jump\t// out\n        /* \"#utility.yul\":3420:3589   */\n    tag_79:\n        /* \"#utility.yul\":3504:3515   */\n      0x00\n        /* \"#utility.yul\":3538:3544   */\n      dup3\n        /* \"#utility.yul\":3533:3536   */\n      dup3\n        /* \"#utility.yul\":3526:3545   */\n      mstore\n        /* \"#utility.yul\":3578:3582   */\n      0x20\n        /* \"#utility.yul\":3573:3576   */\n      dup3\n        /* \"#utility.yul\":3569:3583   */\n      add\n        /* \"#utility.yul\":3554:3583   */\n      swap1\n      pop\n        /* \"#utility.yul\":3420:3589   */\n      swap3\n      swap2\n      pop\n      pop\n      jump\t// out\n        /* \"#utility.yul\":3595:3691   */\n    tag_65:\n        /* \"#utility.yul\":3632:3639   */\n      0x00\n        /* \"#utility.yul\":3661:3685   */\n      tag_103\n        /* \"#utility.yul\":3679:3684   */\n      dup3\n        /* \"#utility.yul\":3661:3685   */\n      tag_104\n      jump\t// in\n    tag_103:\n        /* \"#utility.yul\":3650:3685   */\n      swap1\n      pop\n        /* \"#utility.yul\":3595:3691   */\n      swap2\n      swap1\n      pop\n      jump\t// out\n        /* \"#utility.yul\":3697:3823   */\n    tag_104:\n        /* \"#utility.yul\":3734:3741   */\n      0x00\n        /* \"#utility.yul\":3774:3816   */\n      0xffffffffffffffffffffffffffffffffffffffff\n        /* \"#utility.yul\":3767:3772   */\n      dup3\n        /* \"#utility.yul\":3763:3817   */\n      and\n        /* \"#utility.yul\":3752:3817   */\n      swap1\n      pop\n        /* \"#utility.yul\":3697:3823   */\n      swap2\n      swap1\n      pop\n      jump\t// out\n        /* \"#utility.yul\":3829:3906   */\n    tag_87:\n        /* \"#utility.yul\":3866:3873   */\n      0x00\n        /* \"#utility.yul\":3895:3900   */\n      dup2\n        /* \"#utility.yul\":3884:3900   */\n      swap1\n      pop\n        /* \"#utility.yul\":3829:3906   */\n      swap2\n      swap1\n      pop\n      jump\t// out\n        /* \"#utility.yul\":3912:4054   */\n    tag_69:\n        /* \"#utility.yul\":3978:3987   */\n      0x00\n        /* \"#utility.yul\":4011:4048   */\n      tag_108\n        /* \"#utility.yul\":4042:4047   */\n      dup3\n        /* \"#utility.yul\":4011:4048   */\n      tag_109\n      jump\t// in\n    tag_108:\n        /* \"#utility.yul\":3998:4048   */\n      swap1\n      pop\n        /* \"#utility.yul\":3912:4054   */\n      swap2\n      swap1\n      pop\n      jump\t// out\n        /* \"#utility.yul\":4060:4206   */\n    tag_73:\n        /* \"#utility.yul\":4130:4139   */\n      0x00\n        /* \"#utility.yul\":4163:4200   */\n      tag_111\n        /* \"#utility.yul\":4194:4199   */\n      dup3\n        /* \"#utility.yul\":4163:4200   */\n      tag_109\n      jump\t// in\n    tag_111:\n        /* \"#utility.yul\":4150:4200   */\n      swap1\n      pop\n        /* \"#utility.yul\":4060:4206   */\n      swap2\n      swap1\n      pop\n      jump\t// out\n        /* \"#utility.yul\":4212:4338   */\n    tag_109:\n        /* \"#utility.yul\":4262:4271   */\n      0x00\n        /* \"#utility.yul\":4295:4332   */\n      tag_113\n        /* \"#utility.yul\":4326:4331   */\n      dup3\n        /* \"#utility.yul\":4295:4332   */\n      tag_114\n      jump\t// in\n    tag_113:\n        /* \"#utility.yul\":4282:4332   */\n      swap1\n      pop\n        /* \"#utility.yul\":4212:4338   */\n      swap2\n      swap1\n      pop\n      jump\t// out\n        /* \"#utility.yul\":4344:4457   */\n    tag_114:\n        /* \"#utility.yul\":4394:4403   */\n      0x00\n        /* \"#utility.yul\":4427:4451   */\n      tag_116\n        /* \"#utility.yul\":4445:4450   */\n      dup3\n        /* \"#utility.yul\":4427:4451   */\n      tag_104\n      jump\t// in\n    tag_116:\n        /* \"#utility.yul\":4414:4451   */\n      swap1\n      pop\n        /* \"#utility.yul\":4344:4457   */\n      swap2\n      swap1\n      pop\n      jump\t// out\n        /* \"#utility.yul\":4463:4770   */\n    tag_81:\n        /* \"#utility.yul\":4531:4532   */\n      0x00\n        /* \"#utility.yul\":4541:4654   */\n    tag_118:\n        /* \"#utility.yul\":4555:4561   */\n      dup4\n        /* \"#utility.yul\":4552:4553   */\n      dup2\n        /* \"#utility.yul\":4549:4562   */\n      lt\n        /* \"#utility.yul\":4541:4654   */\n      iszero\n      tag_120\n      jumpi\n        /* \"#utility.yul\":4640:4641   */\n      dup1\n        /* \"#utility.yul\":4635:4638   */\n      dup3\n        /* \"#utility.yul\":4631:4642   */\n      add\n        /* \"#utility.yul\":4625:4643   */\n      mload\n        /* \"#utility.yul\":4621:4622   */\n      dup2\n        /* \"#utility.yul\":4616:4619   */\n      dup5\n        /* \"#utility.yul\":4612:4623   */\n      add\n        /* \"#utility.yul\":4605:4644   */\n      mstore\n        /* \"#utility.yul\":4577:4579   */\n      0x20\n        /* \"#utility.yul\":4574:4575   */\n      dup2\n        /* \"#utility.yul\":4570:4580   */\n      add\n        /* \"#utility.yul\":4565:4580   */\n      swap1\n      pop\n        /* \"#utility.yul\":4541:4654   */\n      jump(tag_118)\n    tag_120:\n        /* \"#utility.yul\":4672:4678   */\n      dup4\n        /* \"#utility.yul\":4669:4670   */\n      dup2\n        /* \"#utility.yul\":4666:4679   */\n      gt\n        /* \"#utility.yul\":4663:4764   */\n      iszero\n      tag_121\n      jumpi\n        /* \"#utility.yul\":4752:4753   */\n      0x00\n        /* \"#utility.yul\":4743:4749   */\n      dup5\n        /* \"#utility.yul\":4738:4741   */\n      dup5\n        /* \"#utility.yul\":4734:4750   */\n      add\n        /* \"#utility.yul\":4727:4754   */\n      mstore\n        /* \"#utility.yul\":4663:4764   */\n    tag_121:\n        /* \"#utility.yul\":4512:4770   */\n      pop\n        /* \"#utility.yul\":4463:4770   */\n      pop\n      pop\n      pop\n      jump\t// out\n        /* \"#utility.yul\":4776:5096   */\n    tag_37:\n        /* \"#utility.yul\":4820:4826   */\n      0x00\n        /* \"#utility.yul\":4857:4858   */\n      0x02\n        /* \"#utility.yul\":4851:4855   */\n      dup3\n        /* \"#utility.yul\":4847:4859   */\n      div\n        /* \"#utility.yul\":4837:4859   */\n      swap1\n      pop\n        /* \"#utility.yul\":4904:4905   */\n      0x01\n        /* \"#utility.yul\":4898:4902   */\n      dup3\n        /* \"#utility.yul\":4894:4906   */\n      and\n        /* \"#utility.yul\":4925:4943   */\n      dup1\n        /* \"#utility.yul\":4915:4996   */\n      tag_123\n      jumpi\n        /* \"#utility.yul\":4981:4985   */\n      0x7f\n        /* \"#utility.yul\":4973:4979   */\n      dup3\n        /* \"#utility.yul\":4969:4986   */\n      and\n        /* \"#utility.yul\":4959:4986   */\n      swap2\n      pop\n        /* \"#utility.yul\":4915:4996   */\n    tag_123:\n        /* \"#utility.yul\":5043:5045   */\n      0x20\n        /* \"#utility.yul\":5035:5041   */\n      dup3\n        /* \"#utility.yul\":5032:5046   */\n      lt\n        /* \"#utility.yul\":5012:5030   */\n      dup2\n        /* \"#utility.yul\":5009:5047   */\n      eq\n        /* \"#utility.yul\":5006:5090   */\n      iszero\n      tag_124\n      jumpi\n        /* \"#utility.yul\":5062:5080   */\n      tag_125\n      tag_126\n      jump\t// in\n    tag_125:\n        /* \"#utility.yul\":5006:5090   */\n    tag_124:\n        /* \"#utility.yul\":4827:5096   */\n      pop\n        /* \"#utility.yul\":4776:5096   */\n      swap2\n      swap1\n      pop\n      jump\t// out\n        /* \"#utility.yul\":5102:5282   */\n    tag_126:\n        /* \"#utility.yul\":5150:5227   */\n      0x4e487b7100000000000000000000000000000000000000000000000000000000\n        /* \"#utility.yul\":5147:5148   */\n      0x00\n        /* \"#utility.yul\":5140:5228   */\n      mstore\n        /* \"#utility.yul\":5247:5251   */\n      0x22\n        /* \"#utility.yul\":5244:5245   */\n      0x04\n        /* \"#utility.yul\":5237:5252   */\n      mstore\n        /* \"#utility.yul\":5271:5275   */\n      0x24\n        /* \"#utility.yul\":5268:5269   */\n      0x00\n        /* \"#utility.yul\":5261:5276   */\n      revert\n        /* \"#utility.yul\":5411:5528   */\n    tag_56:\n        /* \"#utility.yul\":5520:5521   */\n      0x00\n        /* \"#utility.yul\":5517:5518   */\n      dup1\n        /* \"#utility.yul\":5510:5522   */\n      revert\n        /* \"#utility.yul\":5534:5636   */\n    tag_83:\n        /* \"#utility.yul\":5575:5581   */\n      0x00\n        /* \"#utility.yul\":5626:5628   */\n      0x1f\n        /* \"#utility.yul\":5622:5629   */\n      not\n        /* \"#utility.yul\":5617:5619   */\n      0x1f\n        /* \"#utility.yul\":5610:5615   */\n      dup4\n        /* \"#utility.yul\":5606:5620   */\n      add\n        /* \"#utility.yul\":5602:5630   */\n      and\n        /* \"#utility.yul\":5592:5630   */\n      swap1\n      pop\n        /* \"#utility.yul\":5534:5636   */\n      swap2\n      swap1\n      pop\n      jump\t// out\n        /* \"#utility.yul\":5642:5764   */\n    tag_48:\n        /* \"#utility.yul\":5715:5739   */\n      tag_133\n        /* \"#utility.yul\":5733:5738   */\n      dup2\n        /* \"#utility.yul\":5715:5739   */\n      tag_65\n      jump\t// in\n    tag_133:\n        /* \"#utility.yul\":5708:5713   */\n      dup2\n        /* \"#utility.yul\":5705:5740   */\n      eq\n        /* \"#utility.yul\":5695:5758   */\n      tag_134\n      jumpi\n        /* \"#utility.yul\":5754:5755   */\n      0x00\n        /* \"#utility.yul\":5751:5752   */\n      dup1\n        /* \"#utility.yul\":5744:5756   */\n      revert\n        /* \"#utility.yul\":5695:5758   */\n    tag_134:\n        /* \"#utility.yul\":5642:5764   */\n      pop\n      jump\t// out\n        /* \"#utility.yul\":5770:5892   */\n    tag_52:\n        /* \"#utility.yul\":5843:5867   */\n      tag_136\n        /* \"#utility.yul\":5861:5866   */\n      dup2\n        /* \"#utility.yul\":5843:5867   */\n      tag_87\n      jump\t// in\n    tag_136:\n        /* \"#utility.yul\":5836:5841   */\n      dup2\n        /* \"#utility.yul\":5833:5868   */\n      eq\n        /* \"#utility.yul\":5823:5886   */\n      tag_137\n      jumpi\n        /* \"#utility.yul\":5882:5883   */\n      0x00\n        /* \"#utility.yul\":5879:5880   */\n      dup1\n        /* \"#utility.yul\":5872:5884   */\n      revert\n        /* \"#utility.yul\":5823:5886   */\n    tag_137:\n        /* \"#utility.yul\":5770:5892   */\n      pop\n      jump\t// out\n\n    auxdata: 0xa2646970667358221220b902c9f70e0b81eab6aa7d1e9fc3c9776d2d941b21e56923bd0bbc527773cdb364736f6c63430008070033\n}\n",
				"bytecode": {
					"linkReferences": {},
					"object": "60806040526040518060400160405280601281526020017f5374656c6c617220546f6b656e204672616d00000000000000000000000000008152506000908051906020019061004f929190610062565b5034801561005c57600080fd5b50610166565b82805461006e90610105565b90600052602060002090601f01602090048101928261009057600085556100d7565b82601f106100a957805160ff19168380011785556100d7565b828001600101855582156100d7579182015b828111156100d65782518255916020019190600101906100bb565b5b5090506100e491906100e8565b5090565b5b808211156101015760008160009055506001016100e9565b5090565b6000600282049050600182168061011d57607f821691505b6020821081141561013157610130610137565b5b50919050565b7f4e487b7100000000000000000000000000000000000000000000000000000000600052602260045260246000fd5b6105cb806101756000396000f3fe608060405234801561001057600080fd5b50600436106100625760003560e01c806306fdde03146100675780630f1415331461008557806345bc78ab146100a3578063b4a99a4e146100d3578063f416d760146100f1578063fd5e6dd11461010f575b600080fd5b61006f61013f565b60405161007c91906103e0565b60405180910390f35b61008d6101cd565b60405161009a91906103c5565b60405180910390f35b6100bd60048036038101906100b891906102c0565b6101f3565b6040516100ca9190610402565b60405180910390f35b6100db61020b565b6040516100e8919061038f565b60405180910390f35b6100f9610231565b60405161010691906103aa565b60405180910390f35b610129600480360381019061012491906102ed565b610257565b604051610136919061038f565b60405180910390f35b6000805461014c906104f0565b80601f0160208091040260200160405190810160405280929190818152602001828054610178906104f0565b80156101c55780601f1061019a576101008083540402835291602001916101c5565b820191906000526020600020905b8154815290600101906020018083116101a857829003601f168201915b505050505081565b600360009054906101000a900473ffffffffffffffffffffffffffffffffffffffff1681565b60056020528060005260406000206000915090505481565b600160009054906101000a900473ffffffffffffffffffffffffffffffffffffffff1681565b600260009054906101000a900473ffffffffffffffffffffffffffffffffffffffff1681565b6004818154811061026757600080fd5b906000526020600020016000915054906101000a900473ffffffffffffffffffffffffffffffffffffffff1681565b6000813590506102a581610567565b92915050565b6000813590506102ba8161057e565b92915050565b6000602082840312156102d6576102d5610551565b5b60006102e484828501610296565b91505092915050565b60006020828403121561030357610302610551565b5b6000610311848285016102ab565b91505092915050565b61032381610439565b82525050565b61033281610475565b82525050565b61034181610487565b82525050565b60006103528261041d565b61035c8185610428565b935061036c8185602086016104bd565b61037581610556565b840191505092915050565b6103898161046b565b82525050565b60006020820190506103a4600083018461031a565b92915050565b60006020820190506103bf6000830184610329565b92915050565b60006020820190506103da6000830184610338565b92915050565b600060208201905081810360008301526103fa8184610347565b905092915050565b60006020820190506104176000830184610380565b92915050565b600081519050919050565b600082825260208201905092915050565b60006104448261044b565b9050919050565b600073ffffffffffffffffffffffffffffffffffffffff82169050919050565b6000819050919050565b600061048082610499565b9050919050565b600061049282610499565b9050919050565b60006104a4826104ab565b9050919050565b60006104b68261044b565b9050919050565b60005b838110156104db5780820151818401526020810190506104c0565b838111156104ea576000848401525b50505050565b6000600282049050600182168061050857607f821691505b6020821081141561051c5761051b610522565b5b50919050565b7f4e487b7100000000000000000000000000000000000000000000000000000000600052602260045260246000fd5b600080fd5b6000601f19601f8301169050919050565b61057081610439565b811461057b57600080fd5b50565b6105878161046b565b811461059257600080fd5b5056fea2646970667358221220b902c9f70e0b81eab6aa7d1e9fc3c9776d2d941b21e56923bd0bbc527773cdb364736f6c63430008070033",
					"opcodes": "PUSH1 0x80 PUSH1 0x40 MSTORE PUSH1 0x40 MLOAD DUP1 PUSH1 0x40 ADD PUSH1 0x40 MSTORE DUP1 PUSH1 0x12 DUP2 MSTORE PUSH1 0x20 ADD PUSH32 0x5374656C6C617220546F6B656E204672616D0000000000000000000000000000 DUP2 MSTORE POP PUSH1 0x0 SWAP1 DUP1 MLOAD SWAP1 PUSH1 0x20 ADD SWAP1 PUSH2 0x4F SWAP3 SWAP2 SWAP1 PUSH2 0x62 JUMP JUMPDEST POP CALLVALUE DUP1 ISZERO PUSH2 0x5C JUMPI PUSH1 0x0 DUP1 REVERT JUMPDEST POP PUSH2 0x166 JUMP JUMPDEST DUP3 DUP1 SLOAD PUSH2 0x6E SWAP1 PUSH2 0x105 JUMP JUMPDEST SWAP1 PUSH1 0x0 MSTORE PUSH1 0x20 PUSH1 0x0 KECCAK256 SWAP1 PUSH1 0x1F ADD PUSH1 0x20 SWAP1 DIV DUP2 ADD SWAP3 DUP3 PUSH2 0x90 JUMPI PUSH1 0x0 DUP6 SSTORE PUSH2 0xD7 JUMP JUMPDEST DUP3 PUSH1 0x1F LT PUSH2 0xA9 JUMPI DUP1 MLOAD PUSH1 0xFF NOT AND DUP4 DUP1 ADD OR DUP6 SSTORE PUSH2 0xD7 JUMP JUMPDEST DUP3 DUP1 ADD PUSH1 0x1 ADD DUP6 SSTORE DUP3 ISZERO PUSH2 0xD7 JUMPI SWAP2 DUP3 ADD JUMPDEST DUP3 DUP2 GT ISZERO PUSH2 0xD6 JUMPI DUP3 MLOAD DUP3 SSTORE SWAP2 PUSH1 0x20 ADD SWAP2 SWAP1 PUSH1 0x1 ADD SWAP1 PUSH2 0xBB JUMP JUMPDEST JUMPDEST POP SWAP1 POP PUSH2 0xE4 SWAP2 SWAP1 PUSH2 0xE8 JUMP JUMPDEST POP SWAP1 JUMP JUMPDEST JUMPDEST DUP1 DUP3 GT ISZERO PUSH2 0x101 JUMPI PUSH1 0x0 DUP2 PUSH1 0x0 SWAP1 SSTORE POP PUSH1 0x1 ADD PUSH2 0xE9 JUMP JUMPDEST POP SWAP1 JUMP JUMPDEST PUSH1 0x0 PUSH1 0x2 DUP3 DIV SWAP1 POP PUSH1 0x1 DUP3 AND DUP1 PUSH2 0x11D JUMPI PUSH1 0x7F DUP3 AND SWAP2 POP JUMPDEST PUSH1 0x20 DUP3 LT DUP2 EQ ISZERO PUSH2 0x131 JUMPI PUSH2 0x130 PUSH2 0x137 JUMP JUMPDEST JUMPDEST POP SWAP2 SWAP1 POP JUMP JUMPDEST PUSH32 0x4E487B7100000000000000000000000000000000000000000000000000000000 PUSH1 0x0 MSTORE PUSH1 0x22 PUSH1 0x4 MSTORE PUSH1 0x24 PUSH1 0x0 REVERT JUMPDEST PUSH2 0x5CB DUP1 PUSH2 0x175 PUSH1 0x0 CODECOPY PUSH1 0x0 RETURN INVALID PUSH1 0x80 PUSH1 0x40 MSTORE CALLVALUE DUP1 ISZERO PUSH2 0x10 JUMPI PUSH1 0x0 DUP1 REVERT JUMPDEST POP PUSH1 0x4 CALLDATASIZE LT PUSH2 0x62 JUMPI PUSH1 0x0 CALLDATALOAD PUSH1 0xE0 SHR DUP1 PUSH4 0x6FDDE03 EQ PUSH2 0x67 JUMPI DUP1 PUSH4 0xF141533 EQ PUSH2 0x85 JUMPI DUP1 PUSH4 0x45BC78AB EQ PUSH2 0xA3 JUMPI DUP1 PUSH4 0xB4A99A4E EQ PUSH2 0xD3 JUMPI DUP1 PUSH4 0xF416D760 EQ PUSH2 0xF1 JUMPI DUP1 PUSH4 0xFD5E6DD1 EQ PUSH2 0x10F JUMPI JUMPDEST PUSH1 0x0 DUP1 REVERT JUMPDEST PUSH2 0x6F PUSH2 0x13F JUMP JUMPDEST PUSH1 0x40 MLOAD PUSH2 0x7C SWAP2 SWAP1 PUSH2 0x3E0 JUMP JUMPDEST PUSH1 0x40 MLOAD DUP1 SWAP2 SUB SWAP1 RETURN JUMPDEST PUSH2 0x8D PUSH2 0x1CD JUMP JUMPDEST PUSH1 0x40 MLOAD PUSH2 0x9A SWAP2 SWAP1 PUSH2 0x3C5 JUMP JUMPDEST PUSH1 0x40 MLOAD DUP1 SWAP2 SUB SWAP1 RETURN JUMPDEST PUSH2 0xBD PUSH1 0x4 DUP1 CALLDATASIZE SUB DUP2 ADD SWAP1 PUSH2 0xB8 SWAP2 SWAP1 PUSH2 0x2C0 JUMP JUMPDEST PUSH2 0x1F3 JUMP JUMPDEST PUSH1 0x40 MLOAD PUSH2 0xCA SWAP2 SWAP1 PUSH2 0x402 JUMP JUMPDEST PUSH1 0x40 MLOAD DUP1 SWAP2 SUB SWAP1 RETURN JUMPDEST PUSH2 0xDB PUSH2 0x20B JUMP JUMPDEST PUSH1 0x40 MLOAD PUSH2 0xE8 SWAP2 SWAP1 PUSH2 0x38F JUMP JUMPDEST PUSH1 0x40 MLOAD DUP1 SWAP2 SUB SWAP1 RETURN JUMPDEST PUSH2 0xF9 PUSH2 0x231 JUMP JUMPDEST PUSH1 0x40 MLOAD PUSH2 0x106 SWAP2 SWAP1 PUSH2 0x3AA JUMP JUMPDEST PUSH1 0x40 MLOAD DUP1 SWAP2 SUB SWAP1 RETURN JUMPDEST PUSH2 0x129 PUSH1 0x4 DUP1 CALLDATASIZE SUB DUP2 ADD SWAP1 PUSH2 0x124 SWAP2 SWAP1 PUSH2 0x2ED JUMP JUMPDEST PUSH2 0x257 JUMP JUMPDEST PUSH1 0x40 MLOAD PUSH2 0x136 SWAP2 SWAP1 PUSH2 0x38F JUMP JUMPDEST PUSH1 0x40 MLOAD DUP1 SWAP2 SUB SWAP1 RETURN JUMPDEST PUSH1 0x0 DUP1 SLOAD PUSH2 0x14C SWAP1 PUSH2 0x4F0 JUMP JUMPDEST DUP1 PUSH1 0x1F ADD PUSH1 0x20 DUP1 SWAP2 DIV MUL PUSH1 0x20 ADD PUSH1 0x40 MLOAD SWAP1 DUP2 ADD PUSH1 0x40 MSTORE DUP1 SWAP3 SWAP2 SWAP1 DUP2 DUP2 MSTORE PUSH1 0x20 ADD DUP3 DUP1 SLOAD PUSH2 0x178 SWAP1 PUSH2 0x4F0 JUMP JUMPDEST DUP1 ISZERO PUSH2 0x1C5 JUMPI DUP1 PUSH1 0x1F LT PUSH2 0x19A JUMPI PUSH2 0x100 DUP1 DUP4 SLOAD DIV MUL DUP4 MSTORE SWAP2 PUSH1 0x20 ADD SWAP2 PUSH2 0x1C5 JUMP JUMPDEST DUP3 ADD SWAP2 SWAP1 PUSH1 0x0 MSTORE PUSH1 0x20 PUSH1 0x0 KECCAK256 SWAP1 JUMPDEST DUP2 SLOAD DUP2 MSTORE SWAP1 PUSH1 0x1 ADD SWAP1 PUSH1 0x20 ADD DUP1 DUP4 GT PUSH2 0x1A8 JUMPI DUP3 SWAP1 SUB PUSH1 0x1F AND DUP3 ADD SWAP2 JUMPDEST POP POP POP POP POP DUP2 JUMP JUMPDEST PUSH1 0x3 PUSH1 0x0 SWAP1 SLOAD SWAP1 PUSH2 0x100 EXP SWAP1 DIV PUSH20 0xFFFFFFFFFFFFFFFFFFFFFFFFFFFFFFFFFFFFFFFF AND DUP2 JUMP JUMPDEST PUSH1 0x5 PUSH1 0x20 MSTORE DUP1 PUSH1 0x0 MSTORE PUSH1 0x40 PUSH1 0x0 KECCAK256 PUSH1 0x0 SWAP2 POP SWAP1 POP SLOAD DUP2 JUMP JUMPDEST PUSH1 0x1 PUSH1 0x0 SWAP1 SLOAD SWAP1 PUSH2 0x100 EXP SWAP1 DIV PUSH20 0xFFFFFFFFFFFFFFFFFFFFFFFFFFFFFFFFFFFFFFFF AND DUP2 JUMP JUMPDEST PUSH1 0x2 PUSH1 0x0 SWAP1 SLOAD SWAP1 PUSH2 0x100 EXP SWAP1 DIV PUSH20 0xFFFFFFFFFFFFFFFFFFFFFFFFFFFFFFFFFFFFFFFF AND DUP2 JUMP JUMPDEST PUSH1 0x4 DUP2 DUP2 SLOAD DUP2 LT PUSH2 0x267 JUMPI PUSH1 0x0 DUP1 REVERT JUMPDEST SWAP1 PUSH1 0x0 MSTORE PUSH1 0x20 PUSH1 0x0 KECCAK256 ADD PUSH1 0x0 SWAP2 POP SLOAD SWAP1 PUSH2 0x100 EXP SWAP1 DIV PUSH20 0xFFFFFFFFFFFFFFFFFFFFFFFFFFFFFFFFFFFFFFFF AND DUP2 JUMP JUMPDEST PUSH1 0x0 DUP2 CALLDATALOAD SWAP1 POP PUSH2 0x2A5 DUP2 PUSH2 0x567 JUMP JUMPDEST SWAP3 SWAP2 POP POP JUMP JUMPDEST PUSH1 0x0 DUP2 CALLDATALOAD SWAP1 POP PUSH2 0x2BA DUP2 PUSH2 0x57E JUMP JUMPDEST SWAP3 SWAP2 POP POP JUMP JUMPDEST PUSH1 0x0 PUSH1 0x20 DUP3 DUP5 SUB SLT ISZERO PUSH2 0x2D6 JUMPI PUSH2 0x2D5 PUSH2 0x551 JUMP JUMPDEST JUMPDEST PUSH1 0x0 PUSH2 0x2E4 DUP5 DUP3 DUP6 ADD PUSH2 0x296 JUMP JUMPDEST SWAP2 POP POP SWAP3 SWAP2 POP POP JUMP JUMPDEST PUSH1 0x0 PUSH1 0x20 DUP3 DUP5 SUB SLT ISZERO PUSH2 0x303 JUMPI PUSH2 0x302 PUSH2 0x551 JUMP JUMPDEST JUMPDEST PUSH1 0x0 PUSH2 0x311 DUP5 DUP3 DUP6 ADD PUSH2 0x2AB JUMP JUMPDEST SWAP2 POP POP SWAP3 SWAP2 POP POP JUMP JUMPDEST PUSH2 0x323 DUP2 PUSH2 0x439 JUMP JUMPDEST DUP3 MSTORE POP POP JUMP JUMPDEST PUSH2 0x332 DUP2 PUSH2 0x475 JUMP JUMPDEST DUP3 MSTORE POP POP JUMP JUMPDEST PUSH2 0x341 DUP2 PUSH2 0x487 JUMP JUMPDEST DUP3 MSTORE POP POP JUMP JUMPDEST PUSH1 0x0 PUSH2 0x352 DUP3 PUSH2 0x41D JUMP JUMPDEST PUSH2 0x35C DUP2 DUP6 PUSH2 0x428 JUMP JUMPDEST SWAP4 POP PUSH2 0x36C DUP2 DUP6 PUSH1 0x20 DUP7 ADD PUSH2 0x4BD JUMP JUMPDEST PUSH2 0x375 DUP2 PUSH2 0x556 JUMP JUMPDEST DUP5 ADD SWAP2 POP POP SWAP3 SWAP2 POP POP JUMP JUMPDEST PUSH2 0x389 DUP2 PUSH2 0x46B JUMP JUMPDEST DUP3 MSTORE POP POP JUMP JUMPDEST PUSH1 0x0 PUSH1 0x20 DUP3 ADD SWAP1 POP PUSH2 0x3A4 PUSH1 0x0 DUP4 ADD DUP5 PUSH2 0x31A JUMP JUMPDEST SWAP3 SWAP2 POP POP JUMP JUMPDEST PUSH1 0x0 PUSH1 0x20 DUP3 ADD SWAP1 POP PUSH2 0x3BF PUSH1 0x0 DUP4 ADD DUP5 PUSH2 0x329 JUMP JUMPDEST SWAP3 SWAP2 POP POP JUMP JUMPDEST PUSH1 0x0 PUSH1 0x20 DUP3 ADD SWAP1 POP PUSH2 0x3DA PUSH1 0x0 DUP4 ADD DUP5 PUSH2 0x338 JUMP JUMPDEST SWAP3 SWAP2 POP POP JUMP JUMPDEST PUSH1 0x0 PUSH1 0x20 DUP3 ADD SWAP1 POP DUP2 DUP2 SUB PUSH1 0x0 DUP4 ADD MSTORE PUSH2 0x3FA DUP2 DUP5 PUSH2 0x347 JUMP JUMPDEST SWAP1 POP SWAP3 SWAP2 POP POP JUMP JUMPDEST PUSH1 0x0 PUSH1 0x20 DUP3 ADD SWAP1 POP PUSH2 0x417 PUSH1 0x0 DUP4 ADD DUP5 PUSH2 0x380 JUMP JUMPDEST SWAP3 SWAP2 POP POP JUMP JUMPDEST PUSH1 0x0 DUP2 MLOAD SWAP1 POP SWAP2 SWAP1 POP JUMP JUMPDEST PUSH1 0x0 DUP3 DUP3 MSTORE PUSH1 0x20 DUP3 ADD SWAP1 POP SWAP3 SWAP2 POP POP JUMP JUMPDEST PUSH1 0x0 PUSH2 0x444 DUP3 PUSH2 0x44B JUMP JUMPDEST SWAP1 POP SWAP2 SWAP1 POP JUMP JUMPDEST PUSH1 0x0 PUSH20 0xFFFFFFFFFFFFFFFFFFFFFFFFFFFFFFFFFFFFFFFF DUP3 AND SWAP1 POP SWAP2 SWAP1 POP JUMP JUMPDEST PUSH1 0x0 DUP2 SWAP1 POP SWAP2 SWAP1 POP JUMP JUMPDEST PUSH1 0x0 PUSH2 0x480 DUP3 PUSH2 0x499 JUMP JUMPDEST SWAP1 POP SWAP2 SWAP1 POP JUMP JUMPDEST PUSH1 0x0 PUSH2 0x492 DUP3 PUSH2 0x499 JUMP JUMPDEST SWAP1 POP SWAP2 SWAP1 POP JUMP JUMPDEST PUSH1 0x0 PUSH2 0x4A4 DUP3 PUSH2 0x4AB JUMP JUMPDEST SWAP1 POP SWAP2 SWAP1 POP JUMP JUMPDEST PUSH1 0x0 PUSH2 0x4B6 DUP3 PUSH2 0x44B JUMP JUMPDEST SWAP1 POP SWAP2 SWAP1 POP JUMP JUMPDEST PUSH1 0x0 JUMPDEST DUP4 DUP2 LT ISZERO PUSH2 0x4DB JUMPI DUP1 DUP3 ADD MLOAD DUP2 DUP5 ADD MSTORE PUSH1 0x20 DUP2 ADD SWAP1 POP PUSH2 0x4C0 JUMP JUMPDEST DUP4 DUP2 GT ISZERO PUSH2 0x4EA JUMPI PUSH1 0x0 DUP5 DUP5 ADD MSTORE JUMPDEST POP POP POP POP JUMP JUMPDEST PUSH1 0x0 PUSH1 0x2 DUP3 DIV SWAP1 POP PUSH1 0x1 DUP3 AND DUP1 PUSH2 0x508 JUMPI PUSH1 0x7F DUP3 AND SWAP2 POP JUMPDEST PUSH1 0x20 DUP3 LT DUP2 EQ ISZERO PUSH2 0x51C JUMPI PUSH2 0x51B PUSH2 0x522 JUMP JUMPDEST JUMPDEST POP SWAP2 SWAP1 POP JUMP JUMPDEST PUSH32 0x4E487B7100000000000000000000000000000000000000000000000000000000 PUSH1 0x0 MSTORE PUSH1 0x22 PUSH1 0x4 MSTORE PUSH1 0x24 PUSH1 0x0 REVERT JUMPDEST PUSH1 0x0 DUP1 REVERT JUMPDEST PUSH1 0x0 PUSH1 0x1F NOT PUSH1 0x1F DUP4 ADD AND SWAP1 POP SWAP2 SWAP1 POP JUMP JUMPDEST PUSH2 0x570 DUP2 PUSH2 0x439 JUMP JUMPDEST DUP2 EQ PUSH2 0x57B JUMPI PUSH1 0x0 DUP1 REVERT JUMPDEST POP JUMP JUMPDEST PUSH2 0x587 DUP2 PUSH2 0x46B JUMP JUMPDEST DUP2 EQ PUSH2 0x592 JUMPI PUSH1 0x0 DUP1 REVERT JUMPDEST POP JUMP INVALID LOG2 PUSH5 0x6970667358 0x22 SLT KECCAK256 0xB9 MUL 0xC9 0xF7 0xE SIGNEXTEND DUP2 0xEA 0xB6 0xAA PUSH30 0x1E9FC3C9776D2D941B21E56923BD0BBC527773CDB364736F6C6343000807 STOP CALLER "
				},
				"gasEstimates": {
					"creation": {
						"codeDepositCost": "296600",
						"executionCost": "infinite",
						"totalCost": "infinite"
					},
					"external": {
						"Owner()": "2558",
						"jamToken()": "2666",
						"name()": "infinite",
						"stakers(uint256)": "5044",
						"stakingBalance(address)": "2836",
						"stellarToken()": "2600"
					}
				},
				"methodIdentifiers": {
					"Owner()": "b4a99a4e",
					"jamToken()": "f416d760",
					"name()": "06fdde03",
					"stakers(uint256)": "fd5e6dd1",
					"stakingBalance(address)": "45bc78ab",
					"stellarToken()": "0f141533"
				}
			},
			"storageLayout": {
				"storage": [
					{
						"astId": 368,
						"contract": "Staking/TokenFarm.sol:TokenFram",
						"label": "name",
						"offset": 0,
						"slot": "0",
						"type": "t_string_storage"
					},
					{
						"astId": 370,
						"contract": "Staking/TokenFarm.sol:TokenFram",
						"label": "Owner",
						"offset": 0,
						"slot": "1",
						"type": "t_address"
					},
					{
						"astId": 373,
						"contract": "Staking/TokenFarm.sol:TokenFram",
						"label": "jamToken",
						"offset": 0,
						"slot": "2",
						"type": "t_contract(JamToken)180"
					},
					{
						"astId": 376,
						"contract": "Staking/TokenFarm.sol:TokenFram",
						"label": "stellarToken",
						"offset": 0,
						"slot": "3",
						"type": "t_contract(StellarToken)361"
					},
					{
						"astId": 379,
						"contract": "Staking/TokenFarm.sol:TokenFram",
						"label": "stakers",
						"offset": 0,
						"slot": "4",
						"type": "t_array(t_address)dyn_storage"
					},
					{
						"astId": 383,
						"contract": "Staking/TokenFarm.sol:TokenFram",
						"label": "stakingBalance",
						"offset": 0,
						"slot": "5",
						"type": "t_mapping(t_address,t_uint256)"
					}
				],
				"types": {
					"t_address": {
						"encoding": "inplace",
						"label": "address",
						"numberOfBytes": "20"
					},
					"t_array(t_address)dyn_storage": {
						"base": "t_address",
						"encoding": "dynamic_array",
						"label": "address[]",
						"numberOfBytes": "32"
					},
					"t_contract(JamToken)180": {
						"encoding": "inplace",
						"label": "contract JamToken",
						"numberOfBytes": "20"
					},
					"t_contract(StellarToken)361": {
						"encoding": "inplace",
						"label": "contract StellarToken",
						"numberOfBytes": "20"
					},
					"t_mapping(t_address,t_uint256)": {
						"encoding": "mapping",
						"key": "t_address",
						"label": "mapping(address => uint256)",
						"numberOfBytes": "32",
						"value": "t_uint256"
					},
					"t_string_storage": {
						"encoding": "bytes",
						"label": "string",
						"numberOfBytes": "32"
					},
					"t_uint256": {
						"encoding": "inplace",
						"label": "uint256",
						"numberOfBytes": "32"
					}
				}
			},
			"userdoc": {
				"kind": "user",
				"methods": {},
				"version": 1
			}
		}
	}
}