{
	"Staking/TokenFarm.sol": {
		"TokenFram": {
			"abi": [
				{
					"inputs": [
						{
							"internalType": "contract StellarToken",
							"name": "_stellarToken",
							"type": "address"
						},
						{
							"internalType": "contract JamToken",
							"name": "_jamToken",
							"type": "address"
						}
					],
					"stateMutability": "nonpayable",
					"type": "constructor"
				},
				{
					"inputs": [],
					"name": "Owner",
					"outputs": [
						{
							"internalType": "address",
							"name": "",
							"type": "address"
						}
					],
					"stateMutability": "view",
					"type": "function"
				},
				{
					"inputs": [
						{
							"internalType": "address",
							"name": "",
							"type": "address"
						}
					],
					"name": "hasStaked",
					"outputs": [
						{
							"internalType": "bool",
							"name": "",
							"type": "bool"
						}
					],
					"stateMutability": "view",
					"type": "function"
				},
				{
					"inputs": [
						{
							"internalType": "address",
							"name": "",
							"type": "address"
						}
					],
					"name": "isStaking",
					"outputs": [
						{
							"internalType": "bool",
							"name": "",
							"type": "bool"
						}
					],
					"stateMutability": "view",
					"type": "function"
				},
				{
					"inputs": [],
					"name": "jamToken",
					"outputs": [
						{
							"internalType": "contract JamToken",
							"name": "",
							"type": "address"
						}
					],
					"stateMutability": "view",
					"type": "function"
				},
				{
					"inputs": [],
					"name": "name",
					"outputs": [
						{
							"internalType": "string",
							"name": "",
							"type": "string"
						}
					],
					"stateMutability": "view",
					"type": "function"
				},
				{
					"inputs": [
						{
							"internalType": "uint256",
							"name": "_amount",
							"type": "uint256"
						}
					],
					"name": "stakenTokens",
					"outputs": [],
					"stateMutability": "nonpayable",
					"type": "function"
				},
				{
					"inputs": [
						{
							"internalType": "uint256",
							"name": "",
							"type": "uint256"
						}
					],
					"name": "stakers",
					"outputs": [
						{
							"internalType": "address",
							"name": "",
							"type": "address"
						}
					],
					"stateMutability": "view",
					"type": "function"
				},
				{
					"inputs": [
						{
							"internalType": "address",
							"name": "",
							"type": "address"
						}
					],
					"name": "stakingBalance",
					"outputs": [
						{
							"internalType": "uint256",
							"name": "",
							"type": "uint256"
						}
					],
					"stateMutability": "view",
					"type": "function"
				},
				{
					"inputs": [],
					"name": "stellarToken",
					"outputs": [
						{
							"internalType": "contract StellarToken",
							"name": "",
							"type": "address"
						}
					],
					"stateMutability": "view",
					"type": "function"
				},
				{
					"inputs": [],
					"name": "unstakeToken",
					"outputs": [],
					"stateMutability": "nonpayable",
					"type": "function"
				}
			],
			"devdoc": {
				"kind": "dev",
				"methods": {},
				"version": 1
			},
			"evm": {
				"assembly": "    /* \"Staking/TokenFarm.sol\":141:1945  contract TokenFram {\r... */\n  mstore(0x40, 0x80)\n    /* \"Staking/TokenFarm.sol\":191:232  string public name = \"Stellar Token Fram\" */\n  mload(0x40)\n  dup1\n  0x40\n  add\n  0x40\n  mstore\n  dup1\n  0x12\n  dup2\n  mstore\n  0x20\n  add\n  0x5374656c6c617220546f6b656e204672616d0000000000000000000000000000\n  dup2\n  mstore\n  pop\n  0x00\n  swap1\n  dup1\n  mload\n  swap1\n  0x20\n  add\n  swap1\n  tag_1\n  swap3\n  swap2\n  swap1\n  tag_2\n  jump\t// in\ntag_1:\n  pop\n    /* \"Staking/TokenFarm.sol\":569:737  constructor(StellarToken _stellarToken, JamToken _jamToken){\r... */\n  callvalue\n  dup1\n  iszero\n  tag_3\n  jumpi\n  0x00\n  dup1\n  revert\ntag_3:\n  pop\n  mload(0x40)\n  sub(codesize, bytecodeSize)\n  dup1\n  bytecodeSize\n  dup4\n  codecopy\n  dup2\n  dup2\n  add\n  0x40\n  mstore\n  dup2\n  add\n  swap1\n  tag_4\n  swap2\n  swap1\n  tag_5\n  jump\t// in\ntag_4:\n    /* \"Staking/TokenFarm.sol\":654:667  _stellarToken */\n  dup2\n    /* \"Staking/TokenFarm.sol\":639:651  stellarToken */\n  0x03\n  0x00\n    /* \"Staking/TokenFarm.sol\":639:667  stellarToken = _stellarToken */\n  0x0100\n  exp\n  dup2\n  sload\n  dup2\n  0xffffffffffffffffffffffffffffffffffffffff\n  mul\n  not\n  and\n  swap1\n  dup4\n  0xffffffffffffffffffffffffffffffffffffffff\n  and\n  mul\n  or\n  swap1\n  sstore\n  pop\n    /* \"Staking/TokenFarm.sol\":689:698  _jamToken */\n  dup1\n    /* \"Staking/TokenFarm.sol\":678:686  jamToken */\n  0x02\n  0x00\n    /* \"Staking/TokenFarm.sol\":678:698  jamToken = _jamToken */\n  0x0100\n  exp\n  dup2\n  sload\n  dup2\n  0xffffffffffffffffffffffffffffffffffffffff\n  mul\n  not\n  and\n  swap1\n  dup4\n  0xffffffffffffffffffffffffffffffffffffffff\n  and\n  mul\n  or\n  swap1\n  sstore\n  pop\n    /* \"Staking/TokenFarm.sol\":717:727  msg.sender */\n  caller\n    /* \"Staking/TokenFarm.sol\":709:714  Owner */\n  0x01\n  0x00\n    /* \"Staking/TokenFarm.sol\":709:727  Owner = msg.sender */\n  0x0100\n  exp\n  dup2\n  sload\n  dup2\n  0xffffffffffffffffffffffffffffffffffffffff\n  mul\n  not\n  and\n  swap1\n  dup4\n  0xffffffffffffffffffffffffffffffffffffffff\n  and\n  mul\n  or\n  swap1\n  sstore\n  pop\n    /* \"Staking/TokenFarm.sol\":569:737  constructor(StellarToken _stellarToken, JamToken _jamToken){\r... */\n  pop\n  pop\n    /* \"Staking/TokenFarm.sol\":141:1945  contract TokenFram {\r... */\n  jump(tag_8)\ntag_2:\n  dup3\n  dup1\n  sload\n  tag_9\n  swap1\n  tag_10\n  jump\t// in\ntag_9:\n  swap1\n  0x00\n  mstore\n  keccak256(0x00, 0x20)\n  swap1\n  0x1f\n  add\n  0x20\n  swap1\n  div\n  dup2\n  add\n  swap3\n  dup3\n  tag_12\n  jumpi\n  0x00\n  dup6\n  sstore\n  jump(tag_11)\ntag_12:\n  dup3\n  0x1f\n  lt\n  tag_13\n  jumpi\n  dup1\n  mload\n  not(0xff)\n  and\n  dup4\n  dup1\n  add\n  or\n  dup6\n  sstore\n  jump(tag_11)\ntag_13:\n  dup3\n  dup1\n  add\n  0x01\n  add\n  dup6\n  sstore\n  dup3\n  iszero\n  tag_11\n  jumpi\n  swap2\n  dup3\n  add\ntag_14:\n  dup3\n  dup2\n  gt\n  iszero\n  tag_15\n  jumpi\n  dup3\n  mload\n  dup3\n  sstore\n  swap2\n  0x20\n  add\n  swap2\n  swap1\n  0x01\n  add\n  swap1\n  jump(tag_14)\ntag_15:\ntag_11:\n  pop\n  swap1\n  pop\n  tag_16\n  swap2\n  swap1\n  tag_17\n  jump\t// in\ntag_16:\n  pop\n  swap1\n  jump\t// out\ntag_17:\ntag_18:\n  dup1\n  dup3\n  gt\n  iszero\n  tag_19\n  jumpi\n  0x00\n  dup2\n  0x00\n  swap1\n  sstore\n  pop\n  0x01\n  add\n  jump(tag_18)\ntag_19:\n  pop\n  swap1\n  jump\t// out\n    /* \"#utility.yul\":7:182   */\ntag_21:\n    /* \"#utility.yul\":80:85   */\n  0x00\n    /* \"#utility.yul\":111:117   */\n  dup2\n    /* \"#utility.yul\":105:118   */\n  mload\n    /* \"#utility.yul\":96:118   */\n  swap1\n  pop\n    /* \"#utility.yul\":127:176   */\n  tag_23\n    /* \"#utility.yul\":170:175   */\n  dup2\n    /* \"#utility.yul\":127:176   */\n  tag_24\n  jump\t// in\ntag_23:\n    /* \"#utility.yul\":7:182   */\n  swap3\n  swap2\n  pop\n  pop\n  jump\t// out\n    /* \"#utility.yul\":188:371   */\ntag_25:\n    /* \"#utility.yul\":265:270   */\n  0x00\n    /* \"#utility.yul\":296:302   */\n  dup2\n    /* \"#utility.yul\":290:303   */\n  mload\n    /* \"#utility.yul\":281:303   */\n  swap1\n  pop\n    /* \"#utility.yul\":312:365   */\n  tag_27\n    /* \"#utility.yul\":359:364   */\n  dup2\n    /* \"#utility.yul\":312:365   */\n  tag_28\n  jump\t// in\ntag_27:\n    /* \"#utility.yul\":188:371   */\n  swap3\n  swap2\n  pop\n  pop\n  jump\t// out\n    /* \"#utility.yul\":377:956   */\ntag_5:\n    /* \"#utility.yul\":492:498   */\n  0x00\n    /* \"#utility.yul\":500:506   */\n  dup1\n    /* \"#utility.yul\":549:551   */\n  0x40\n    /* \"#utility.yul\":537:546   */\n  dup4\n    /* \"#utility.yul\":528:535   */\n  dup6\n    /* \"#utility.yul\":524:547   */\n  sub\n    /* \"#utility.yul\":520:552   */\n  slt\n    /* \"#utility.yul\":517:636   */\n  iszero\n  tag_30\n  jumpi\n    /* \"#utility.yul\":555:634   */\n  tag_31\n  tag_32\n  jump\t// in\ntag_31:\n    /* \"#utility.yul\":517:636   */\ntag_30:\n    /* \"#utility.yul\":675:676   */\n  0x00\n    /* \"#utility.yul\":700:784   */\n  tag_33\n    /* \"#utility.yul\":776:783   */\n  dup6\n    /* \"#utility.yul\":767:773   */\n  dup3\n    /* \"#utility.yul\":756:765   */\n  dup7\n    /* \"#utility.yul\":752:774   */\n  add\n    /* \"#utility.yul\":700:784   */\n  tag_25\n  jump\t// in\ntag_33:\n    /* \"#utility.yul\":690:784   */\n  swap3\n  pop\n    /* \"#utility.yul\":646:794   */\n  pop\n    /* \"#utility.yul\":833:835   */\n  0x20\n    /* \"#utility.yul\":859:939   */\n  tag_34\n    /* \"#utility.yul\":931:938   */\n  dup6\n    /* \"#utility.yul\":922:928   */\n  dup3\n    /* \"#utility.yul\":911:920   */\n  dup7\n    /* \"#utility.yul\":907:929   */\n  add\n    /* \"#utility.yul\":859:939   */\n  tag_21\n  jump\t// in\ntag_34:\n    /* \"#utility.yul\":849:939   */\n  swap2\n  pop\n    /* \"#utility.yul\":804:949   */\n  pop\n    /* \"#utility.yul\":377:956   */\n  swap3\n  pop\n  swap3\n  swap1\n  pop\n  jump\t// out\n    /* \"#utility.yul\":1043:1139   */\ntag_37:\n    /* \"#utility.yul\":1080:1087   */\n  0x00\n    /* \"#utility.yul\":1109:1133   */\n  tag_39\n    /* \"#utility.yul\":1127:1132   */\n  dup3\n    /* \"#utility.yul\":1109:1133   */\n  tag_40\n  jump\t// in\ntag_39:\n    /* \"#utility.yul\":1098:1133   */\n  swap1\n  pop\n    /* \"#utility.yul\":1043:1139   */\n  swap2\n  swap1\n  pop\n  jump\t// out\n    /* \"#utility.yul\":1145:1257   */\ntag_41:\n    /* \"#utility.yul\":1198:1205   */\n  0x00\n    /* \"#utility.yul\":1227:1251   */\n  tag_43\n    /* \"#utility.yul\":1245:1250   */\n  dup3\n    /* \"#utility.yul\":1227:1251   */\n  tag_37\n  jump\t// in\ntag_43:\n    /* \"#utility.yul\":1216:1251   */\n  swap1\n  pop\n    /* \"#utility.yul\":1145:1257   */\n  swap2\n  swap1\n  pop\n  jump\t// out\n    /* \"#utility.yul\":1263:1379   */\ntag_44:\n    /* \"#utility.yul\":1320:1327   */\n  0x00\n    /* \"#utility.yul\":1349:1373   */\n  tag_46\n    /* \"#utility.yul\":1367:1372   */\n  dup3\n    /* \"#utility.yul\":1349:1373   */\n  tag_37\n  jump\t// in\ntag_46:\n    /* \"#utility.yul\":1338:1373   */\n  swap1\n  pop\n    /* \"#utility.yul\":1263:1379   */\n  swap2\n  swap1\n  pop\n  jump\t// out\n    /* \"#utility.yul\":1385:1511   */\ntag_40:\n    /* \"#utility.yul\":1422:1429   */\n  0x00\n    /* \"#utility.yul\":1462:1504   */\n  0xffffffffffffffffffffffffffffffffffffffff\n    /* \"#utility.yul\":1455:1460   */\n  dup3\n    /* \"#utility.yul\":1451:1505   */\n  and\n    /* \"#utility.yul\":1440:1505   */\n  swap1\n  pop\n    /* \"#utility.yul\":1385:1511   */\n  swap2\n  swap1\n  pop\n  jump\t// out\n    /* \"#utility.yul\":1517:1837   */\ntag_10:\n    /* \"#utility.yul\":1561:1567   */\n  0x00\n    /* \"#utility.yul\":1598:1599   */\n  0x02\n    /* \"#utility.yul\":1592:1596   */\n  dup3\n    /* \"#utility.yul\":1588:1600   */\n  div\n    /* \"#utility.yul\":1578:1600   */\n  swap1\n  pop\n    /* \"#utility.yul\":1645:1646   */\n  0x01\n    /* \"#utility.yul\":1639:1643   */\n  dup3\n    /* \"#utility.yul\":1635:1647   */\n  and\n    /* \"#utility.yul\":1666:1684   */\n  dup1\n    /* \"#utility.yul\":1656:1737   */\n  tag_49\n  jumpi\n    /* \"#utility.yul\":1722:1726   */\n  0x7f\n    /* \"#utility.yul\":1714:1720   */\n  dup3\n    /* \"#utility.yul\":1710:1727   */\n  and\n    /* \"#utility.yul\":1700:1727   */\n  swap2\n  pop\n    /* \"#utility.yul\":1656:1737   */\ntag_49:\n    /* \"#utility.yul\":1784:1786   */\n  0x20\n    /* \"#utility.yul\":1776:1782   */\n  dup3\n    /* \"#utility.yul\":1773:1787   */\n  lt\n    /* \"#utility.yul\":1753:1771   */\n  dup2\n    /* \"#utility.yul\":1750:1788   */\n  eq\n    /* \"#utility.yul\":1747:1831   */\n  iszero\n  tag_50\n  jumpi\n    /* \"#utility.yul\":1803:1821   */\n  tag_51\n  tag_52\n  jump\t// in\ntag_51:\n    /* \"#utility.yul\":1747:1831   */\ntag_50:\n    /* \"#utility.yul\":1568:1837   */\n  pop\n    /* \"#utility.yul\":1517:1837   */\n  swap2\n  swap1\n  pop\n  jump\t// out\n    /* \"#utility.yul\":1843:2023   */\ntag_52:\n    /* \"#utility.yul\":1891:1968   */\n  0x4e487b7100000000000000000000000000000000000000000000000000000000\n    /* \"#utility.yul\":1888:1889   */\n  0x00\n    /* \"#utility.yul\":1881:1969   */\n  mstore\n    /* \"#utility.yul\":1988:1992   */\n  0x22\n    /* \"#utility.yul\":1985:1986   */\n  0x04\n    /* \"#utility.yul\":1978:1993   */\n  mstore\n    /* \"#utility.yul\":2012:2016   */\n  0x24\n    /* \"#utility.yul\":2009:2010   */\n  0x00\n    /* \"#utility.yul\":2002:2017   */\n  revert\n    /* \"#utility.yul\":2152:2269   */\ntag_32:\n    /* \"#utility.yul\":2261:2262   */\n  0x00\n    /* \"#utility.yul\":2258:2259   */\n  dup1\n    /* \"#utility.yul\":2251:2263   */\n  revert\n    /* \"#utility.yul\":2275:2429   */\ntag_24:\n    /* \"#utility.yul\":2364:2404   */\n  tag_58\n    /* \"#utility.yul\":2398:2403   */\n  dup2\n    /* \"#utility.yul\":2364:2404   */\n  tag_41\n  jump\t// in\ntag_58:\n    /* \"#utility.yul\":2357:2362   */\n  dup2\n    /* \"#utility.yul\":2354:2405   */\n  eq\n    /* \"#utility.yul\":2344:2423   */\n  tag_59\n  jumpi\n    /* \"#utility.yul\":2419:2420   */\n  0x00\n    /* \"#utility.yul\":2416:2417   */\n  dup1\n    /* \"#utility.yul\":2409:2421   */\n  revert\n    /* \"#utility.yul\":2344:2423   */\ntag_59:\n    /* \"#utility.yul\":2275:2429   */\n  pop\n  jump\t// out\n    /* \"#utility.yul\":2435:2597   */\ntag_28:\n    /* \"#utility.yul\":2528:2572   */\n  tag_61\n    /* \"#utility.yul\":2566:2571   */\n  dup2\n    /* \"#utility.yul\":2528:2572   */\n  tag_44\n  jump\t// in\ntag_61:\n    /* \"#utility.yul\":2521:2526   */\n  dup2\n    /* \"#utility.yul\":2518:2573   */\n  eq\n    /* \"#utility.yul\":2508:2591   */\n  tag_62\n  jumpi\n    /* \"#utility.yul\":2587:2588   */\n  0x00\n    /* \"#utility.yul\":2584:2585   */\n  dup1\n    /* \"#utility.yul\":2577:2589   */\n  revert\n    /* \"#utility.yul\":2508:2591   */\ntag_62:\n    /* \"#utility.yul\":2435:2597   */\n  pop\n  jump\t// out\n    /* \"Staking/TokenFarm.sol\":141:1945  contract TokenFram {\r... */\ntag_8:\n  dataSize(sub_0)\n  dup1\n  dataOffset(sub_0)\n  0x00\n  codecopy\n  0x00\n  return\nstop\n\nsub_0: assembly {\n        /* \"Staking/TokenFarm.sol\":141:1945  contract TokenFram {\r... */\n      mstore(0x40, 0x80)\n      callvalue\n      dup1\n      iszero\n      tag_1\n      jumpi\n      0x00\n      dup1\n      revert\n    tag_1:\n      pop\n      jumpi(tag_2, lt(calldatasize, 0x04))\n      shr(0xe0, calldataload(0x00))\n      dup1\n      0x6f49712b\n      gt\n      tag_13\n      jumpi\n      dup1\n      0x6f49712b\n      eq\n      tag_8\n      jumpi\n      dup1\n      0xb4a99a4e\n      eq\n      tag_9\n      jumpi\n      dup1\n      0xc93c8f34\n      eq\n      tag_10\n      jumpi\n      dup1\n      0xf416d760\n      eq\n      tag_11\n      jumpi\n      dup1\n      0xfd5e6dd1\n      eq\n      tag_12\n      jumpi\n      jump(tag_2)\n    tag_13:\n      dup1\n      0x06fdde03\n      eq\n      tag_3\n      jumpi\n      dup1\n      0x0f141533\n      eq\n      tag_4\n      jumpi\n      dup1\n      0x20eb640c\n      eq\n      tag_5\n      jumpi\n      dup1\n      0x45bc78ab\n      eq\n      tag_6\n      jumpi\n      dup1\n      0x6e9e2822\n      eq\n      tag_7\n      jumpi\n    tag_2:\n      0x00\n      dup1\n      revert\n        /* \"Staking/TokenFarm.sol\":191:232  string public name = \"Stellar Token Fram\" */\n    tag_3:\n      tag_14\n      tag_15\n      jump\t// in\n    tag_14:\n      mload(0x40)\n      tag_16\n      swap2\n      swap1\n      tag_17\n      jump\t// in\n    tag_16:\n      mload(0x40)\n      dup1\n      swap2\n      sub\n      swap1\n      return\n        /* \"Staking/TokenFarm.sol\":297:329  StellarToken public stellarToken */\n    tag_4:\n      tag_18\n      tag_19\n      jump\t// in\n    tag_18:\n      mload(0x40)\n      tag_20\n      swap2\n      swap1\n      tag_21\n      jump\t// in\n    tag_20:\n      mload(0x40)\n      dup1\n      swap2\n      sub\n      swap1\n      return\n        /* \"Staking/TokenFarm.sol\":1451:1940  function unstakeToken() public {\r... */\n    tag_5:\n      tag_22\n      tag_23\n      jump\t// in\n    tag_22:\n      stop\n        /* \"Staking/TokenFarm.sol\":399:445  mapping(address => uint) public stakingBalance */\n    tag_6:\n      tag_24\n      0x04\n      dup1\n      calldatasize\n      sub\n      dup2\n      add\n      swap1\n      tag_25\n      swap2\n      swap1\n      tag_26\n      jump\t// in\n    tag_25:\n      tag_27\n      jump\t// in\n    tag_24:\n      mload(0x40)\n      tag_28\n      swap2\n      swap1\n      tag_29\n      jump\t// in\n    tag_28:\n      mload(0x40)\n      dup1\n      swap2\n      sub\n      swap1\n      return\n        /* \"Staking/TokenFarm.sol\":768:1404  function stakenTokens(uint _amount) public {\r... */\n    tag_7:\n      tag_30\n      0x04\n      dup1\n      calldatasize\n      sub\n      dup2\n      add\n      swap1\n      tag_31\n      swap2\n      swap1\n      tag_32\n      jump\t// in\n    tag_31:\n      tag_33\n      jump\t// in\n    tag_30:\n      stop\n        /* \"Staking/TokenFarm.sol\":500:541  mapping(address => bool) public isStaking */\n    tag_8:\n      tag_34\n      0x04\n      dup1\n      calldatasize\n      sub\n      dup2\n      add\n      swap1\n      tag_35\n      swap2\n      swap1\n      tag_26\n      jump\t// in\n    tag_35:\n      tag_36\n      jump\t// in\n    tag_34:\n      mload(0x40)\n      tag_37\n      swap2\n      swap1\n      tag_38\n      jump\t// in\n    tag_37:\n      mload(0x40)\n      dup1\n      swap2\n      sub\n      swap1\n      return\n        /* \"Staking/TokenFarm.sol\":239:259  address public Owner */\n    tag_9:\n      tag_39\n      tag_40\n      jump\t// in\n    tag_39:\n      mload(0x40)\n      tag_41\n      swap2\n      swap1\n      tag_42\n      jump\t// in\n    tag_41:\n      mload(0x40)\n      dup1\n      swap2\n      sub\n      swap1\n      return\n        /* \"Staking/TokenFarm.sol\":452:493  mapping(address => bool) public hasStaked */\n    tag_10:\n      tag_43\n      0x04\n      dup1\n      calldatasize\n      sub\n      dup2\n      add\n      swap1\n      tag_44\n      swap2\n      swap1\n      tag_26\n      jump\t// in\n    tag_44:\n      tag_45\n      jump\t// in\n    tag_43:\n      mload(0x40)\n      tag_46\n      swap2\n      swap1\n      tag_38\n      jump\t// in\n    tag_46:\n      mload(0x40)\n      dup1\n      swap2\n      sub\n      swap1\n      return\n        /* \"Staking/TokenFarm.sol\":266:290  JamToken public jamToken */\n    tag_11:\n      tag_47\n      tag_48\n      jump\t// in\n    tag_47:\n      mload(0x40)\n      tag_49\n      swap2\n      swap1\n      tag_50\n      jump\t// in\n    tag_49:\n      mload(0x40)\n      dup1\n      swap2\n      sub\n      swap1\n      return\n        /* \"Staking/TokenFarm.sol\":367:392  address [] public stakers */\n    tag_12:\n      tag_51\n      0x04\n      dup1\n      calldatasize\n      sub\n      dup2\n      add\n      swap1\n      tag_52\n      swap2\n      swap1\n      tag_32\n      jump\t// in\n    tag_52:\n      tag_53\n      jump\t// in\n    tag_51:\n      mload(0x40)\n      tag_54\n      swap2\n      swap1\n      tag_42\n      jump\t// in\n    tag_54:\n      mload(0x40)\n      dup1\n      swap2\n      sub\n      swap1\n      return\n        /* \"Staking/TokenFarm.sol\":191:232  string public name = \"Stellar Token Fram\" */\n    tag_15:\n      0x00\n      dup1\n      sload\n      tag_55\n      swap1\n      tag_56\n      jump\t// in\n    tag_55:\n      dup1\n      0x1f\n      add\n      0x20\n      dup1\n      swap2\n      div\n      mul\n      0x20\n      add\n      mload(0x40)\n      swap1\n      dup2\n      add\n      0x40\n      mstore\n      dup1\n      swap3\n      swap2\n      swap1\n      dup2\n      dup2\n      mstore\n      0x20\n      add\n      dup3\n      dup1\n      sload\n      tag_57\n      swap1\n      tag_56\n      jump\t// in\n    tag_57:\n      dup1\n      iszero\n      tag_58\n      jumpi\n      dup1\n      0x1f\n      lt\n      tag_59\n      jumpi\n      0x0100\n      dup1\n      dup4\n      sload\n      div\n      mul\n      dup4\n      mstore\n      swap2\n      0x20\n      add\n      swap2\n      jump(tag_58)\n    tag_59:\n      dup3\n      add\n      swap2\n      swap1\n      0x00\n      mstore\n      keccak256(0x00, 0x20)\n      swap1\n    tag_60:\n      dup2\n      sload\n      dup2\n      mstore\n      swap1\n      0x01\n      add\n      swap1\n      0x20\n      add\n      dup1\n      dup4\n      gt\n      tag_60\n      jumpi\n      dup3\n      swap1\n      sub\n      0x1f\n      and\n      dup3\n      add\n      swap2\n    tag_58:\n      pop\n      pop\n      pop\n      pop\n      pop\n      dup2\n      jump\t// out\n        /* \"Staking/TokenFarm.sol\":297:329  StellarToken public stellarToken */\n    tag_19:\n      0x03\n      0x00\n      swap1\n      sload\n      swap1\n      0x0100\n      exp\n      swap1\n      div\n      0xffffffffffffffffffffffffffffffffffffffff\n      and\n      dup2\n      jump\t// out\n        /* \"Staking/TokenFarm.sol\":1451:1940  function unstakeToken() public {\r... */\n    tag_23:\n        /* \"Staking/TokenFarm.sol\":1536:1548  uint balance */\n      0x00\n        /* \"Staking/TokenFarm.sol\":1551:1565  stakingBalance */\n      0x05\n        /* \"Staking/TokenFarm.sol\":1551:1577  stakingBalance[msg.sender] */\n      0x00\n        /* \"Staking/TokenFarm.sol\":1566:1576  msg.sender */\n      caller\n        /* \"Staking/TokenFarm.sol\":1551:1577  stakingBalance[msg.sender] */\n      0xffffffffffffffffffffffffffffffffffffffff\n      and\n      0xffffffffffffffffffffffffffffffffffffffff\n      and\n      dup2\n      mstore\n      0x20\n      add\n      swap1\n      dup2\n      mstore\n      0x20\n      add\n      0x00\n      keccak256\n      sload\n        /* \"Staking/TokenFarm.sol\":1536:1577  uint balance = stakingBalance[msg.sender] */\n      swap1\n      pop\n        /* \"Staking/TokenFarm.sol\":1653:1654  0 */\n      0x00\n        /* \"Staking/TokenFarm.sol\":1643:1650  balance */\n      dup2\n        /* \"Staking/TokenFarm.sol\":1643:1654  balance > 0 */\n      gt\n        /* \"Staking/TokenFarm.sol\":1635:1686  require(balance > 0, \"El balance del staking es 0\") */\n      tag_62\n      jumpi\n      mload(0x40)\n      0x08c379a000000000000000000000000000000000000000000000000000000000\n      dup2\n      mstore\n      0x04\n      add\n      tag_63\n      swap1\n      tag_64\n      jump\t// in\n    tag_63:\n      mload(0x40)\n      dup1\n      swap2\n      sub\n      swap1\n      revert\n    tag_62:\n        /* \"Staking/TokenFarm.sol\":1748:1756  jamToken */\n      0x02\n      0x00\n      swap1\n      sload\n      swap1\n      0x0100\n      exp\n      swap1\n      div\n      0xffffffffffffffffffffffffffffffffffffffff\n      and\n        /* \"Staking/TokenFarm.sol\":1748:1765  jamToken.transfer */\n      0xffffffffffffffffffffffffffffffffffffffff\n      and\n      0xa9059cbb\n        /* \"Staking/TokenFarm.sol\":1766:1776  msg.sender */\n      caller\n        /* \"Staking/TokenFarm.sol\":1778:1785  balance */\n      dup4\n        /* \"Staking/TokenFarm.sol\":1748:1786  jamToken.transfer(msg.sender, balance) */\n      mload(0x40)\n      dup4\n      0xffffffff\n      and\n      0xe0\n      shl\n      dup2\n      mstore\n      0x04\n      add\n      tag_65\n      swap3\n      swap2\n      swap1\n      tag_66\n      jump\t// in\n    tag_65:\n      0x20\n      mload(0x40)\n      dup1\n      dup4\n      sub\n      dup2\n      0x00\n      dup8\n      dup1\n      extcodesize\n      iszero\n      dup1\n      iszero\n      tag_67\n      jumpi\n      0x00\n      dup1\n      revert\n    tag_67:\n      pop\n      gas\n      call\n      iszero\n      dup1\n      iszero\n      tag_69\n      jumpi\n      returndatasize\n      0x00\n      dup1\n      returndatacopy\n      revert(0x00, returndatasize)\n    tag_69:\n      pop\n      pop\n      pop\n      pop\n      mload(0x40)\n      returndatasize\n      not(0x1f)\n      0x1f\n      dup3\n      add\n      and\n      dup3\n      add\n      dup1\n      0x40\n      mstore\n      pop\n      dup2\n      add\n      swap1\n      tag_70\n      swap2\n      swap1\n      tag_71\n      jump\t// in\n    tag_70:\n      pop\n        /* \"Staking/TokenFarm.sol\":1880:1881  0 */\n      0x00\n        /* \"Staking/TokenFarm.sol\":1851:1865  stakingBalance */\n      0x05\n        /* \"Staking/TokenFarm.sol\":1851:1877  stakingBalance[msg.sender] */\n      0x00\n        /* \"Staking/TokenFarm.sol\":1866:1876  msg.sender */\n      caller\n        /* \"Staking/TokenFarm.sol\":1851:1877  stakingBalance[msg.sender] */\n      0xffffffffffffffffffffffffffffffffffffffff\n      and\n      0xffffffffffffffffffffffffffffffffffffffff\n      and\n      dup2\n      mstore\n      0x20\n      add\n      swap1\n      dup2\n      mstore\n      0x20\n      add\n      0x00\n      keccak256\n        /* \"Staking/TokenFarm.sol\":1851:1881  stakingBalance[msg.sender] = 0 */\n      dup2\n      swap1\n      sstore\n      pop\n        /* \"Staking/TokenFarm.sol\":1482:1940  {\r... */\n      pop\n        /* \"Staking/TokenFarm.sol\":1451:1940  function unstakeToken() public {\r... */\n      jump\t// out\n        /* \"Staking/TokenFarm.sol\":399:445  mapping(address => uint) public stakingBalance */\n    tag_27:\n      mstore(0x20, 0x05)\n      dup1\n      0x00\n      mstore\n      keccak256(0x00, 0x40)\n      0x00\n      swap2\n      pop\n      swap1\n      pop\n      sload\n      dup2\n      jump\t// out\n        /* \"Staking/TokenFarm.sol\":768:1404  function stakenTokens(uint _amount) public {\r... */\n    tag_33:\n        /* \"Staking/TokenFarm.sol\":890:891  0 */\n      0x00\n        /* \"Staking/TokenFarm.sol\":880:887  _amount */\n      dup2\n        /* \"Staking/TokenFarm.sol\":880:891  _amount < 0 */\n      lt\n        /* \"Staking/TokenFarm.sol\":872:930  require(_amount < 0, \"La cantidad no puede ser menor a 0\") */\n      tag_73\n      jumpi\n      mload(0x40)\n      0x08c379a000000000000000000000000000000000000000000000000000000000\n      dup2\n      mstore\n      0x04\n      add\n      tag_74\n      swap1\n      tag_75\n      jump\t// in\n    tag_74:\n      mload(0x40)\n      dup1\n      swap2\n      sub\n      swap1\n      revert\n    tag_73:\n        /* \"Staking/TokenFarm.sol\":1003:1011  jamToken */\n      0x02\n      0x00\n      swap1\n      sload\n      swap1\n      0x0100\n      exp\n      swap1\n      div\n      0xffffffffffffffffffffffffffffffffffffffff\n      and\n        /* \"Staking/TokenFarm.sol\":1003:1024  jamToken.transferFrom */\n      0xffffffffffffffffffffffffffffffffffffffff\n      and\n      0x23b872dd\n        /* \"Staking/TokenFarm.sol\":1025:1035  msg.sender */\n      caller\n        /* \"Staking/TokenFarm.sol\":1045:1049  this */\n      address\n        /* \"Staking/TokenFarm.sol\":1052:1059  _amount */\n      dup5\n        /* \"Staking/TokenFarm.sol\":1003:1060  jamToken.transferFrom(msg.sender, address(this), _amount) */\n      mload(0x40)\n      dup5\n      0xffffffff\n      and\n      0xe0\n      shl\n      dup2\n      mstore\n      0x04\n      add\n      tag_76\n      swap4\n      swap3\n      swap2\n      swap1\n      tag_77\n      jump\t// in\n    tag_76:\n      0x20\n      mload(0x40)\n      dup1\n      dup4\n      sub\n      dup2\n      0x00\n      dup8\n      dup1\n      extcodesize\n      iszero\n      dup1\n      iszero\n      tag_78\n      jumpi\n      0x00\n      dup1\n      revert\n    tag_78:\n      pop\n      gas\n      call\n      iszero\n      dup1\n      iszero\n      tag_80\n      jumpi\n      returndatasize\n      0x00\n      dup1\n      returndatacopy\n      revert(0x00, returndatasize)\n    tag_80:\n      pop\n      pop\n      pop\n      pop\n      mload(0x40)\n      returndatasize\n      not(0x1f)\n      0x1f\n      dup3\n      add\n      and\n      dup3\n      add\n      dup1\n      0x40\n      mstore\n      pop\n      dup2\n      add\n      swap1\n      tag_81\n      swap2\n      swap1\n      tag_71\n      jump\t// in\n    tag_81:\n      pop\n        /* \"Staking/TokenFarm.sol\":1145:1152  _amount */\n      dup1\n        /* \"Staking/TokenFarm.sol\":1115:1129  stakingBalance */\n      0x05\n        /* \"Staking/TokenFarm.sol\":1115:1141  stakingBalance[msg.sender] */\n      0x00\n        /* \"Staking/TokenFarm.sol\":1130:1140  msg.sender */\n      caller\n        /* \"Staking/TokenFarm.sol\":1115:1141  stakingBalance[msg.sender] */\n      0xffffffffffffffffffffffffffffffffffffffff\n      and\n      0xffffffffffffffffffffffffffffffffffffffff\n      and\n      dup2\n      mstore\n      0x20\n      add\n      swap1\n      dup2\n      mstore\n      0x20\n      add\n      0x00\n      keccak256\n      0x00\n        /* \"Staking/TokenFarm.sol\":1115:1152  stakingBalance[msg.sender] += _amount */\n      dup3\n      dup3\n      sload\n      tag_82\n      swap2\n      swap1\n      tag_83\n      jump\t// in\n    tag_82:\n      swap3\n      pop\n      pop\n      dup2\n      swap1\n      sstore\n      pop\n        /* \"Staking/TokenFarm.sol\":1193:1202  hasStaked */\n      0x06\n        /* \"Staking/TokenFarm.sol\":1193:1214  hasStaked[msg.sender] */\n      0x00\n        /* \"Staking/TokenFarm.sol\":1203:1213  msg.sender */\n      caller\n        /* \"Staking/TokenFarm.sol\":1193:1214  hasStaked[msg.sender] */\n      0xffffffffffffffffffffffffffffffffffffffff\n      and\n      0xffffffffffffffffffffffffffffffffffffffff\n      and\n      dup2\n      mstore\n      0x20\n      add\n      swap1\n      dup2\n      mstore\n      0x20\n      add\n      0x00\n      keccak256\n      0x00\n      swap1\n      sload\n      swap1\n      0x0100\n      exp\n      swap1\n      div\n      0xff\n      and\n        /* \"Staking/TokenFarm.sol\":1189:1274  if(!hasStaked[msg.sender]){\r... */\n      tag_84\n      jumpi\n        /* \"Staking/TokenFarm.sol\":1230:1237  stakers */\n      0x04\n        /* \"Staking/TokenFarm.sol\":1243:1253  msg.sender */\n      caller\n        /* \"Staking/TokenFarm.sol\":1230:1254  stakers.push(msg.sender) */\n      swap1\n      dup1\n      0x01\n      dup2\n      sload\n      add\n      dup1\n      dup3\n      sstore\n      dup1\n      swap2\n      pop\n      pop\n      0x01\n      swap1\n      sub\n      swap1\n      0x00\n      mstore\n      keccak256(0x00, 0x20)\n      add\n      0x00\n      swap1\n      swap2\n      swap1\n      swap2\n      swap1\n      swap2\n      0x0100\n      exp\n      dup2\n      sload\n      dup2\n      0xffffffffffffffffffffffffffffffffffffffff\n      mul\n      not\n      and\n      swap1\n      dup4\n      0xffffffffffffffffffffffffffffffffffffffff\n      and\n      mul\n      or\n      swap1\n      sstore\n      pop\n        /* \"Staking/TokenFarm.sol\":1189:1274  if(!hasStaked[msg.sender]){\r... */\n    tag_84:\n        /* \"Staking/TokenFarm.sol\":1353:1357  true */\n      0x01\n        /* \"Staking/TokenFarm.sol\":1329:1338  isStaking */\n      0x07\n        /* \"Staking/TokenFarm.sol\":1329:1350  isStaking[msg.sender] */\n      0x00\n        /* \"Staking/TokenFarm.sol\":1339:1349  msg.sender */\n      caller\n        /* \"Staking/TokenFarm.sol\":1329:1350  isStaking[msg.sender] */\n      0xffffffffffffffffffffffffffffffffffffffff\n      and\n      0xffffffffffffffffffffffffffffffffffffffff\n      and\n      dup2\n      mstore\n      0x20\n      add\n      swap1\n      dup2\n      mstore\n      0x20\n      add\n      0x00\n      keccak256\n      0x00\n        /* \"Staking/TokenFarm.sol\":1329:1357  isStaking[msg.sender] = true */\n      0x0100\n      exp\n      dup2\n      sload\n      dup2\n      0xff\n      mul\n      not\n      and\n      swap1\n      dup4\n      iszero\n      iszero\n      mul\n      or\n      swap1\n      sstore\n      pop\n        /* \"Staking/TokenFarm.sol\":1392:1396  true */\n      0x01\n        /* \"Staking/TokenFarm.sol\":1368:1377  hasStaked */\n      0x06\n        /* \"Staking/TokenFarm.sol\":1368:1389  hasStaked[msg.sender] */\n      0x00\n        /* \"Staking/TokenFarm.sol\":1378:1388  msg.sender */\n      caller\n        /* \"Staking/TokenFarm.sol\":1368:1389  hasStaked[msg.sender] */\n      0xffffffffffffffffffffffffffffffffffffffff\n      and\n      0xffffffffffffffffffffffffffffffffffffffff\n      and\n      dup2\n      mstore\n      0x20\n      add\n      swap1\n      dup2\n      mstore\n      0x20\n      add\n      0x00\n      keccak256\n      0x00\n        /* \"Staking/TokenFarm.sol\":1368:1396  hasStaked[msg.sender] = true */\n      0x0100\n      exp\n      dup2\n      sload\n      dup2\n      0xff\n      mul\n      not\n      and\n      swap1\n      dup4\n      iszero\n      iszero\n      mul\n      or\n      swap1\n      sstore\n      pop\n        /* \"Staking/TokenFarm.sol\":768:1404  function stakenTokens(uint _amount) public {\r... */\n      pop\n      jump\t// out\n        /* \"Staking/TokenFarm.sol\":500:541  mapping(address => bool) public isStaking */\n    tag_36:\n      mstore(0x20, 0x07)\n      dup1\n      0x00\n      mstore\n      keccak256(0x00, 0x40)\n      0x00\n      swap2\n      pop\n      sload\n      swap1\n      0x0100\n      exp\n      swap1\n      div\n      0xff\n      and\n      dup2\n      jump\t// out\n        /* \"Staking/TokenFarm.sol\":239:259  address public Owner */\n    tag_40:\n      0x01\n      0x00\n      swap1\n      sload\n      swap1\n      0x0100\n      exp\n      swap1\n      div\n      0xffffffffffffffffffffffffffffffffffffffff\n      and\n      dup2\n      jump\t// out\n        /* \"Staking/TokenFarm.sol\":452:493  mapping(address => bool) public hasStaked */\n    tag_45:\n      mstore(0x20, 0x06)\n      dup1\n      0x00\n      mstore\n      keccak256(0x00, 0x40)\n      0x00\n      swap2\n      pop\n      sload\n      swap1\n      0x0100\n      exp\n      swap1\n      div\n      0xff\n      and\n      dup2\n      jump\t// out\n        /* \"Staking/TokenFarm.sol\":266:290  JamToken public jamToken */\n    tag_48:\n      0x02\n      0x00\n      swap1\n      sload\n      swap1\n      0x0100\n      exp\n      swap1\n      div\n      0xffffffffffffffffffffffffffffffffffffffff\n      and\n      dup2\n      jump\t// out\n        /* \"Staking/TokenFarm.sol\":367:392  address [] public stakers */\n    tag_53:\n      0x04\n      dup2\n      dup2\n      sload\n      dup2\n      lt\n      tag_86\n      jumpi\n      0x00\n      dup1\n      revert\n    tag_86:\n      swap1\n      0x00\n      mstore\n      keccak256(0x00, 0x20)\n      add\n      0x00\n      swap2\n      pop\n      sload\n      swap1\n      0x0100\n      exp\n      swap1\n      div\n      0xffffffffffffffffffffffffffffffffffffffff\n      and\n      dup2\n      jump\t// out\n        /* \"#utility.yul\":7:146   */\n    tag_89:\n        /* \"#utility.yul\":53:58   */\n      0x00\n        /* \"#utility.yul\":91:97   */\n      dup2\n        /* \"#utility.yul\":78:98   */\n      calldataload\n        /* \"#utility.yul\":69:98   */\n      swap1\n      pop\n        /* \"#utility.yul\":107:140   */\n      tag_91\n        /* \"#utility.yul\":134:139   */\n      dup2\n        /* \"#utility.yul\":107:140   */\n      tag_92\n      jump\t// in\n    tag_91:\n        /* \"#utility.yul\":7:146   */\n      swap3\n      swap2\n      pop\n      pop\n      jump\t// out\n        /* \"#utility.yul\":152:289   */\n    tag_93:\n        /* \"#utility.yul\":206:211   */\n      0x00\n        /* \"#utility.yul\":237:243   */\n      dup2\n        /* \"#utility.yul\":231:244   */\n      mload\n        /* \"#utility.yul\":222:244   */\n      swap1\n      pop\n        /* \"#utility.yul\":253:283   */\n      tag_95\n        /* \"#utility.yul\":277:282   */\n      dup2\n        /* \"#utility.yul\":253:283   */\n      tag_96\n      jump\t// in\n    tag_95:\n        /* \"#utility.yul\":152:289   */\n      swap3\n      swap2\n      pop\n      pop\n      jump\t// out\n        /* \"#utility.yul\":295:434   */\n    tag_97:\n        /* \"#utility.yul\":341:346   */\n      0x00\n        /* \"#utility.yul\":379:385   */\n      dup2\n        /* \"#utility.yul\":366:386   */\n      calldataload\n        /* \"#utility.yul\":357:386   */\n      swap1\n      pop\n        /* \"#utility.yul\":395:428   */\n      tag_99\n        /* \"#utility.yul\":422:427   */\n      dup2\n        /* \"#utility.yul\":395:428   */\n      tag_100\n      jump\t// in\n    tag_99:\n        /* \"#utility.yul\":295:434   */\n      swap3\n      swap2\n      pop\n      pop\n      jump\t// out\n        /* \"#utility.yul\":440:769   */\n    tag_26:\n        /* \"#utility.yul\":499:505   */\n      0x00\n        /* \"#utility.yul\":548:550   */\n      0x20\n        /* \"#utility.yul\":536:545   */\n      dup3\n        /* \"#utility.yul\":527:534   */\n      dup5\n        /* \"#utility.yul\":523:546   */\n      sub\n        /* \"#utility.yul\":519:551   */\n      slt\n        /* \"#utility.yul\":516:635   */\n      iszero\n      tag_102\n      jumpi\n        /* \"#utility.yul\":554:633   */\n      tag_103\n      tag_104\n      jump\t// in\n    tag_103:\n        /* \"#utility.yul\":516:635   */\n    tag_102:\n        /* \"#utility.yul\":674:675   */\n      0x00\n        /* \"#utility.yul\":699:752   */\n      tag_105\n        /* \"#utility.yul\":744:751   */\n      dup5\n        /* \"#utility.yul\":735:741   */\n      dup3\n        /* \"#utility.yul\":724:733   */\n      dup6\n        /* \"#utility.yul\":720:742   */\n      add\n        /* \"#utility.yul\":699:752   */\n      tag_89\n      jump\t// in\n    tag_105:\n        /* \"#utility.yul\":689:752   */\n      swap2\n      pop\n        /* \"#utility.yul\":645:762   */\n      pop\n        /* \"#utility.yul\":440:769   */\n      swap3\n      swap2\n      pop\n      pop\n      jump\t// out\n        /* \"#utility.yul\":775:1120   */\n    tag_71:\n        /* \"#utility.yul\":842:848   */\n      0x00\n        /* \"#utility.yul\":891:893   */\n      0x20\n        /* \"#utility.yul\":879:888   */\n      dup3\n        /* \"#utility.yul\":870:877   */\n      dup5\n        /* \"#utility.yul\":866:889   */\n      sub\n        /* \"#utility.yul\":862:894   */\n      slt\n        /* \"#utility.yul\":859:978   */\n      iszero\n      tag_107\n      jumpi\n        /* \"#utility.yul\":897:976   */\n      tag_108\n      tag_104\n      jump\t// in\n    tag_108:\n        /* \"#utility.yul\":859:978   */\n    tag_107:\n        /* \"#utility.yul\":1017:1018   */\n      0x00\n        /* \"#utility.yul\":1042:1103   */\n      tag_109\n        /* \"#utility.yul\":1095:1102   */\n      dup5\n        /* \"#utility.yul\":1086:1092   */\n      dup3\n        /* \"#utility.yul\":1075:1084   */\n      dup6\n        /* \"#utility.yul\":1071:1093   */\n      add\n        /* \"#utility.yul\":1042:1103   */\n      tag_93\n      jump\t// in\n    tag_109:\n        /* \"#utility.yul\":1032:1103   */\n      swap2\n      pop\n        /* \"#utility.yul\":988:1113   */\n      pop\n        /* \"#utility.yul\":775:1120   */\n      swap3\n      swap2\n      pop\n      pop\n      jump\t// out\n        /* \"#utility.yul\":1126:1455   */\n    tag_32:\n        /* \"#utility.yul\":1185:1191   */\n      0x00\n        /* \"#utility.yul\":1234:1236   */\n      0x20\n        /* \"#utility.yul\":1222:1231   */\n      dup3\n        /* \"#utility.yul\":1213:1220   */\n      dup5\n        /* \"#utility.yul\":1209:1232   */\n      sub\n        /* \"#utility.yul\":1205:1237   */\n      slt\n        /* \"#utility.yul\":1202:1321   */\n      iszero\n      tag_111\n      jumpi\n        /* \"#utility.yul\":1240:1319   */\n      tag_112\n      tag_104\n      jump\t// in\n    tag_112:\n        /* \"#utility.yul\":1202:1321   */\n    tag_111:\n        /* \"#utility.yul\":1360:1361   */\n      0x00\n        /* \"#utility.yul\":1385:1438   */\n      tag_113\n        /* \"#utility.yul\":1430:1437   */\n      dup5\n        /* \"#utility.yul\":1421:1427   */\n      dup3\n        /* \"#utility.yul\":1410:1419   */\n      dup6\n        /* \"#utility.yul\":1406:1428   */\n      add\n        /* \"#utility.yul\":1385:1438   */\n      tag_97\n      jump\t// in\n    tag_113:\n        /* \"#utility.yul\":1375:1438   */\n      swap2\n      pop\n        /* \"#utility.yul\":1331:1448   */\n      pop\n        /* \"#utility.yul\":1126:1455   */\n      swap3\n      swap2\n      pop\n      pop\n      jump\t// out\n        /* \"#utility.yul\":1461:1579   */\n    tag_114:\n        /* \"#utility.yul\":1548:1572   */\n      tag_116\n        /* \"#utility.yul\":1566:1571   */\n      dup2\n        /* \"#utility.yul\":1548:1572   */\n      tag_117\n      jump\t// in\n    tag_116:\n        /* \"#utility.yul\":1543:1546   */\n      dup3\n        /* \"#utility.yul\":1536:1573   */\n      mstore\n        /* \"#utility.yul\":1461:1579   */\n      pop\n      pop\n      jump\t// out\n        /* \"#utility.yul\":1585:1694   */\n    tag_118:\n        /* \"#utility.yul\":1666:1687   */\n      tag_120\n        /* \"#utility.yul\":1681:1686   */\n      dup2\n        /* \"#utility.yul\":1666:1687   */\n      tag_121\n      jump\t// in\n    tag_120:\n        /* \"#utility.yul\":1661:1664   */\n      dup3\n        /* \"#utility.yul\":1654:1688   */\n      mstore\n        /* \"#utility.yul\":1585:1694   */\n      pop\n      pop\n      jump\t// out\n        /* \"#utility.yul\":1700:1863   */\n    tag_122:\n        /* \"#utility.yul\":1803:1856   */\n      tag_124\n        /* \"#utility.yul\":1850:1855   */\n      dup2\n        /* \"#utility.yul\":1803:1856   */\n      tag_125\n      jump\t// in\n    tag_124:\n        /* \"#utility.yul\":1798:1801   */\n      dup3\n        /* \"#utility.yul\":1791:1857   */\n      mstore\n        /* \"#utility.yul\":1700:1863   */\n      pop\n      pop\n      jump\t// out\n        /* \"#utility.yul\":1869:2040   */\n    tag_126:\n        /* \"#utility.yul\":1976:2033   */\n      tag_128\n        /* \"#utility.yul\":2027:2032   */\n      dup2\n        /* \"#utility.yul\":1976:2033   */\n      tag_129\n      jump\t// in\n    tag_128:\n        /* \"#utility.yul\":1971:1974   */\n      dup3\n        /* \"#utility.yul\":1964:2034   */\n      mstore\n        /* \"#utility.yul\":1869:2040   */\n      pop\n      pop\n      jump\t// out\n        /* \"#utility.yul\":2046:2410   */\n    tag_130:\n        /* \"#utility.yul\":2134:2137   */\n      0x00\n        /* \"#utility.yul\":2162:2201   */\n      tag_132\n        /* \"#utility.yul\":2195:2200   */\n      dup3\n        /* \"#utility.yul\":2162:2201   */\n      tag_133\n      jump\t// in\n    tag_132:\n        /* \"#utility.yul\":2217:2288   */\n      tag_134\n        /* \"#utility.yul\":2281:2287   */\n      dup2\n        /* \"#utility.yul\":2276:2279   */\n      dup6\n        /* \"#utility.yul\":2217:2288   */\n      tag_135\n      jump\t// in\n    tag_134:\n        /* \"#utility.yul\":2210:2288   */\n      swap4\n      pop\n        /* \"#utility.yul\":2297:2349   */\n      tag_136\n        /* \"#utility.yul\":2342:2348   */\n      dup2\n        /* \"#utility.yul\":2337:2340   */\n      dup6\n        /* \"#utility.yul\":2330:2334   */\n      0x20\n        /* \"#utility.yul\":2323:2328   */\n      dup7\n        /* \"#utility.yul\":2319:2335   */\n      add\n        /* \"#utility.yul\":2297:2349   */\n      tag_137\n      jump\t// in\n    tag_136:\n        /* \"#utility.yul\":2374:2403   */\n      tag_138\n        /* \"#utility.yul\":2396:2402   */\n      dup2\n        /* \"#utility.yul\":2374:2403   */\n      tag_139\n      jump\t// in\n    tag_138:\n        /* \"#utility.yul\":2369:2372   */\n      dup5\n        /* \"#utility.yul\":2365:2404   */\n      add\n        /* \"#utility.yul\":2358:2404   */\n      swap2\n      pop\n        /* \"#utility.yul\":2138:2410   */\n      pop\n        /* \"#utility.yul\":2046:2410   */\n      swap3\n      swap2\n      pop\n      pop\n      jump\t// out\n        /* \"#utility.yul\":2416:2782   */\n    tag_140:\n        /* \"#utility.yul\":2558:2561   */\n      0x00\n        /* \"#utility.yul\":2579:2646   */\n      tag_142\n        /* \"#utility.yul\":2643:2645   */\n      0x1b\n        /* \"#utility.yul\":2638:2641   */\n      dup4\n        /* \"#utility.yul\":2579:2646   */\n      tag_135\n      jump\t// in\n    tag_142:\n        /* \"#utility.yul\":2572:2646   */\n      swap2\n      pop\n        /* \"#utility.yul\":2655:2748   */\n      tag_143\n        /* \"#utility.yul\":2744:2747   */\n      dup3\n        /* \"#utility.yul\":2655:2748   */\n      tag_144\n      jump\t// in\n    tag_143:\n        /* \"#utility.yul\":2773:2775   */\n      0x20\n        /* \"#utility.yul\":2768:2771   */\n      dup3\n        /* \"#utility.yul\":2764:2776   */\n      add\n        /* \"#utility.yul\":2757:2776   */\n      swap1\n      pop\n        /* \"#utility.yul\":2416:2782   */\n      swap2\n      swap1\n      pop\n      jump\t// out\n        /* \"#utility.yul\":2788:3154   */\n    tag_145:\n        /* \"#utility.yul\":2930:2933   */\n      0x00\n        /* \"#utility.yul\":2951:3018   */\n      tag_147\n        /* \"#utility.yul\":3015:3017   */\n      0x22\n        /* \"#utility.yul\":3010:3013   */\n      dup4\n        /* \"#utility.yul\":2951:3018   */\n      tag_135\n      jump\t// in\n    tag_147:\n        /* \"#utility.yul\":2944:3018   */\n      swap2\n      pop\n        /* \"#utility.yul\":3027:3120   */\n      tag_148\n        /* \"#utility.yul\":3116:3119   */\n      dup3\n        /* \"#utility.yul\":3027:3120   */\n      tag_149\n      jump\t// in\n    tag_148:\n        /* \"#utility.yul\":3145:3147   */\n      0x40\n        /* \"#utility.yul\":3140:3143   */\n      dup3\n        /* \"#utility.yul\":3136:3148   */\n      add\n        /* \"#utility.yul\":3129:3148   */\n      swap1\n      pop\n        /* \"#utility.yul\":2788:3154   */\n      swap2\n      swap1\n      pop\n      jump\t// out\n        /* \"#utility.yul\":3160:3278   */\n    tag_150:\n        /* \"#utility.yul\":3247:3271   */\n      tag_152\n        /* \"#utility.yul\":3265:3270   */\n      dup2\n        /* \"#utility.yul\":3247:3271   */\n      tag_153\n      jump\t// in\n    tag_152:\n        /* \"#utility.yul\":3242:3245   */\n      dup3\n        /* \"#utility.yul\":3235:3272   */\n      mstore\n        /* \"#utility.yul\":3160:3278   */\n      pop\n      pop\n      jump\t// out\n        /* \"#utility.yul\":3284:3506   */\n    tag_42:\n        /* \"#utility.yul\":3377:3381   */\n      0x00\n        /* \"#utility.yul\":3415:3417   */\n      0x20\n        /* \"#utility.yul\":3404:3413   */\n      dup3\n        /* \"#utility.yul\":3400:3418   */\n      add\n        /* \"#utility.yul\":3392:3418   */\n      swap1\n      pop\n        /* \"#utility.yul\":3428:3499   */\n      tag_155\n        /* \"#utility.yul\":3496:3497   */\n      0x00\n        /* \"#utility.yul\":3485:3494   */\n      dup4\n        /* \"#utility.yul\":3481:3498   */\n      add\n        /* \"#utility.yul\":3472:3478   */\n      dup5\n        /* \"#utility.yul\":3428:3499   */\n      tag_114\n      jump\t// in\n    tag_155:\n        /* \"#utility.yul\":3284:3506   */\n      swap3\n      swap2\n      pop\n      pop\n      jump\t// out\n        /* \"#utility.yul\":3512:3954   */\n    tag_77:\n        /* \"#utility.yul\":3661:3665   */\n      0x00\n        /* \"#utility.yul\":3699:3701   */\n      0x60\n        /* \"#utility.yul\":3688:3697   */\n      dup3\n        /* \"#utility.yul\":3684:3702   */\n      add\n        /* \"#utility.yul\":3676:3702   */\n      swap1\n      pop\n        /* \"#utility.yul\":3712:3783   */\n      tag_157\n        /* \"#utility.yul\":3780:3781   */\n      0x00\n        /* \"#utility.yul\":3769:3778   */\n      dup4\n        /* \"#utility.yul\":3765:3782   */\n      add\n        /* \"#utility.yul\":3756:3762   */\n      dup7\n        /* \"#utility.yul\":3712:3783   */\n      tag_114\n      jump\t// in\n    tag_157:\n        /* \"#utility.yul\":3793:3865   */\n      tag_158\n        /* \"#utility.yul\":3861:3863   */\n      0x20\n        /* \"#utility.yul\":3850:3859   */\n      dup4\n        /* \"#utility.yul\":3846:3864   */\n      add\n        /* \"#utility.yul\":3837:3843   */\n      dup6\n        /* \"#utility.yul\":3793:3865   */\n      tag_114\n      jump\t// in\n    tag_158:\n        /* \"#utility.yul\":3875:3947   */\n      tag_159\n        /* \"#utility.yul\":3943:3945   */\n      0x40\n        /* \"#utility.yul\":3932:3941   */\n      dup4\n        /* \"#utility.yul\":3928:3946   */\n      add\n        /* \"#utility.yul\":3919:3925   */\n      dup5\n        /* \"#utility.yul\":3875:3947   */\n      tag_150\n      jump\t// in\n    tag_159:\n        /* \"#utility.yul\":3512:3954   */\n      swap5\n      swap4\n      pop\n      pop\n      pop\n      pop\n      jump\t// out\n        /* \"#utility.yul\":3960:4292   */\n    tag_66:\n        /* \"#utility.yul\":4081:4085   */\n      0x00\n        /* \"#utility.yul\":4119:4121   */\n      0x40\n        /* \"#utility.yul\":4108:4117   */\n      dup3\n        /* \"#utility.yul\":4104:4122   */\n      add\n        /* \"#utility.yul\":4096:4122   */\n      swap1\n      pop\n        /* \"#utility.yul\":4132:4203   */\n      tag_161\n        /* \"#utility.yul\":4200:4201   */\n      0x00\n        /* \"#utility.yul\":4189:4198   */\n      dup4\n        /* \"#utility.yul\":4185:4202   */\n      add\n        /* \"#utility.yul\":4176:4182   */\n      dup6\n        /* \"#utility.yul\":4132:4203   */\n      tag_114\n      jump\t// in\n    tag_161:\n        /* \"#utility.yul\":4213:4285   */\n      tag_162\n        /* \"#utility.yul\":4281:4283   */\n      0x20\n        /* \"#utility.yul\":4270:4279   */\n      dup4\n        /* \"#utility.yul\":4266:4284   */\n      add\n        /* \"#utility.yul\":4257:4263   */\n      dup5\n        /* \"#utility.yul\":4213:4285   */\n      tag_150\n      jump\t// in\n    tag_162:\n        /* \"#utility.yul\":3960:4292   */\n      swap4\n      swap3\n      pop\n      pop\n      pop\n      jump\t// out\n        /* \"#utility.yul\":4298:4508   */\n    tag_38:\n        /* \"#utility.yul\":4385:4389   */\n      0x00\n        /* \"#utility.yul\":4423:4425   */\n      0x20\n        /* \"#utility.yul\":4412:4421   */\n      dup3\n        /* \"#utility.yul\":4408:4426   */\n      add\n        /* \"#utility.yul\":4400:4426   */\n      swap1\n      pop\n        /* \"#utility.yul\":4436:4501   */\n      tag_164\n        /* \"#utility.yul\":4498:4499   */\n      0x00\n        /* \"#utility.yul\":4487:4496   */\n      dup4\n        /* \"#utility.yul\":4483:4500   */\n      add\n        /* \"#utility.yul\":4474:4480   */\n      dup5\n        /* \"#utility.yul\":4436:4501   */\n      tag_118\n      jump\t// in\n    tag_164:\n        /* \"#utility.yul\":4298:4508   */\n      swap3\n      swap2\n      pop\n      pop\n      jump\t// out\n        /* \"#utility.yul\":4514:4768   */\n    tag_50:\n        /* \"#utility.yul\":4623:4627   */\n      0x00\n        /* \"#utility.yul\":4661:4663   */\n      0x20\n        /* \"#utility.yul\":4650:4659   */\n      dup3\n        /* \"#utility.yul\":4646:4664   */\n      add\n        /* \"#utility.yul\":4638:4664   */\n      swap1\n      pop\n        /* \"#utility.yul\":4674:4761   */\n      tag_166\n        /* \"#utility.yul\":4758:4759   */\n      0x00\n        /* \"#utility.yul\":4747:4756   */\n      dup4\n        /* \"#utility.yul\":4743:4760   */\n      add\n        /* \"#utility.yul\":4734:4740   */\n      dup5\n        /* \"#utility.yul\":4674:4761   */\n      tag_122\n      jump\t// in\n    tag_166:\n        /* \"#utility.yul\":4514:4768   */\n      swap3\n      swap2\n      pop\n      pop\n      jump\t// out\n        /* \"#utility.yul\":4774:5036   */\n    tag_21:\n        /* \"#utility.yul\":4887:4891   */\n      0x00\n        /* \"#utility.yul\":4925:4927   */\n      0x20\n        /* \"#utility.yul\":4914:4923   */\n      dup3\n        /* \"#utility.yul\":4910:4928   */\n      add\n        /* \"#utility.yul\":4902:4928   */\n      swap1\n      pop\n        /* \"#utility.yul\":4938:5029   */\n      tag_168\n        /* \"#utility.yul\":5026:5027   */\n      0x00\n        /* \"#utility.yul\":5015:5024   */\n      dup4\n        /* \"#utility.yul\":5011:5028   */\n      add\n        /* \"#utility.yul\":5002:5008   */\n      dup5\n        /* \"#utility.yul\":4938:5029   */\n      tag_126\n      jump\t// in\n    tag_168:\n        /* \"#utility.yul\":4774:5036   */\n      swap3\n      swap2\n      pop\n      pop\n      jump\t// out\n        /* \"#utility.yul\":5042:5355   */\n    tag_17:\n        /* \"#utility.yul\":5155:5159   */\n      0x00\n        /* \"#utility.yul\":5193:5195   */\n      0x20\n        /* \"#utility.yul\":5182:5191   */\n      dup3\n        /* \"#utility.yul\":5178:5196   */\n      add\n        /* \"#utility.yul\":5170:5196   */\n      swap1\n      pop\n        /* \"#utility.yul\":5242:5251   */\n      dup2\n        /* \"#utility.yul\":5236:5240   */\n      dup2\n        /* \"#utility.yul\":5232:5252   */\n      sub\n        /* \"#utility.yul\":5228:5229   */\n      0x00\n        /* \"#utility.yul\":5217:5226   */\n      dup4\n        /* \"#utility.yul\":5213:5230   */\n      add\n        /* \"#utility.yul\":5206:5253   */\n      mstore\n        /* \"#utility.yul\":5270:5348   */\n      tag_170\n        /* \"#utility.yul\":5343:5347   */\n      dup2\n        /* \"#utility.yul\":5334:5340   */\n      dup5\n        /* \"#utility.yul\":5270:5348   */\n      tag_130\n      jump\t// in\n    tag_170:\n        /* \"#utility.yul\":5262:5348   */\n      swap1\n      pop\n        /* \"#utility.yul\":5042:5355   */\n      swap3\n      swap2\n      pop\n      pop\n      jump\t// out\n        /* \"#utility.yul\":5361:5780   */\n    tag_64:\n        /* \"#utility.yul\":5527:5531   */\n      0x00\n        /* \"#utility.yul\":5565:5567   */\n      0x20\n        /* \"#utility.yul\":5554:5563   */\n      dup3\n        /* \"#utility.yul\":5550:5568   */\n      add\n        /* \"#utility.yul\":5542:5568   */\n      swap1\n      pop\n        /* \"#utility.yul\":5614:5623   */\n      dup2\n        /* \"#utility.yul\":5608:5612   */\n      dup2\n        /* \"#utility.yul\":5604:5624   */\n      sub\n        /* \"#utility.yul\":5600:5601   */\n      0x00\n        /* \"#utility.yul\":5589:5598   */\n      dup4\n        /* \"#utility.yul\":5585:5602   */\n      add\n        /* \"#utility.yul\":5578:5625   */\n      mstore\n        /* \"#utility.yul\":5642:5773   */\n      tag_172\n        /* \"#utility.yul\":5768:5772   */\n      dup2\n        /* \"#utility.yul\":5642:5773   */\n      tag_140\n      jump\t// in\n    tag_172:\n        /* \"#utility.yul\":5634:5773   */\n      swap1\n      pop\n        /* \"#utility.yul\":5361:5780   */\n      swap2\n      swap1\n      pop\n      jump\t// out\n        /* \"#utility.yul\":5786:6205   */\n    tag_75:\n        /* \"#utility.yul\":5952:5956   */\n      0x00\n        /* \"#utility.yul\":5990:5992   */\n      0x20\n        /* \"#utility.yul\":5979:5988   */\n      dup3\n        /* \"#utility.yul\":5975:5993   */\n      add\n        /* \"#utility.yul\":5967:5993   */\n      swap1\n      pop\n        /* \"#utility.yul\":6039:6048   */\n      dup2\n        /* \"#utility.yul\":6033:6037   */\n      dup2\n        /* \"#utility.yul\":6029:6049   */\n      sub\n        /* \"#utility.yul\":6025:6026   */\n      0x00\n        /* \"#utility.yul\":6014:6023   */\n      dup4\n        /* \"#utility.yul\":6010:6027   */\n      add\n        /* \"#utility.yul\":6003:6050   */\n      mstore\n        /* \"#utility.yul\":6067:6198   */\n      tag_174\n        /* \"#utility.yul\":6193:6197   */\n      dup2\n        /* \"#utility.yul\":6067:6198   */\n      tag_145\n      jump\t// in\n    tag_174:\n        /* \"#utility.yul\":6059:6198   */\n      swap1\n      pop\n        /* \"#utility.yul\":5786:6205   */\n      swap2\n      swap1\n      pop\n      jump\t// out\n        /* \"#utility.yul\":6211:6433   */\n    tag_29:\n        /* \"#utility.yul\":6304:6308   */\n      0x00\n        /* \"#utility.yul\":6342:6344   */\n      0x20\n        /* \"#utility.yul\":6331:6340   */\n      dup3\n        /* \"#utility.yul\":6327:6345   */\n      add\n        /* \"#utility.yul\":6319:6345   */\n      swap1\n      pop\n        /* \"#utility.yul\":6355:6426   */\n      tag_176\n        /* \"#utility.yul\":6423:6424   */\n      0x00\n        /* \"#utility.yul\":6412:6421   */\n      dup4\n        /* \"#utility.yul\":6408:6425   */\n      add\n        /* \"#utility.yul\":6399:6405   */\n      dup5\n        /* \"#utility.yul\":6355:6426   */\n      tag_150\n      jump\t// in\n    tag_176:\n        /* \"#utility.yul\":6211:6433   */\n      swap3\n      swap2\n      pop\n      pop\n      jump\t// out\n        /* \"#utility.yul\":6520:6619   */\n    tag_133:\n        /* \"#utility.yul\":6572:6578   */\n      0x00\n        /* \"#utility.yul\":6606:6611   */\n      dup2\n        /* \"#utility.yul\":6600:6612   */\n      mload\n        /* \"#utility.yul\":6590:6612   */\n      swap1\n      pop\n        /* \"#utility.yul\":6520:6619   */\n      swap2\n      swap1\n      pop\n      jump\t// out\n        /* \"#utility.yul\":6625:6794   */\n    tag_135:\n        /* \"#utility.yul\":6709:6720   */\n      0x00\n        /* \"#utility.yul\":6743:6749   */\n      dup3\n        /* \"#utility.yul\":6738:6741   */\n      dup3\n        /* \"#utility.yul\":6731:6750   */\n      mstore\n        /* \"#utility.yul\":6783:6787   */\n      0x20\n        /* \"#utility.yul\":6778:6781   */\n      dup3\n        /* \"#utility.yul\":6774:6788   */\n      add\n        /* \"#utility.yul\":6759:6788   */\n      swap1\n      pop\n        /* \"#utility.yul\":6625:6794   */\n      swap3\n      swap2\n      pop\n      pop\n      jump\t// out\n        /* \"#utility.yul\":6800:7105   */\n    tag_83:\n        /* \"#utility.yul\":6840:6843   */\n      0x00\n        /* \"#utility.yul\":6859:6879   */\n      tag_182\n        /* \"#utility.yul\":6877:6878   */\n      dup3\n        /* \"#utility.yul\":6859:6879   */\n      tag_153\n      jump\t// in\n    tag_182:\n        /* \"#utility.yul\":6854:6879   */\n      swap2\n      pop\n        /* \"#utility.yul\":6893:6913   */\n      tag_183\n        /* \"#utility.yul\":6911:6912   */\n      dup4\n        /* \"#utility.yul\":6893:6913   */\n      tag_153\n      jump\t// in\n    tag_183:\n        /* \"#utility.yul\":6888:6913   */\n      swap3\n      pop\n        /* \"#utility.yul\":7047:7048   */\n      dup3\n        /* \"#utility.yul\":6979:7045   */\n      0xffffffffffffffffffffffffffffffffffffffffffffffffffffffffffffffff\n        /* \"#utility.yul\":6975:7049   */\n      sub\n        /* \"#utility.yul\":6972:6973   */\n      dup3\n        /* \"#utility.yul\":6969:7050   */\n      gt\n        /* \"#utility.yul\":6966:7073   */\n      iszero\n      tag_184\n      jumpi\n        /* \"#utility.yul\":7053:7071   */\n      tag_185\n      tag_186\n      jump\t// in\n    tag_185:\n        /* \"#utility.yul\":6966:7073   */\n    tag_184:\n        /* \"#utility.yul\":7097:7098   */\n      dup3\n        /* \"#utility.yul\":7094:7095   */\n      dup3\n        /* \"#utility.yul\":7090:7099   */\n      add\n        /* \"#utility.yul\":7083:7099   */\n      swap1\n      pop\n        /* \"#utility.yul\":6800:7105   */\n      swap3\n      swap2\n      pop\n      pop\n      jump\t// out\n        /* \"#utility.yul\":7111:7207   */\n    tag_117:\n        /* \"#utility.yul\":7148:7155   */\n      0x00\n        /* \"#utility.yul\":7177:7201   */\n      tag_188\n        /* \"#utility.yul\":7195:7200   */\n      dup3\n        /* \"#utility.yul\":7177:7201   */\n      tag_189\n      jump\t// in\n    tag_188:\n        /* \"#utility.yul\":7166:7201   */\n      swap1\n      pop\n        /* \"#utility.yul\":7111:7207   */\n      swap2\n      swap1\n      pop\n      jump\t// out\n        /* \"#utility.yul\":7213:7303   */\n    tag_121:\n        /* \"#utility.yul\":7247:7254   */\n      0x00\n        /* \"#utility.yul\":7290:7295   */\n      dup2\n        /* \"#utility.yul\":7283:7296   */\n      iszero\n        /* \"#utility.yul\":7276:7297   */\n      iszero\n        /* \"#utility.yul\":7265:7297   */\n      swap1\n      pop\n        /* \"#utility.yul\":7213:7303   */\n      swap2\n      swap1\n      pop\n      jump\t// out\n        /* \"#utility.yul\":7309:7435   */\n    tag_189:\n        /* \"#utility.yul\":7346:7353   */\n      0x00\n        /* \"#utility.yul\":7386:7428   */\n      0xffffffffffffffffffffffffffffffffffffffff\n        /* \"#utility.yul\":7379:7384   */\n      dup3\n        /* \"#utility.yul\":7375:7429   */\n      and\n        /* \"#utility.yul\":7364:7429   */\n      swap1\n      pop\n        /* \"#utility.yul\":7309:7435   */\n      swap2\n      swap1\n      pop\n      jump\t// out\n        /* \"#utility.yul\":7441:7518   */\n    tag_153:\n        /* \"#utility.yul\":7478:7485   */\n      0x00\n        /* \"#utility.yul\":7507:7512   */\n      dup2\n        /* \"#utility.yul\":7496:7512   */\n      swap1\n      pop\n        /* \"#utility.yul\":7441:7518   */\n      swap2\n      swap1\n      pop\n      jump\t// out\n        /* \"#utility.yul\":7524:7666   */\n    tag_125:\n        /* \"#utility.yul\":7590:7599   */\n      0x00\n        /* \"#utility.yul\":7623:7660   */\n      tag_194\n        /* \"#utility.yul\":7654:7659   */\n      dup3\n        /* \"#utility.yul\":7623:7660   */\n      tag_195\n      jump\t// in\n    tag_194:\n        /* \"#utility.yul\":7610:7660   */\n      swap1\n      pop\n        /* \"#utility.yul\":7524:7666   */\n      swap2\n      swap1\n      pop\n      jump\t// out\n        /* \"#utility.yul\":7672:7818   */\n    tag_129:\n        /* \"#utility.yul\":7742:7751   */\n      0x00\n        /* \"#utility.yul\":7775:7812   */\n      tag_197\n        /* \"#utility.yul\":7806:7811   */\n      dup3\n        /* \"#utility.yul\":7775:7812   */\n      tag_195\n      jump\t// in\n    tag_197:\n        /* \"#utility.yul\":7762:7812   */\n      swap1\n      pop\n        /* \"#utility.yul\":7672:7818   */\n      swap2\n      swap1\n      pop\n      jump\t// out\n        /* \"#utility.yul\":7824:7950   */\n    tag_195:\n        /* \"#utility.yul\":7874:7883   */\n      0x00\n        /* \"#utility.yul\":7907:7944   */\n      tag_199\n        /* \"#utility.yul\":7938:7943   */\n      dup3\n        /* \"#utility.yul\":7907:7944   */\n      tag_200\n      jump\t// in\n    tag_199:\n        /* \"#utility.yul\":7894:7944   */\n      swap1\n      pop\n        /* \"#utility.yul\":7824:7950   */\n      swap2\n      swap1\n      pop\n      jump\t// out\n        /* \"#utility.yul\":7956:8069   */\n    tag_200:\n        /* \"#utility.yul\":8006:8015   */\n      0x00\n        /* \"#utility.yul\":8039:8063   */\n      tag_202\n        /* \"#utility.yul\":8057:8062   */\n      dup3\n        /* \"#utility.yul\":8039:8063   */\n      tag_189\n      jump\t// in\n    tag_202:\n        /* \"#utility.yul\":8026:8063   */\n      swap1\n      pop\n        /* \"#utility.yul\":7956:8069   */\n      swap2\n      swap1\n      pop\n      jump\t// out\n        /* \"#utility.yul\":8075:8382   */\n    tag_137:\n        /* \"#utility.yul\":8143:8144   */\n      0x00\n        /* \"#utility.yul\":8153:8266   */\n    tag_204:\n        /* \"#utility.yul\":8167:8173   */\n      dup4\n        /* \"#utility.yul\":8164:8165   */\n      dup2\n        /* \"#utility.yul\":8161:8174   */\n      lt\n        /* \"#utility.yul\":8153:8266   */\n      iszero\n      tag_206\n      jumpi\n        /* \"#utility.yul\":8252:8253   */\n      dup1\n        /* \"#utility.yul\":8247:8250   */\n      dup3\n        /* \"#utility.yul\":8243:8254   */\n      add\n        /* \"#utility.yul\":8237:8255   */\n      mload\n        /* \"#utility.yul\":8233:8234   */\n      dup2\n        /* \"#utility.yul\":8228:8231   */\n      dup5\n        /* \"#utility.yul\":8224:8235   */\n      add\n        /* \"#utility.yul\":8217:8256   */\n      mstore\n        /* \"#utility.yul\":8189:8191   */\n      0x20\n        /* \"#utility.yul\":8186:8187   */\n      dup2\n        /* \"#utility.yul\":8182:8192   */\n      add\n        /* \"#utility.yul\":8177:8192   */\n      swap1\n      pop\n        /* \"#utility.yul\":8153:8266   */\n      jump(tag_204)\n    tag_206:\n        /* \"#utility.yul\":8284:8290   */\n      dup4\n        /* \"#utility.yul\":8281:8282   */\n      dup2\n        /* \"#utility.yul\":8278:8291   */\n      gt\n        /* \"#utility.yul\":8275:8376   */\n      iszero\n      tag_207\n      jumpi\n        /* \"#utility.yul\":8364:8365   */\n      0x00\n        /* \"#utility.yul\":8355:8361   */\n      dup5\n        /* \"#utility.yul\":8350:8353   */\n      dup5\n        /* \"#utility.yul\":8346:8362   */\n      add\n        /* \"#utility.yul\":8339:8366   */\n      mstore\n        /* \"#utility.yul\":8275:8376   */\n    tag_207:\n        /* \"#utility.yul\":8124:8382   */\n      pop\n        /* \"#utility.yul\":8075:8382   */\n      pop\n      pop\n      pop\n      jump\t// out\n        /* \"#utility.yul\":8388:8708   */\n    tag_56:\n        /* \"#utility.yul\":8432:8438   */\n      0x00\n        /* \"#utility.yul\":8469:8470   */\n      0x02\n        /* \"#utility.yul\":8463:8467   */\n      dup3\n        /* \"#utility.yul\":8459:8471   */\n      div\n        /* \"#utility.yul\":8449:8471   */\n      swap1\n      pop\n        /* \"#utility.yul\":8516:8517   */\n      0x01\n        /* \"#utility.yul\":8510:8514   */\n      dup3\n        /* \"#utility.yul\":8506:8518   */\n      and\n        /* \"#utility.yul\":8537:8555   */\n      dup1\n        /* \"#utility.yul\":8527:8608   */\n      tag_209\n      jumpi\n        /* \"#utility.yul\":8593:8597   */\n      0x7f\n        /* \"#utility.yul\":8585:8591   */\n      dup3\n        /* \"#utility.yul\":8581:8598   */\n      and\n        /* \"#utility.yul\":8571:8598   */\n      swap2\n      pop\n        /* \"#utility.yul\":8527:8608   */\n    tag_209:\n        /* \"#utility.yul\":8655:8657   */\n      0x20\n        /* \"#utility.yul\":8647:8653   */\n      dup3\n        /* \"#utility.yul\":8644:8658   */\n      lt\n        /* \"#utility.yul\":8624:8642   */\n      dup2\n        /* \"#utility.yul\":8621:8659   */\n      eq\n        /* \"#utility.yul\":8618:8702   */\n      iszero\n      tag_210\n      jumpi\n        /* \"#utility.yul\":8674:8692   */\n      tag_211\n      tag_212\n      jump\t// in\n    tag_211:\n        /* \"#utility.yul\":8618:8702   */\n    tag_210:\n        /* \"#utility.yul\":8439:8708   */\n      pop\n        /* \"#utility.yul\":8388:8708   */\n      swap2\n      swap1\n      pop\n      jump\t// out\n        /* \"#utility.yul\":8714:8894   */\n    tag_186:\n        /* \"#utility.yul\":8762:8839   */\n      0x4e487b7100000000000000000000000000000000000000000000000000000000\n        /* \"#utility.yul\":8759:8760   */\n      0x00\n        /* \"#utility.yul\":8752:8840   */\n      mstore\n        /* \"#utility.yul\":8859:8863   */\n      0x11\n        /* \"#utility.yul\":8856:8857   */\n      0x04\n        /* \"#utility.yul\":8849:8864   */\n      mstore\n        /* \"#utility.yul\":8883:8887   */\n      0x24\n        /* \"#utility.yul\":8880:8881   */\n      0x00\n        /* \"#utility.yul\":8873:8888   */\n      revert\n        /* \"#utility.yul\":8900:9080   */\n    tag_212:\n        /* \"#utility.yul\":8948:9025   */\n      0x4e487b7100000000000000000000000000000000000000000000000000000000\n        /* \"#utility.yul\":8945:8946   */\n      0x00\n        /* \"#utility.yul\":8938:9026   */\n      mstore\n        /* \"#utility.yul\":9045:9049   */\n      0x22\n        /* \"#utility.yul\":9042:9043   */\n      0x04\n        /* \"#utility.yul\":9035:9050   */\n      mstore\n        /* \"#utility.yul\":9069:9073   */\n      0x24\n        /* \"#utility.yul\":9066:9067   */\n      0x00\n        /* \"#utility.yul\":9059:9074   */\n      revert\n        /* \"#utility.yul\":9209:9326   */\n    tag_104:\n        /* \"#utility.yul\":9318:9319   */\n      0x00\n        /* \"#utility.yul\":9315:9316   */\n      dup1\n        /* \"#utility.yul\":9308:9320   */\n      revert\n        /* \"#utility.yul\":9332:9434   */\n    tag_139:\n        /* \"#utility.yul\":9373:9379   */\n      0x00\n        /* \"#utility.yul\":9424:9426   */\n      0x1f\n        /* \"#utility.yul\":9420:9427   */\n      not\n        /* \"#utility.yul\":9415:9417   */\n      0x1f\n        /* \"#utility.yul\":9408:9413   */\n      dup4\n        /* \"#utility.yul\":9404:9418   */\n      add\n        /* \"#utility.yul\":9400:9428   */\n      and\n        /* \"#utility.yul\":9390:9428   */\n      swap1\n      pop\n        /* \"#utility.yul\":9332:9434   */\n      swap2\n      swap1\n      pop\n      jump\t// out\n        /* \"#utility.yul\":9440:9617   */\n    tag_144:\n        /* \"#utility.yul\":9580:9609   */\n      0x456c2062616c616e63652064656c207374616b696e6720657320300000000000\n        /* \"#utility.yul\":9576:9577   */\n      0x00\n        /* \"#utility.yul\":9568:9574   */\n      dup3\n        /* \"#utility.yul\":9564:9578   */\n      add\n        /* \"#utility.yul\":9557:9610   */\n      mstore\n        /* \"#utility.yul\":9440:9617   */\n      pop\n      jump\t// out\n        /* \"#utility.yul\":9623:9844   */\n    tag_149:\n        /* \"#utility.yul\":9763:9797   */\n      0x4c612063616e7469646164206e6f20707565646520736572206d656e6f722061\n        /* \"#utility.yul\":9759:9760   */\n      0x00\n        /* \"#utility.yul\":9751:9757   */\n      dup3\n        /* \"#utility.yul\":9747:9761   */\n      add\n        /* \"#utility.yul\":9740:9798   */\n      mstore\n        /* \"#utility.yul\":9832:9836   */\n      0x2030000000000000000000000000000000000000000000000000000000000000\n        /* \"#utility.yul\":9827:9829   */\n      0x20\n        /* \"#utility.yul\":9819:9825   */\n      dup3\n        /* \"#utility.yul\":9815:9830   */\n      add\n        /* \"#utility.yul\":9808:9837   */\n      mstore\n        /* \"#utility.yul\":9623:9844   */\n      pop\n      jump\t// out\n        /* \"#utility.yul\":9850:9972   */\n    tag_92:\n        /* \"#utility.yul\":9923:9947   */\n      tag_222\n        /* \"#utility.yul\":9941:9946   */\n      dup2\n        /* \"#utility.yul\":9923:9947   */\n      tag_117\n      jump\t// in\n    tag_222:\n        /* \"#utility.yul\":9916:9921   */\n      dup2\n        /* \"#utility.yul\":9913:9948   */\n      eq\n        /* \"#utility.yul\":9903:9966   */\n      tag_223\n      jumpi\n        /* \"#utility.yul\":9962:9963   */\n      0x00\n        /* \"#utility.yul\":9959:9960   */\n      dup1\n        /* \"#utility.yul\":9952:9964   */\n      revert\n        /* \"#utility.yul\":9903:9966   */\n    tag_223:\n        /* \"#utility.yul\":9850:9972   */\n      pop\n      jump\t// out\n        /* \"#utility.yul\":9978:10094   */\n    tag_96:\n        /* \"#utility.yul\":10048:10069   */\n      tag_225\n        /* \"#utility.yul\":10063:10068   */\n      dup2\n        /* \"#utility.yul\":10048:10069   */\n      tag_121\n      jump\t// in\n    tag_225:\n        /* \"#utility.yul\":10041:10046   */\n      dup2\n        /* \"#utility.yul\":10038:10070   */\n      eq\n        /* \"#utility.yul\":10028:10088   */\n      tag_226\n      jumpi\n        /* \"#utility.yul\":10084:10085   */\n      0x00\n        /* \"#utility.yul\":10081:10082   */\n      dup1\n        /* \"#utility.yul\":10074:10086   */\n      revert\n        /* \"#utility.yul\":10028:10088   */\n    tag_226:\n        /* \"#utility.yul\":9978:10094   */\n      pop\n      jump\t// out\n        /* \"#utility.yul\":10100:10222   */\n    tag_100:\n        /* \"#utility.yul\":10173:10197   */\n      tag_228\n        /* \"#utility.yul\":10191:10196   */\n      dup2\n        /* \"#utility.yul\":10173:10197   */\n      tag_153\n      jump\t// in\n    tag_228:\n        /* \"#utility.yul\":10166:10171   */\n      dup2\n        /* \"#utility.yul\":10163:10198   */\n      eq\n        /* \"#utility.yul\":10153:10216   */\n      tag_229\n      jumpi\n        /* \"#utility.yul\":10212:10213   */\n      0x00\n        /* \"#utility.yul\":10209:10210   */\n      dup1\n        /* \"#utility.yul\":10202:10214   */\n      revert\n        /* \"#utility.yul\":10153:10216   */\n    tag_229:\n        /* \"#utility.yul\":10100:10222   */\n      pop\n      jump\t// out\n\n    auxdata: 0xa264697066735822122092f30c8348d75f992136ef45e53264f474f2f022bfda0a08b07cab441454698464736f6c63430008070033\n}\n",
				"bytecode": {
					"linkReferences": {},
					"object": "60806040526040518060400160405280601281526020017f5374656c6c617220546f6b656e204672616d0000000000000000000000000000815250600090805190602001906200005192919062000150565b503480156200005f57600080fd5b50604051620010f0380380620010f083398181016040528101906200008591906200022e565b81600360006101000a81548173ffffffffffffffffffffffffffffffffffffffff021916908373ffffffffffffffffffffffffffffffffffffffff16021790555080600260006101000a81548173ffffffffffffffffffffffffffffffffffffffff021916908373ffffffffffffffffffffffffffffffffffffffff16021790555033600160006101000a81548173ffffffffffffffffffffffffffffffffffffffff021916908373ffffffffffffffffffffffffffffffffffffffff16021790555050506200036f565b8280546200015e90620002d1565b90600052602060002090601f016020900481019282620001825760008555620001ce565b82601f106200019d57805160ff1916838001178555620001ce565b82800160010185558215620001ce579182015b82811115620001cd578251825591602001919060010190620001b0565b5b509050620001dd9190620001e1565b5090565b5b80821115620001fc576000816000905550600101620001e2565b5090565b60008151905062000211816200033b565b92915050565b600081519050620002288162000355565b92915050565b6000806040838503121562000248576200024762000336565b5b6000620002588582860162000217565b92505060206200026b8582860162000200565b9150509250929050565b60006200028282620002b1565b9050919050565b6000620002968262000275565b9050919050565b6000620002aa8262000275565b9050919050565b600073ffffffffffffffffffffffffffffffffffffffff82169050919050565b60006002820490506001821680620002ea57607f821691505b6020821081141562000301576200030062000307565b5b50919050565b7f4e487b7100000000000000000000000000000000000000000000000000000000600052602260045260246000fd5b600080fd5b620003468162000289565b81146200035257600080fd5b50565b62000360816200029d565b81146200036c57600080fd5b50565b610d71806200037f6000396000f3fe608060405234801561001057600080fd5b506004361061009e5760003560e01c80636f49712b116100665780636f49712b14610135578063b4a99a4e14610165578063c93c8f3414610183578063f416d760146101b3578063fd5e6dd1146101d15761009e565b806306fdde03146100a35780630f141533146100c157806320eb640c146100df57806345bc78ab146100e95780636e9e282214610119575b600080fd5b6100ab610201565b6040516100b89190610a26565b60405180910390f35b6100c961028f565b6040516100d69190610a0b565b60405180910390f35b6100e76102b5565b005b61010360048036038101906100fe9190610809565b610434565b6040516101109190610a88565b60405180910390f35b610133600480360381019061012e9190610863565b61044c565b005b61014f600480360381019061014a9190610809565b6106ff565b60405161015c91906109d5565b60405180910390f35b61016d61071f565b60405161017a919061095a565b60405180910390f35b61019d60048036038101906101989190610809565b610745565b6040516101aa91906109d5565b60405180910390f35b6101bb610765565b6040516101c891906109f0565b60405180910390f35b6101eb60048036038101906101e69190610863565b61078b565b6040516101f8919061095a565b60405180910390f35b6000805461020e90610bd8565b80601f016020809104026020016040519081016040528092919081815260200182805461023a90610bd8565b80156102875780601f1061025c57610100808354040283529160200191610287565b820191906000526020600020905b81548152906001019060200180831161026a57829003601f168201915b505050505081565b600360009054906101000a900473ffffffffffffffffffffffffffffffffffffffff1681565b6000600560003373ffffffffffffffffffffffffffffffffffffffff1673ffffffffffffffffffffffffffffffffffffffff1681526020019081526020016000205490506000811161033c576040517f08c379a000000000000000000000000000000000000000000000000000000000815260040161033390610a48565b60405180910390fd5b600260009054906101000a900473ffffffffffffffffffffffffffffffffffffffff1673ffffffffffffffffffffffffffffffffffffffff1663a9059cbb33836040518363ffffffff1660e01b81526004016103999291906109ac565b602060405180830381600087803b1580156103b357600080fd5b505af11580156103c7573d6000803e3d6000fd5b505050506040513d601f19601f820116820180604052508101906103eb9190610836565b506000600560003373ffffffffffffffffffffffffffffffffffffffff1673ffffffffffffffffffffffffffffffffffffffff1681526020019081526020016000208190555050565b60056020528060005260406000206000915090505481565b6000811061048f576040517f08c379a000000000000000000000000000000000000000000000000000000000815260040161048690610a68565b60405180910390fd5b600260009054906101000a900473ffffffffffffffffffffffffffffffffffffffff1673ffffffffffffffffffffffffffffffffffffffff166323b872dd3330846040518463ffffffff1660e01b81526004016104ee93929190610975565b602060405180830381600087803b15801561050857600080fd5b505af115801561051c573d6000803e3d6000fd5b505050506040513d601f19601f820116820180604052508101906105409190610836565b5080600560003373ffffffffffffffffffffffffffffffffffffffff1673ffffffffffffffffffffffffffffffffffffffff16815260200190815260200160002060008282546105909190610abf565b92505081905550600660003373ffffffffffffffffffffffffffffffffffffffff1673ffffffffffffffffffffffffffffffffffffffff16815260200190815260200160002060009054906101000a900460ff1661064c576004339080600181540180825580915050600190039060005260206000200160009091909190916101000a81548173ffffffffffffffffffffffffffffffffffffffff021916908373ffffffffffffffffffffffffffffffffffffffff1602179055505b6001600760003373ffffffffffffffffffffffffffffffffffffffff1673ffffffffffffffffffffffffffffffffffffffff16815260200190815260200160002060006101000a81548160ff0219169083151502179055506001600660003373ffffffffffffffffffffffffffffffffffffffff1673ffffffffffffffffffffffffffffffffffffffff16815260200190815260200160002060006101000a81548160ff02191690831515021790555050565b60076020528060005260406000206000915054906101000a900460ff1681565b600160009054906101000a900473ffffffffffffffffffffffffffffffffffffffff1681565b60066020528060005260406000206000915054906101000a900460ff1681565b600260009054906101000a900473ffffffffffffffffffffffffffffffffffffffff1681565b6004818154811061079b57600080fd5b906000526020600020016000915054906101000a900473ffffffffffffffffffffffffffffffffffffffff1681565b6000813590506107d981610cf6565b92915050565b6000815190506107ee81610d0d565b92915050565b60008135905061080381610d24565b92915050565b60006020828403121561081f5761081e610c68565b5b600061082d848285016107ca565b91505092915050565b60006020828403121561084c5761084b610c68565b5b600061085a848285016107df565b91505092915050565b60006020828403121561087957610878610c68565b5b6000610887848285016107f4565b91505092915050565b61089981610b15565b82525050565b6108a881610b27565b82525050565b6108b781610b5d565b82525050565b6108c681610b6f565b82525050565b60006108d782610aa3565b6108e18185610aae565b93506108f1818560208601610ba5565b6108fa81610c6d565b840191505092915050565b6000610912601b83610aae565b915061091d82610c7e565b602082019050919050565b6000610935602283610aae565b915061094082610ca7565b604082019050919050565b61095481610b53565b82525050565b600060208201905061096f6000830184610890565b92915050565b600060608201905061098a6000830186610890565b6109976020830185610890565b6109a4604083018461094b565b949350505050565b60006040820190506109c16000830185610890565b6109ce602083018461094b565b9392505050565b60006020820190506109ea600083018461089f565b92915050565b6000602082019050610a0560008301846108ae565b92915050565b6000602082019050610a2060008301846108bd565b92915050565b60006020820190508181036000830152610a4081846108cc565b905092915050565b60006020820190508181036000830152610a6181610905565b9050919050565b60006020820190508181036000830152610a8181610928565b9050919050565b6000602082019050610a9d600083018461094b565b92915050565b600081519050919050565b600082825260208201905092915050565b6000610aca82610b53565b9150610ad583610b53565b9250827fffffffffffffffffffffffffffffffffffffffffffffffffffffffffffffffff03821115610b0a57610b09610c0a565b5b828201905092915050565b6000610b2082610b33565b9050919050565b60008115159050919050565b600073ffffffffffffffffffffffffffffffffffffffff82169050919050565b6000819050919050565b6000610b6882610b81565b9050919050565b6000610b7a82610b81565b9050919050565b6000610b8c82610b93565b9050919050565b6000610b9e82610b33565b9050919050565b60005b83811015610bc3578082015181840152602081019050610ba8565b83811115610bd2576000848401525b50505050565b60006002820490506001821680610bf057607f821691505b60208210811415610c0457610c03610c39565b5b50919050565b7f4e487b7100000000000000000000000000000000000000000000000000000000600052601160045260246000fd5b7f4e487b7100000000000000000000000000000000000000000000000000000000600052602260045260246000fd5b600080fd5b6000601f19601f8301169050919050565b7f456c2062616c616e63652064656c207374616b696e6720657320300000000000600082015250565b7f4c612063616e7469646164206e6f20707565646520736572206d656e6f72206160008201527f2030000000000000000000000000000000000000000000000000000000000000602082015250565b610cff81610b15565b8114610d0a57600080fd5b50565b610d1681610b27565b8114610d2157600080fd5b50565b610d2d81610b53565b8114610d3857600080fd5b5056fea264697066735822122092f30c8348d75f992136ef45e53264f474f2f022bfda0a08b07cab441454698464736f6c63430008070033",
					"opcodes": "PUSH1 0x80 PUSH1 0x40 MSTORE PUSH1 0x40 MLOAD DUP1 PUSH1 0x40 ADD PUSH1 0x40 MSTORE DUP1 PUSH1 0x12 DUP2 MSTORE PUSH1 0x20 ADD PUSH32 0x5374656C6C617220546F6B656E204672616D0000000000000000000000000000 DUP2 MSTORE POP PUSH1 0x0 SWAP1 DUP1 MLOAD SWAP1 PUSH1 0x20 ADD SWAP1 PUSH3 0x51 SWAP3 SWAP2 SWAP1 PUSH3 0x150 JUMP JUMPDEST POP CALLVALUE DUP1 ISZERO PUSH3 0x5F JUMPI PUSH1 0x0 DUP1 REVERT JUMPDEST POP PUSH1 0x40 MLOAD PUSH3 0x10F0 CODESIZE SUB DUP1 PUSH3 0x10F0 DUP4 CODECOPY DUP2 DUP2 ADD PUSH1 0x40 MSTORE DUP2 ADD SWAP1 PUSH3 0x85 SWAP2 SWAP1 PUSH3 0x22E JUMP JUMPDEST DUP2 PUSH1 0x3 PUSH1 0x0 PUSH2 0x100 EXP DUP2 SLOAD DUP2 PUSH20 0xFFFFFFFFFFFFFFFFFFFFFFFFFFFFFFFFFFFFFFFF MUL NOT AND SWAP1 DUP4 PUSH20 0xFFFFFFFFFFFFFFFFFFFFFFFFFFFFFFFFFFFFFFFF AND MUL OR SWAP1 SSTORE POP DUP1 PUSH1 0x2 PUSH1 0x0 PUSH2 0x100 EXP DUP2 SLOAD DUP2 PUSH20 0xFFFFFFFFFFFFFFFFFFFFFFFFFFFFFFFFFFFFFFFF MUL NOT AND SWAP1 DUP4 PUSH20 0xFFFFFFFFFFFFFFFFFFFFFFFFFFFFFFFFFFFFFFFF AND MUL OR SWAP1 SSTORE POP CALLER PUSH1 0x1 PUSH1 0x0 PUSH2 0x100 EXP DUP2 SLOAD DUP2 PUSH20 0xFFFFFFFFFFFFFFFFFFFFFFFFFFFFFFFFFFFFFFFF MUL NOT AND SWAP1 DUP4 PUSH20 0xFFFFFFFFFFFFFFFFFFFFFFFFFFFFFFFFFFFFFFFF AND MUL OR SWAP1 SSTORE POP POP POP PUSH3 0x36F JUMP JUMPDEST DUP3 DUP1 SLOAD PUSH3 0x15E SWAP1 PUSH3 0x2D1 JUMP JUMPDEST SWAP1 PUSH1 0x0 MSTORE PUSH1 0x20 PUSH1 0x0 KECCAK256 SWAP1 PUSH1 0x1F ADD PUSH1 0x20 SWAP1 DIV DUP2 ADD SWAP3 DUP3 PUSH3 0x182 JUMPI PUSH1 0x0 DUP6 SSTORE PUSH3 0x1CE JUMP JUMPDEST DUP3 PUSH1 0x1F LT PUSH3 0x19D JUMPI DUP1 MLOAD PUSH1 0xFF NOT AND DUP4 DUP1 ADD OR DUP6 SSTORE PUSH3 0x1CE JUMP JUMPDEST DUP3 DUP1 ADD PUSH1 0x1 ADD DUP6 SSTORE DUP3 ISZERO PUSH3 0x1CE JUMPI SWAP2 DUP3 ADD JUMPDEST DUP3 DUP2 GT ISZERO PUSH3 0x1CD JUMPI DUP3 MLOAD DUP3 SSTORE SWAP2 PUSH1 0x20 ADD SWAP2 SWAP1 PUSH1 0x1 ADD SWAP1 PUSH3 0x1B0 JUMP JUMPDEST JUMPDEST POP SWAP1 POP PUSH3 0x1DD SWAP2 SWAP1 PUSH3 0x1E1 JUMP JUMPDEST POP SWAP1 JUMP JUMPDEST JUMPDEST DUP1 DUP3 GT ISZERO PUSH3 0x1FC JUMPI PUSH1 0x0 DUP2 PUSH1 0x0 SWAP1 SSTORE POP PUSH1 0x1 ADD PUSH3 0x1E2 JUMP JUMPDEST POP SWAP1 JUMP JUMPDEST PUSH1 0x0 DUP2 MLOAD SWAP1 POP PUSH3 0x211 DUP2 PUSH3 0x33B JUMP JUMPDEST SWAP3 SWAP2 POP POP JUMP JUMPDEST PUSH1 0x0 DUP2 MLOAD SWAP1 POP PUSH3 0x228 DUP2 PUSH3 0x355 JUMP JUMPDEST SWAP3 SWAP2 POP POP JUMP JUMPDEST PUSH1 0x0 DUP1 PUSH1 0x40 DUP4 DUP6 SUB SLT ISZERO PUSH3 0x248 JUMPI PUSH3 0x247 PUSH3 0x336 JUMP JUMPDEST JUMPDEST PUSH1 0x0 PUSH3 0x258 DUP6 DUP3 DUP7 ADD PUSH3 0x217 JUMP JUMPDEST SWAP3 POP POP PUSH1 0x20 PUSH3 0x26B DUP6 DUP3 DUP7 ADD PUSH3 0x200 JUMP JUMPDEST SWAP2 POP POP SWAP3 POP SWAP3 SWAP1 POP JUMP JUMPDEST PUSH1 0x0 PUSH3 0x282 DUP3 PUSH3 0x2B1 JUMP JUMPDEST SWAP1 POP SWAP2 SWAP1 POP JUMP JUMPDEST PUSH1 0x0 PUSH3 0x296 DUP3 PUSH3 0x275 JUMP JUMPDEST SWAP1 POP SWAP2 SWAP1 POP JUMP JUMPDEST PUSH1 0x0 PUSH3 0x2AA DUP3 PUSH3 0x275 JUMP JUMPDEST SWAP1 POP SWAP2 SWAP1 POP JUMP JUMPDEST PUSH1 0x0 PUSH20 0xFFFFFFFFFFFFFFFFFFFFFFFFFFFFFFFFFFFFFFFF DUP3 AND SWAP1 POP SWAP2 SWAP1 POP JUMP JUMPDEST PUSH1 0x0 PUSH1 0x2 DUP3 DIV SWAP1 POP PUSH1 0x1 DUP3 AND DUP1 PUSH3 0x2EA JUMPI PUSH1 0x7F DUP3 AND SWAP2 POP JUMPDEST PUSH1 0x20 DUP3 LT DUP2 EQ ISZERO PUSH3 0x301 JUMPI PUSH3 0x300 PUSH3 0x307 JUMP JUMPDEST JUMPDEST POP SWAP2 SWAP1 POP JUMP JUMPDEST PUSH32 0x4E487B7100000000000000000000000000000000000000000000000000000000 PUSH1 0x0 MSTORE PUSH1 0x22 PUSH1 0x4 MSTORE PUSH1 0x24 PUSH1 0x0 REVERT JUMPDEST PUSH1 0x0 DUP1 REVERT JUMPDEST PUSH3 0x346 DUP2 PUSH3 0x289 JUMP JUMPDEST DUP2 EQ PUSH3 0x352 JUMPI PUSH1 0x0 DUP1 REVERT JUMPDEST POP JUMP JUMPDEST PUSH3 0x360 DUP2 PUSH3 0x29D JUMP JUMPDEST DUP2 EQ PUSH3 0x36C JUMPI PUSH1 0x0 DUP1 REVERT JUMPDEST POP JUMP JUMPDEST PUSH2 0xD71 DUP1 PUSH3 0x37F PUSH1 0x0 CODECOPY PUSH1 0x0 RETURN INVALID PUSH1 0x80 PUSH1 0x40 MSTORE CALLVALUE DUP1 ISZERO PUSH2 0x10 JUMPI PUSH1 0x0 DUP1 REVERT JUMPDEST POP PUSH1 0x4 CALLDATASIZE LT PUSH2 0x9E JUMPI PUSH1 0x0 CALLDATALOAD PUSH1 0xE0 SHR DUP1 PUSH4 0x6F49712B GT PUSH2 0x66 JUMPI DUP1 PUSH4 0x6F49712B EQ PUSH2 0x135 JUMPI DUP1 PUSH4 0xB4A99A4E EQ PUSH2 0x165 JUMPI DUP1 PUSH4 0xC93C8F34 EQ PUSH2 0x183 JUMPI DUP1 PUSH4 0xF416D760 EQ PUSH2 0x1B3 JUMPI DUP1 PUSH4 0xFD5E6DD1 EQ PUSH2 0x1D1 JUMPI PUSH2 0x9E JUMP JUMPDEST DUP1 PUSH4 0x6FDDE03 EQ PUSH2 0xA3 JUMPI DUP1 PUSH4 0xF141533 EQ PUSH2 0xC1 JUMPI DUP1 PUSH4 0x20EB640C EQ PUSH2 0xDF JUMPI DUP1 PUSH4 0x45BC78AB EQ PUSH2 0xE9 JUMPI DUP1 PUSH4 0x6E9E2822 EQ PUSH2 0x119 JUMPI JUMPDEST PUSH1 0x0 DUP1 REVERT JUMPDEST PUSH2 0xAB PUSH2 0x201 JUMP JUMPDEST PUSH1 0x40 MLOAD PUSH2 0xB8 SWAP2 SWAP1 PUSH2 0xA26 JUMP JUMPDEST PUSH1 0x40 MLOAD DUP1 SWAP2 SUB SWAP1 RETURN JUMPDEST PUSH2 0xC9 PUSH2 0x28F JUMP JUMPDEST PUSH1 0x40 MLOAD PUSH2 0xD6 SWAP2 SWAP1 PUSH2 0xA0B JUMP JUMPDEST PUSH1 0x40 MLOAD DUP1 SWAP2 SUB SWAP1 RETURN JUMPDEST PUSH2 0xE7 PUSH2 0x2B5 JUMP JUMPDEST STOP JUMPDEST PUSH2 0x103 PUSH1 0x4 DUP1 CALLDATASIZE SUB DUP2 ADD SWAP1 PUSH2 0xFE SWAP2 SWAP1 PUSH2 0x809 JUMP JUMPDEST PUSH2 0x434 JUMP JUMPDEST PUSH1 0x40 MLOAD PUSH2 0x110 SWAP2 SWAP1 PUSH2 0xA88 JUMP JUMPDEST PUSH1 0x40 MLOAD DUP1 SWAP2 SUB SWAP1 RETURN JUMPDEST PUSH2 0x133 PUSH1 0x4 DUP1 CALLDATASIZE SUB DUP2 ADD SWAP1 PUSH2 0x12E SWAP2 SWAP1 PUSH2 0x863 JUMP JUMPDEST PUSH2 0x44C JUMP JUMPDEST STOP JUMPDEST PUSH2 0x14F PUSH1 0x4 DUP1 CALLDATASIZE SUB DUP2 ADD SWAP1 PUSH2 0x14A SWAP2 SWAP1 PUSH2 0x809 JUMP JUMPDEST PUSH2 0x6FF JUMP JUMPDEST PUSH1 0x40 MLOAD PUSH2 0x15C SWAP2 SWAP1 PUSH2 0x9D5 JUMP JUMPDEST PUSH1 0x40 MLOAD DUP1 SWAP2 SUB SWAP1 RETURN JUMPDEST PUSH2 0x16D PUSH2 0x71F JUMP JUMPDEST PUSH1 0x40 MLOAD PUSH2 0x17A SWAP2 SWAP1 PUSH2 0x95A JUMP JUMPDEST PUSH1 0x40 MLOAD DUP1 SWAP2 SUB SWAP1 RETURN JUMPDEST PUSH2 0x19D PUSH1 0x4 DUP1 CALLDATASIZE SUB DUP2 ADD SWAP1 PUSH2 0x198 SWAP2 SWAP1 PUSH2 0x809 JUMP JUMPDEST PUSH2 0x745 JUMP JUMPDEST PUSH1 0x40 MLOAD PUSH2 0x1AA SWAP2 SWAP1 PUSH2 0x9D5 JUMP JUMPDEST PUSH1 0x40 MLOAD DUP1 SWAP2 SUB SWAP1 RETURN JUMPDEST PUSH2 0x1BB PUSH2 0x765 JUMP JUMPDEST PUSH1 0x40 MLOAD PUSH2 0x1C8 SWAP2 SWAP1 PUSH2 0x9F0 JUMP JUMPDEST PUSH1 0x40 MLOAD DUP1 SWAP2 SUB SWAP1 RETURN JUMPDEST PUSH2 0x1EB PUSH1 0x4 DUP1 CALLDATASIZE SUB DUP2 ADD SWAP1 PUSH2 0x1E6 SWAP2 SWAP1 PUSH2 0x863 JUMP JUMPDEST PUSH2 0x78B JUMP JUMPDEST PUSH1 0x40 MLOAD PUSH2 0x1F8 SWAP2 SWAP1 PUSH2 0x95A JUMP JUMPDEST PUSH1 0x40 MLOAD DUP1 SWAP2 SUB SWAP1 RETURN JUMPDEST PUSH1 0x0 DUP1 SLOAD PUSH2 0x20E SWAP1 PUSH2 0xBD8 JUMP JUMPDEST DUP1 PUSH1 0x1F ADD PUSH1 0x20 DUP1 SWAP2 DIV MUL PUSH1 0x20 ADD PUSH1 0x40 MLOAD SWAP1 DUP2 ADD PUSH1 0x40 MSTORE DUP1 SWAP3 SWAP2 SWAP1 DUP2 DUP2 MSTORE PUSH1 0x20 ADD DUP3 DUP1 SLOAD PUSH2 0x23A SWAP1 PUSH2 0xBD8 JUMP JUMPDEST DUP1 ISZERO PUSH2 0x287 JUMPI DUP1 PUSH1 0x1F LT PUSH2 0x25C JUMPI PUSH2 0x100 DUP1 DUP4 SLOAD DIV MUL DUP4 MSTORE SWAP2 PUSH1 0x20 ADD SWAP2 PUSH2 0x287 JUMP JUMPDEST DUP3 ADD SWAP2 SWAP1 PUSH1 0x0 MSTORE PUSH1 0x20 PUSH1 0x0 KECCAK256 SWAP1 JUMPDEST DUP2 SLOAD DUP2 MSTORE SWAP1 PUSH1 0x1 ADD SWAP1 PUSH1 0x20 ADD DUP1 DUP4 GT PUSH2 0x26A JUMPI DUP3 SWAP1 SUB PUSH1 0x1F AND DUP3 ADD SWAP2 JUMPDEST POP POP POP POP POP DUP2 JUMP JUMPDEST PUSH1 0x3 PUSH1 0x0 SWAP1 SLOAD SWAP1 PUSH2 0x100 EXP SWAP1 DIV PUSH20 0xFFFFFFFFFFFFFFFFFFFFFFFFFFFFFFFFFFFFFFFF AND DUP2 JUMP JUMPDEST PUSH1 0x0 PUSH1 0x5 PUSH1 0x0 CALLER PUSH20 0xFFFFFFFFFFFFFFFFFFFFFFFFFFFFFFFFFFFFFFFF AND PUSH20 0xFFFFFFFFFFFFFFFFFFFFFFFFFFFFFFFFFFFFFFFF AND DUP2 MSTORE PUSH1 0x20 ADD SWAP1 DUP2 MSTORE PUSH1 0x20 ADD PUSH1 0x0 KECCAK256 SLOAD SWAP1 POP PUSH1 0x0 DUP2 GT PUSH2 0x33C JUMPI PUSH1 0x40 MLOAD PUSH32 0x8C379A000000000000000000000000000000000000000000000000000000000 DUP2 MSTORE PUSH1 0x4 ADD PUSH2 0x333 SWAP1 PUSH2 0xA48 JUMP JUMPDEST PUSH1 0x40 MLOAD DUP1 SWAP2 SUB SWAP1 REVERT JUMPDEST PUSH1 0x2 PUSH1 0x0 SWAP1 SLOAD SWAP1 PUSH2 0x100 EXP SWAP1 DIV PUSH20 0xFFFFFFFFFFFFFFFFFFFFFFFFFFFFFFFFFFFFFFFF AND PUSH20 0xFFFFFFFFFFFFFFFFFFFFFFFFFFFFFFFFFFFFFFFF AND PUSH4 0xA9059CBB CALLER DUP4 PUSH1 0x40 MLOAD DUP4 PUSH4 0xFFFFFFFF AND PUSH1 0xE0 SHL DUP2 MSTORE PUSH1 0x4 ADD PUSH2 0x399 SWAP3 SWAP2 SWAP1 PUSH2 0x9AC JUMP JUMPDEST PUSH1 0x20 PUSH1 0x40 MLOAD DUP1 DUP4 SUB DUP2 PUSH1 0x0 DUP8 DUP1 EXTCODESIZE ISZERO DUP1 ISZERO PUSH2 0x3B3 JUMPI PUSH1 0x0 DUP1 REVERT JUMPDEST POP GAS CALL ISZERO DUP1 ISZERO PUSH2 0x3C7 JUMPI RETURNDATASIZE PUSH1 0x0 DUP1 RETURNDATACOPY RETURNDATASIZE PUSH1 0x0 REVERT JUMPDEST POP POP POP POP PUSH1 0x40 MLOAD RETURNDATASIZE PUSH1 0x1F NOT PUSH1 0x1F DUP3 ADD AND DUP3 ADD DUP1 PUSH1 0x40 MSTORE POP DUP2 ADD SWAP1 PUSH2 0x3EB SWAP2 SWAP1 PUSH2 0x836 JUMP JUMPDEST POP PUSH1 0x0 PUSH1 0x5 PUSH1 0x0 CALLER PUSH20 0xFFFFFFFFFFFFFFFFFFFFFFFFFFFFFFFFFFFFFFFF AND PUSH20 0xFFFFFFFFFFFFFFFFFFFFFFFFFFFFFFFFFFFFFFFF AND DUP2 MSTORE PUSH1 0x20 ADD SWAP1 DUP2 MSTORE PUSH1 0x20 ADD PUSH1 0x0 KECCAK256 DUP2 SWAP1 SSTORE POP POP JUMP JUMPDEST PUSH1 0x5 PUSH1 0x20 MSTORE DUP1 PUSH1 0x0 MSTORE PUSH1 0x40 PUSH1 0x0 KECCAK256 PUSH1 0x0 SWAP2 POP SWAP1 POP SLOAD DUP2 JUMP JUMPDEST PUSH1 0x0 DUP2 LT PUSH2 0x48F JUMPI PUSH1 0x40 MLOAD PUSH32 0x8C379A000000000000000000000000000000000000000000000000000000000 DUP2 MSTORE PUSH1 0x4 ADD PUSH2 0x486 SWAP1 PUSH2 0xA68 JUMP JUMPDEST PUSH1 0x40 MLOAD DUP1 SWAP2 SUB SWAP1 REVERT JUMPDEST PUSH1 0x2 PUSH1 0x0 SWAP1 SLOAD SWAP1 PUSH2 0x100 EXP SWAP1 DIV PUSH20 0xFFFFFFFFFFFFFFFFFFFFFFFFFFFFFFFFFFFFFFFF AND PUSH20 0xFFFFFFFFFFFFFFFFFFFFFFFFFFFFFFFFFFFFFFFF AND PUSH4 0x23B872DD CALLER ADDRESS DUP5 PUSH1 0x40 MLOAD DUP5 PUSH4 0xFFFFFFFF AND PUSH1 0xE0 SHL DUP2 MSTORE PUSH1 0x4 ADD PUSH2 0x4EE SWAP4 SWAP3 SWAP2 SWAP1 PUSH2 0x975 JUMP JUMPDEST PUSH1 0x20 PUSH1 0x40 MLOAD DUP1 DUP4 SUB DUP2 PUSH1 0x0 DUP8 DUP1 EXTCODESIZE ISZERO DUP1 ISZERO PUSH2 0x508 JUMPI PUSH1 0x0 DUP1 REVERT JUMPDEST POP GAS CALL ISZERO DUP1 ISZERO PUSH2 0x51C JUMPI RETURNDATASIZE PUSH1 0x0 DUP1 RETURNDATACOPY RETURNDATASIZE PUSH1 0x0 REVERT JUMPDEST POP POP POP POP PUSH1 0x40 MLOAD RETURNDATASIZE PUSH1 0x1F NOT PUSH1 0x1F DUP3 ADD AND DUP3 ADD DUP1 PUSH1 0x40 MSTORE POP DUP2 ADD SWAP1 PUSH2 0x540 SWAP2 SWAP1 PUSH2 0x836 JUMP JUMPDEST POP DUP1 PUSH1 0x5 PUSH1 0x0 CALLER PUSH20 0xFFFFFFFFFFFFFFFFFFFFFFFFFFFFFFFFFFFFFFFF AND PUSH20 0xFFFFFFFFFFFFFFFFFFFFFFFFFFFFFFFFFFFFFFFF AND DUP2 MSTORE PUSH1 0x20 ADD SWAP1 DUP2 MSTORE PUSH1 0x20 ADD PUSH1 0x0 KECCAK256 PUSH1 0x0 DUP3 DUP3 SLOAD PUSH2 0x590 SWAP2 SWAP1 PUSH2 0xABF JUMP JUMPDEST SWAP3 POP POP DUP2 SWAP1 SSTORE POP PUSH1 0x6 PUSH1 0x0 CALLER PUSH20 0xFFFFFFFFFFFFFFFFFFFFFFFFFFFFFFFFFFFFFFFF AND PUSH20 0xFFFFFFFFFFFFFFFFFFFFFFFFFFFFFFFFFFFFFFFF AND DUP2 MSTORE PUSH1 0x20 ADD SWAP1 DUP2 MSTORE PUSH1 0x20 ADD PUSH1 0x0 KECCAK256 PUSH1 0x0 SWAP1 SLOAD SWAP1 PUSH2 0x100 EXP SWAP1 DIV PUSH1 0xFF AND PUSH2 0x64C JUMPI PUSH1 0x4 CALLER SWAP1 DUP1 PUSH1 0x1 DUP2 SLOAD ADD DUP1 DUP3 SSTORE DUP1 SWAP2 POP POP PUSH1 0x1 SWAP1 SUB SWAP1 PUSH1 0x0 MSTORE PUSH1 0x20 PUSH1 0x0 KECCAK256 ADD PUSH1 0x0 SWAP1 SWAP2 SWAP1 SWAP2 SWAP1 SWAP2 PUSH2 0x100 EXP DUP2 SLOAD DUP2 PUSH20 0xFFFFFFFFFFFFFFFFFFFFFFFFFFFFFFFFFFFFFFFF MUL NOT AND SWAP1 DUP4 PUSH20 0xFFFFFFFFFFFFFFFFFFFFFFFFFFFFFFFFFFFFFFFF AND MUL OR SWAP1 SSTORE POP JUMPDEST PUSH1 0x1 PUSH1 0x7 PUSH1 0x0 CALLER PUSH20 0xFFFFFFFFFFFFFFFFFFFFFFFFFFFFFFFFFFFFFFFF AND PUSH20 0xFFFFFFFFFFFFFFFFFFFFFFFFFFFFFFFFFFFFFFFF AND DUP2 MSTORE PUSH1 0x20 ADD SWAP1 DUP2 MSTORE PUSH1 0x20 ADD PUSH1 0x0 KECCAK256 PUSH1 0x0 PUSH2 0x100 EXP DUP2 SLOAD DUP2 PUSH1 0xFF MUL NOT AND SWAP1 DUP4 ISZERO ISZERO MUL OR SWAP1 SSTORE POP PUSH1 0x1 PUSH1 0x6 PUSH1 0x0 CALLER PUSH20 0xFFFFFFFFFFFFFFFFFFFFFFFFFFFFFFFFFFFFFFFF AND PUSH20 0xFFFFFFFFFFFFFFFFFFFFFFFFFFFFFFFFFFFFFFFF AND DUP2 MSTORE PUSH1 0x20 ADD SWAP1 DUP2 MSTORE PUSH1 0x20 ADD PUSH1 0x0 KECCAK256 PUSH1 0x0 PUSH2 0x100 EXP DUP2 SLOAD DUP2 PUSH1 0xFF MUL NOT AND SWAP1 DUP4 ISZERO ISZERO MUL OR SWAP1 SSTORE POP POP JUMP JUMPDEST PUSH1 0x7 PUSH1 0x20 MSTORE DUP1 PUSH1 0x0 MSTORE PUSH1 0x40 PUSH1 0x0 KECCAK256 PUSH1 0x0 SWAP2 POP SLOAD SWAP1 PUSH2 0x100 EXP SWAP1 DIV PUSH1 0xFF AND DUP2 JUMP JUMPDEST PUSH1 0x1 PUSH1 0x0 SWAP1 SLOAD SWAP1 PUSH2 0x100 EXP SWAP1 DIV PUSH20 0xFFFFFFFFFFFFFFFFFFFFFFFFFFFFFFFFFFFFFFFF AND DUP2 JUMP JUMPDEST PUSH1 0x6 PUSH1 0x20 MSTORE DUP1 PUSH1 0x0 MSTORE PUSH1 0x40 PUSH1 0x0 KECCAK256 PUSH1 0x0 SWAP2 POP SLOAD SWAP1 PUSH2 0x100 EXP SWAP1 DIV PUSH1 0xFF AND DUP2 JUMP JUMPDEST PUSH1 0x2 PUSH1 0x0 SWAP1 SLOAD SWAP1 PUSH2 0x100 EXP SWAP1 DIV PUSH20 0xFFFFFFFFFFFFFFFFFFFFFFFFFFFFFFFFFFFFFFFF AND DUP2 JUMP JUMPDEST PUSH1 0x4 DUP2 DUP2 SLOAD DUP2 LT PUSH2 0x79B JUMPI PUSH1 0x0 DUP1 REVERT JUMPDEST SWAP1 PUSH1 0x0 MSTORE PUSH1 0x20 PUSH1 0x0 KECCAK256 ADD PUSH1 0x0 SWAP2 POP SLOAD SWAP1 PUSH2 0x100 EXP SWAP1 DIV PUSH20 0xFFFFFFFFFFFFFFFFFFFFFFFFFFFFFFFFFFFFFFFF AND DUP2 JUMP JUMPDEST PUSH1 0x0 DUP2 CALLDATALOAD SWAP1 POP PUSH2 0x7D9 DUP2 PUSH2 0xCF6 JUMP JUMPDEST SWAP3 SWAP2 POP POP JUMP JUMPDEST PUSH1 0x0 DUP2 MLOAD SWAP1 POP PUSH2 0x7EE DUP2 PUSH2 0xD0D JUMP JUMPDEST SWAP3 SWAP2 POP POP JUMP JUMPDEST PUSH1 0x0 DUP2 CALLDATALOAD SWAP1 POP PUSH2 0x803 DUP2 PUSH2 0xD24 JUMP JUMPDEST SWAP3 SWAP2 POP POP JUMP JUMPDEST PUSH1 0x0 PUSH1 0x20 DUP3 DUP5 SUB SLT ISZERO PUSH2 0x81F JUMPI PUSH2 0x81E PUSH2 0xC68 JUMP JUMPDEST JUMPDEST PUSH1 0x0 PUSH2 0x82D DUP5 DUP3 DUP6 ADD PUSH2 0x7CA JUMP JUMPDEST SWAP2 POP POP SWAP3 SWAP2 POP POP JUMP JUMPDEST PUSH1 0x0 PUSH1 0x20 DUP3 DUP5 SUB SLT ISZERO PUSH2 0x84C JUMPI PUSH2 0x84B PUSH2 0xC68 JUMP JUMPDEST JUMPDEST PUSH1 0x0 PUSH2 0x85A DUP5 DUP3 DUP6 ADD PUSH2 0x7DF JUMP JUMPDEST SWAP2 POP POP SWAP3 SWAP2 POP POP JUMP JUMPDEST PUSH1 0x0 PUSH1 0x20 DUP3 DUP5 SUB SLT ISZERO PUSH2 0x879 JUMPI PUSH2 0x878 PUSH2 0xC68 JUMP JUMPDEST JUMPDEST PUSH1 0x0 PUSH2 0x887 DUP5 DUP3 DUP6 ADD PUSH2 0x7F4 JUMP JUMPDEST SWAP2 POP POP SWAP3 SWAP2 POP POP JUMP JUMPDEST PUSH2 0x899 DUP2 PUSH2 0xB15 JUMP JUMPDEST DUP3 MSTORE POP POP JUMP JUMPDEST PUSH2 0x8A8 DUP2 PUSH2 0xB27 JUMP JUMPDEST DUP3 MSTORE POP POP JUMP JUMPDEST PUSH2 0x8B7 DUP2 PUSH2 0xB5D JUMP JUMPDEST DUP3 MSTORE POP POP JUMP JUMPDEST PUSH2 0x8C6 DUP2 PUSH2 0xB6F JUMP JUMPDEST DUP3 MSTORE POP POP JUMP JUMPDEST PUSH1 0x0 PUSH2 0x8D7 DUP3 PUSH2 0xAA3 JUMP JUMPDEST PUSH2 0x8E1 DUP2 DUP6 PUSH2 0xAAE JUMP JUMPDEST SWAP4 POP PUSH2 0x8F1 DUP2 DUP6 PUSH1 0x20 DUP7 ADD PUSH2 0xBA5 JUMP JUMPDEST PUSH2 0x8FA DUP2 PUSH2 0xC6D JUMP JUMPDEST DUP5 ADD SWAP2 POP POP SWAP3 SWAP2 POP POP JUMP JUMPDEST PUSH1 0x0 PUSH2 0x912 PUSH1 0x1B DUP4 PUSH2 0xAAE JUMP JUMPDEST SWAP2 POP PUSH2 0x91D DUP3 PUSH2 0xC7E JUMP JUMPDEST PUSH1 0x20 DUP3 ADD SWAP1 POP SWAP2 SWAP1 POP JUMP JUMPDEST PUSH1 0x0 PUSH2 0x935 PUSH1 0x22 DUP4 PUSH2 0xAAE JUMP JUMPDEST SWAP2 POP PUSH2 0x940 DUP3 PUSH2 0xCA7 JUMP JUMPDEST PUSH1 0x40 DUP3 ADD SWAP1 POP SWAP2 SWAP1 POP JUMP JUMPDEST PUSH2 0x954 DUP2 PUSH2 0xB53 JUMP JUMPDEST DUP3 MSTORE POP POP JUMP JUMPDEST PUSH1 0x0 PUSH1 0x20 DUP3 ADD SWAP1 POP PUSH2 0x96F PUSH1 0x0 DUP4 ADD DUP5 PUSH2 0x890 JUMP JUMPDEST SWAP3 SWAP2 POP POP JUMP JUMPDEST PUSH1 0x0 PUSH1 0x60 DUP3 ADD SWAP1 POP PUSH2 0x98A PUSH1 0x0 DUP4 ADD DUP7 PUSH2 0x890 JUMP JUMPDEST PUSH2 0x997 PUSH1 0x20 DUP4 ADD DUP6 PUSH2 0x890 JUMP JUMPDEST PUSH2 0x9A4 PUSH1 0x40 DUP4 ADD DUP5 PUSH2 0x94B JUMP JUMPDEST SWAP5 SWAP4 POP POP POP POP JUMP JUMPDEST PUSH1 0x0 PUSH1 0x40 DUP3 ADD SWAP1 POP PUSH2 0x9C1 PUSH1 0x0 DUP4 ADD DUP6 PUSH2 0x890 JUMP JUMPDEST PUSH2 0x9CE PUSH1 0x20 DUP4 ADD DUP5 PUSH2 0x94B JUMP JUMPDEST SWAP4 SWAP3 POP POP POP JUMP JUMPDEST PUSH1 0x0 PUSH1 0x20 DUP3 ADD SWAP1 POP PUSH2 0x9EA PUSH1 0x0 DUP4 ADD DUP5 PUSH2 0x89F JUMP JUMPDEST SWAP3 SWAP2 POP POP JUMP JUMPDEST PUSH1 0x0 PUSH1 0x20 DUP3 ADD SWAP1 POP PUSH2 0xA05 PUSH1 0x0 DUP4 ADD DUP5 PUSH2 0x8AE JUMP JUMPDEST SWAP3 SWAP2 POP POP JUMP JUMPDEST PUSH1 0x0 PUSH1 0x20 DUP3 ADD SWAP1 POP PUSH2 0xA20 PUSH1 0x0 DUP4 ADD DUP5 PUSH2 0x8BD JUMP JUMPDEST SWAP3 SWAP2 POP POP JUMP JUMPDEST PUSH1 0x0 PUSH1 0x20 DUP3 ADD SWAP1 POP DUP2 DUP2 SUB PUSH1 0x0 DUP4 ADD MSTORE PUSH2 0xA40 DUP2 DUP5 PUSH2 0x8CC JUMP JUMPDEST SWAP1 POP SWAP3 SWAP2 POP POP JUMP JUMPDEST PUSH1 0x0 PUSH1 0x20 DUP3 ADD SWAP1 POP DUP2 DUP2 SUB PUSH1 0x0 DUP4 ADD MSTORE PUSH2 0xA61 DUP2 PUSH2 0x905 JUMP JUMPDEST SWAP1 POP SWAP2 SWAP1 POP JUMP JUMPDEST PUSH1 0x0 PUSH1 0x20 DUP3 ADD SWAP1 POP DUP2 DUP2 SUB PUSH1 0x0 DUP4 ADD MSTORE PUSH2 0xA81 DUP2 PUSH2 0x928 JUMP JUMPDEST SWAP1 POP SWAP2 SWAP1 POP JUMP JUMPDEST PUSH1 0x0 PUSH1 0x20 DUP3 ADD SWAP1 POP PUSH2 0xA9D PUSH1 0x0 DUP4 ADD DUP5 PUSH2 0x94B JUMP JUMPDEST SWAP3 SWAP2 POP POP JUMP JUMPDEST PUSH1 0x0 DUP2 MLOAD SWAP1 POP SWAP2 SWAP1 POP JUMP JUMPDEST PUSH1 0x0 DUP3 DUP3 MSTORE PUSH1 0x20 DUP3 ADD SWAP1 POP SWAP3 SWAP2 POP POP JUMP JUMPDEST PUSH1 0x0 PUSH2 0xACA DUP3 PUSH2 0xB53 JUMP JUMPDEST SWAP2 POP PUSH2 0xAD5 DUP4 PUSH2 0xB53 JUMP JUMPDEST SWAP3 POP DUP3 PUSH32 0xFFFFFFFFFFFFFFFFFFFFFFFFFFFFFFFFFFFFFFFFFFFFFFFFFFFFFFFFFFFFFFFF SUB DUP3 GT ISZERO PUSH2 0xB0A JUMPI PUSH2 0xB09 PUSH2 0xC0A JUMP JUMPDEST JUMPDEST DUP3 DUP3 ADD SWAP1 POP SWAP3 SWAP2 POP POP JUMP JUMPDEST PUSH1 0x0 PUSH2 0xB20 DUP3 PUSH2 0xB33 JUMP JUMPDEST SWAP1 POP SWAP2 SWAP1 POP JUMP JUMPDEST PUSH1 0x0 DUP2 ISZERO ISZERO SWAP1 POP SWAP2 SWAP1 POP JUMP JUMPDEST PUSH1 0x0 PUSH20 0xFFFFFFFFFFFFFFFFFFFFFFFFFFFFFFFFFFFFFFFF DUP3 AND SWAP1 POP SWAP2 SWAP1 POP JUMP JUMPDEST PUSH1 0x0 DUP2 SWAP1 POP SWAP2 SWAP1 POP JUMP JUMPDEST PUSH1 0x0 PUSH2 0xB68 DUP3 PUSH2 0xB81 JUMP JUMPDEST SWAP1 POP SWAP2 SWAP1 POP JUMP JUMPDEST PUSH1 0x0 PUSH2 0xB7A DUP3 PUSH2 0xB81 JUMP JUMPDEST SWAP1 POP SWAP2 SWAP1 POP JUMP JUMPDEST PUSH1 0x0 PUSH2 0xB8C DUP3 PUSH2 0xB93 JUMP JUMPDEST SWAP1 POP SWAP2 SWAP1 POP JUMP JUMPDEST PUSH1 0x0 PUSH2 0xB9E DUP3 PUSH2 0xB33 JUMP JUMPDEST SWAP1 POP SWAP2 SWAP1 POP JUMP JUMPDEST PUSH1 0x0 JUMPDEST DUP4 DUP2 LT ISZERO PUSH2 0xBC3 JUMPI DUP1 DUP3 ADD MLOAD DUP2 DUP5 ADD MSTORE PUSH1 0x20 DUP2 ADD SWAP1 POP PUSH2 0xBA8 JUMP JUMPDEST DUP4 DUP2 GT ISZERO PUSH2 0xBD2 JUMPI PUSH1 0x0 DUP5 DUP5 ADD MSTORE JUMPDEST POP POP POP POP JUMP JUMPDEST PUSH1 0x0 PUSH1 0x2 DUP3 DIV SWAP1 POP PUSH1 0x1 DUP3 AND DUP1 PUSH2 0xBF0 JUMPI PUSH1 0x7F DUP3 AND SWAP2 POP JUMPDEST PUSH1 0x20 DUP3 LT DUP2 EQ ISZERO PUSH2 0xC04 JUMPI PUSH2 0xC03 PUSH2 0xC39 JUMP JUMPDEST JUMPDEST POP SWAP2 SWAP1 POP JUMP JUMPDEST PUSH32 0x4E487B7100000000000000000000000000000000000000000000000000000000 PUSH1 0x0 MSTORE PUSH1 0x11 PUSH1 0x4 MSTORE PUSH1 0x24 PUSH1 0x0 REVERT JUMPDEST PUSH32 0x4E487B7100000000000000000000000000000000000000000000000000000000 PUSH1 0x0 MSTORE PUSH1 0x22 PUSH1 0x4 MSTORE PUSH1 0x24 PUSH1 0x0 REVERT JUMPDEST PUSH1 0x0 DUP1 REVERT JUMPDEST PUSH1 0x0 PUSH1 0x1F NOT PUSH1 0x1F DUP4 ADD AND SWAP1 POP SWAP2 SWAP1 POP JUMP JUMPDEST PUSH32 0x456C2062616C616E63652064656C207374616B696E6720657320300000000000 PUSH1 0x0 DUP3 ADD MSTORE POP JUMP JUMPDEST PUSH32 0x4C612063616E7469646164206E6F20707565646520736572206D656E6F722061 PUSH1 0x0 DUP3 ADD MSTORE PUSH32 0x2030000000000000000000000000000000000000000000000000000000000000 PUSH1 0x20 DUP3 ADD MSTORE POP JUMP JUMPDEST PUSH2 0xCFF DUP2 PUSH2 0xB15 JUMP JUMPDEST DUP2 EQ PUSH2 0xD0A JUMPI PUSH1 0x0 DUP1 REVERT JUMPDEST POP JUMP JUMPDEST PUSH2 0xD16 DUP2 PUSH2 0xB27 JUMP JUMPDEST DUP2 EQ PUSH2 0xD21 JUMPI PUSH1 0x0 DUP1 REVERT JUMPDEST POP JUMP JUMPDEST PUSH2 0xD2D DUP2 PUSH2 0xB53 JUMP JUMPDEST DUP2 EQ PUSH2 0xD38 JUMPI PUSH1 0x0 DUP1 REVERT JUMPDEST POP JUMP INVALID LOG2 PUSH5 0x6970667358 0x22 SLT KECCAK256 SWAP3 RETURN 0xC DUP4 BASEFEE 0xD7 0x5F SWAP10 0x21 CALLDATASIZE 0xEF GASLIMIT 0xE5 ORIGIN PUSH5 0xF474F2F022 0xBF 0xDA EXP ADDMOD 0xB0 PUSH29 0xAB441454698464736F6C63430008070033000000000000000000000000 "
				},
				"gasEstimates": {
					"creation": {
						"codeDepositCost": "688200",
						"executionCost": "infinite",
						"totalCost": "infinite"
					},
					"external": {
						"Owner()": "2536",
						"hasStaked(address)": "2889",
						"isStaking(address)": "2845",
						"jamToken()": "2666",
						"name()": "infinite",
						"stakenTokens(uint256)": "823",
						"stakers(uint256)": "5044",
						"stakingBalance(address)": "2881",
						"stellarToken()": "2623",
						"unstakeToken()": "infinite"
					}
				},
				"methodIdentifiers": {
					"Owner()": "b4a99a4e",
					"hasStaked(address)": "c93c8f34",
					"isStaking(address)": "6f49712b",
					"jamToken()": "f416d760",
					"name()": "06fdde03",
					"stakenTokens(uint256)": "6e9e2822",
					"stakers(uint256)": "fd5e6dd1",
					"stakingBalance(address)": "45bc78ab",
					"stellarToken()": "0f141533",
					"unstakeToken()": "20eb640c"
				}
			},
			"storageLayout": {
				"storage": [
					{
						"astId": 368,
						"contract": "Staking/TokenFarm.sol:TokenFram",
						"label": "name",
						"offset": 0,
						"slot": "0",
						"type": "t_string_storage"
					},
					{
						"astId": 370,
						"contract": "Staking/TokenFarm.sol:TokenFram",
						"label": "Owner",
						"offset": 0,
						"slot": "1",
						"type": "t_address"
					},
					{
						"astId": 373,
						"contract": "Staking/TokenFarm.sol:TokenFram",
						"label": "jamToken",
						"offset": 0,
						"slot": "2",
						"type": "t_contract(JamToken)180"
					},
					{
						"astId": 376,
						"contract": "Staking/TokenFarm.sol:TokenFram",
						"label": "stellarToken",
						"offset": 0,
						"slot": "3",
						"type": "t_contract(StellarToken)361"
					},
					{
						"astId": 379,
						"contract": "Staking/TokenFarm.sol:TokenFram",
						"label": "stakers",
						"offset": 0,
						"slot": "4",
						"type": "t_array(t_address)dyn_storage"
					},
					{
						"astId": 383,
						"contract": "Staking/TokenFarm.sol:TokenFram",
						"label": "stakingBalance",
						"offset": 0,
						"slot": "5",
						"type": "t_mapping(t_address,t_uint256)"
					},
					{
						"astId": 387,
						"contract": "Staking/TokenFarm.sol:TokenFram",
						"label": "hasStaked",
						"offset": 0,
						"slot": "6",
						"type": "t_mapping(t_address,t_bool)"
					},
					{
						"astId": 391,
						"contract": "Staking/TokenFarm.sol:TokenFram",
						"label": "isStaking",
						"offset": 0,
						"slot": "7",
						"type": "t_mapping(t_address,t_bool)"
					}
				],
				"types": {
					"t_address": {
						"encoding": "inplace",
						"label": "address",
						"numberOfBytes": "20"
					},
					"t_array(t_address)dyn_storage": {
						"base": "t_address",
						"encoding": "dynamic_array",
						"label": "address[]",
						"numberOfBytes": "32"
					},
					"t_bool": {
						"encoding": "inplace",
						"label": "bool",
						"numberOfBytes": "1"
					},
					"t_contract(JamToken)180": {
						"encoding": "inplace",
						"label": "contract JamToken",
						"numberOfBytes": "20"
					},
					"t_contract(StellarToken)361": {
						"encoding": "inplace",
						"label": "contract StellarToken",
						"numberOfBytes": "20"
					},
					"t_mapping(t_address,t_bool)": {
						"encoding": "mapping",
						"key": "t_address",
						"label": "mapping(address => bool)",
						"numberOfBytes": "32",
						"value": "t_bool"
					},
					"t_mapping(t_address,t_uint256)": {
						"encoding": "mapping",
						"key": "t_address",
						"label": "mapping(address => uint256)",
						"numberOfBytes": "32",
						"value": "t_uint256"
					},
					"t_string_storage": {
						"encoding": "bytes",
						"label": "string",
						"numberOfBytes": "32"
					},
					"t_uint256": {
						"encoding": "inplace",
						"label": "uint256",
						"numberOfBytes": "32"
					}
				}
			},
			"userdoc": {
				"kind": "user",
				"methods": {},
				"version": 1
			}
		}
	}
}