{
	"Staking/JamToken.sol": {
		"JamToken": {
			"abi": [
				{
					"anonymous": false,
					"inputs": [
						{
							"indexed": true,
							"internalType": "address",
							"name": "_owner",
							"type": "address"
						},
						{
							"indexed": true,
							"internalType": "address",
							"name": "_spender",
							"type": "address"
						},
						{
							"indexed": false,
							"internalType": "uint256",
							"name": "value",
							"type": "uint256"
						}
					],
					"name": "Approval",
					"type": "event"
				},
				{
					"anonymous": false,
					"inputs": [
						{
							"indexed": true,
							"internalType": "address",
							"name": "_from",
							"type": "address"
						},
						{
							"indexed": true,
							"internalType": "address",
							"name": "_to",
							"type": "address"
						},
						{
							"indexed": false,
							"internalType": "uint256",
							"name": "_value",
							"type": "uint256"
						}
					],
					"name": "Transfer",
					"type": "event"
				},
				{
					"inputs": [
						{
							"internalType": "address",
							"name": "",
							"type": "address"
						},
						{
							"internalType": "address",
							"name": "",
							"type": "address"
						}
					],
					"name": "allwance",
					"outputs": [
						{
							"internalType": "uint256",
							"name": "",
							"type": "uint256"
						}
					],
					"stateMutability": "view",
					"type": "function"
				},
				{
					"inputs": [
						{
							"internalType": "address",
							"name": "",
							"type": "address"
						}
					],
					"name": "balanceOf",
					"outputs": [
						{
							"internalType": "uint256",
							"name": "",
							"type": "uint256"
						}
					],
					"stateMutability": "view",
					"type": "function"
				},
				{
					"inputs": [],
					"name": "decimals",
					"outputs": [
						{
							"internalType": "uint256",
							"name": "",
							"type": "uint256"
						}
					],
					"stateMutability": "view",
					"type": "function"
				},
				{
					"inputs": [],
					"name": "name",
					"outputs": [
						{
							"internalType": "string",
							"name": "",
							"type": "string"
						}
					],
					"stateMutability": "view",
					"type": "function"
				},
				{
					"inputs": [],
					"name": "symbol",
					"outputs": [
						{
							"internalType": "string",
							"name": "",
							"type": "string"
						}
					],
					"stateMutability": "view",
					"type": "function"
				},
				{
					"inputs": [],
					"name": "totalSupply",
					"outputs": [
						{
							"internalType": "uint256",
							"name": "",
							"type": "uint256"
						}
					],
					"stateMutability": "view",
					"type": "function"
				}
			],
			"devdoc": {
				"kind": "dev",
				"methods": {},
				"version": 1
			},
			"evm": {
				"assembly": "    /* \"Staking/JamToken.sol\":83:749  contract JamToken {\r... */\n  mstore(0x40, 0x80)\n    /* \"Staking/JamToken.sol\":123:155  string public name = \"JAM Token\" */\n  mload(0x40)\n  dup1\n  0x40\n  add\n  0x40\n  mstore\n  dup1\n  0x09\n  dup2\n  mstore\n  0x20\n  add\n  0x4a414d20546f6b656e0000000000000000000000000000000000000000000000\n  dup2\n  mstore\n  pop\n  0x00\n  swap1\n  dup1\n  mload\n  swap1\n  0x20\n  add\n  swap1\n  tag_1\n  swap3\n  swap2\n  swap1\n  tag_2\n  jump\t// in\ntag_1:\n  pop\n    /* \"Staking/JamToken.sol\":158:186  string public symbol = \"JAM\" */\n  mload(0x40)\n  dup1\n  0x40\n  add\n  0x40\n  mstore\n  dup1\n  0x03\n  dup2\n  mstore\n  0x20\n  add\n  0x4a414d0000000000000000000000000000000000000000000000000000000000\n  dup2\n  mstore\n  pop\n  0x01\n  swap1\n  dup1\n  mload\n  swap1\n  0x20\n  add\n  swap1\n  tag_3\n  swap3\n  swap2\n  swap1\n  tag_2\n  jump\t// in\ntag_3:\n  pop\n    /* \"Staking/JamToken.sol\":215:245  100000000000000000000000000000 */\n  0x01431e0fae6d7217caa0000000\n    /* \"Staking/JamToken.sol\":189:245  uint public totalSupply = 100000000000000000000000000000 */\n  0x02\n  sstore\n    /* \"Staking/JamToken.sol\":291:293  18 */\n  0x12\n    /* \"Staking/JamToken.sol\":268:293  uint public decimals = 18 */\n  0x03\n  sstore\n    /* \"Staking/JamToken.sol\":83:749  contract JamToken {\r... */\n  callvalue\n  dup1\n  iszero\n  tag_4\n  jumpi\n  0x00\n  dup1\n  revert\ntag_4:\n  pop\n  jump(tag_5)\ntag_2:\n  dup3\n  dup1\n  sload\n  tag_6\n  swap1\n  tag_7\n  jump\t// in\ntag_6:\n  swap1\n  0x00\n  mstore\n  keccak256(0x00, 0x20)\n  swap1\n  0x1f\n  add\n  0x20\n  swap1\n  div\n  dup2\n  add\n  swap3\n  dup3\n  tag_9\n  jumpi\n  0x00\n  dup6\n  sstore\n  jump(tag_8)\ntag_9:\n  dup3\n  0x1f\n  lt\n  tag_10\n  jumpi\n  dup1\n  mload\n  not(0xff)\n  and\n  dup4\n  dup1\n  add\n  or\n  dup6\n  sstore\n  jump(tag_8)\ntag_10:\n  dup3\n  dup1\n  add\n  0x01\n  add\n  dup6\n  sstore\n  dup3\n  iszero\n  tag_8\n  jumpi\n  swap2\n  dup3\n  add\ntag_11:\n  dup3\n  dup2\n  gt\n  iszero\n  tag_12\n  jumpi\n  dup3\n  mload\n  dup3\n  sstore\n  swap2\n  0x20\n  add\n  swap2\n  swap1\n  0x01\n  add\n  swap1\n  jump(tag_11)\ntag_12:\ntag_8:\n  pop\n  swap1\n  pop\n  tag_13\n  swap2\n  swap1\n  tag_14\n  jump\t// in\ntag_13:\n  pop\n  swap1\n  jump\t// out\ntag_14:\ntag_15:\n  dup1\n  dup3\n  gt\n  iszero\n  tag_16\n  jumpi\n  0x00\n  dup2\n  0x00\n  swap1\n  sstore\n  pop\n  0x01\n  add\n  jump(tag_15)\ntag_16:\n  pop\n  swap1\n  jump\t// out\n    /* \"#utility.yul\":7:327   */\ntag_7:\n    /* \"#utility.yul\":51:57   */\n  0x00\n    /* \"#utility.yul\":88:89   */\n  0x02\n    /* \"#utility.yul\":82:86   */\n  dup3\n    /* \"#utility.yul\":78:90   */\n  div\n    /* \"#utility.yul\":68:90   */\n  swap1\n  pop\n    /* \"#utility.yul\":135:136   */\n  0x01\n    /* \"#utility.yul\":129:133   */\n  dup3\n    /* \"#utility.yul\":125:137   */\n  and\n    /* \"#utility.yul\":156:174   */\n  dup1\n    /* \"#utility.yul\":146:227   */\n  tag_19\n  jumpi\n    /* \"#utility.yul\":212:216   */\n  0x7f\n    /* \"#utility.yul\":204:210   */\n  dup3\n    /* \"#utility.yul\":200:217   */\n  and\n    /* \"#utility.yul\":190:217   */\n  swap2\n  pop\n    /* \"#utility.yul\":146:227   */\ntag_19:\n    /* \"#utility.yul\":274:276   */\n  0x20\n    /* \"#utility.yul\":266:272   */\n  dup3\n    /* \"#utility.yul\":263:277   */\n  lt\n    /* \"#utility.yul\":243:261   */\n  dup2\n    /* \"#utility.yul\":240:278   */\n  eq\n    /* \"#utility.yul\":237:321   */\n  iszero\n  tag_20\n  jumpi\n    /* \"#utility.yul\":293:311   */\n  tag_21\n  tag_22\n  jump\t// in\ntag_21:\n    /* \"#utility.yul\":237:321   */\ntag_20:\n    /* \"#utility.yul\":58:327   */\n  pop\n    /* \"#utility.yul\":7:327   */\n  swap2\n  swap1\n  pop\n  jump\t// out\n    /* \"#utility.yul\":333:513   */\ntag_22:\n    /* \"#utility.yul\":381:458   */\n  0x4e487b7100000000000000000000000000000000000000000000000000000000\n    /* \"#utility.yul\":378:379   */\n  0x00\n    /* \"#utility.yul\":371:459   */\n  mstore\n    /* \"#utility.yul\":478:482   */\n  0x22\n    /* \"#utility.yul\":475:476   */\n  0x04\n    /* \"#utility.yul\":468:483   */\n  mstore\n    /* \"#utility.yul\":502:506   */\n  0x24\n    /* \"#utility.yul\":499:500   */\n  0x00\n    /* \"#utility.yul\":492:507   */\n  revert\n    /* \"Staking/JamToken.sol\":83:749  contract JamToken {\r... */\ntag_5:\n  dataSize(sub_0)\n  dup1\n  dataOffset(sub_0)\n  0x00\n  codecopy\n  0x00\n  return\nstop\n\nsub_0: assembly {\n        /* \"Staking/JamToken.sol\":83:749  contract JamToken {\r... */\n      mstore(0x40, 0x80)\n      callvalue\n      dup1\n      iszero\n      tag_1\n      jumpi\n      0x00\n      dup1\n      revert\n    tag_1:\n      pop\n      jumpi(tag_2, lt(calldatasize, 0x04))\n      shr(0xe0, calldataload(0x00))\n      dup1\n      0x06fdde03\n      eq\n      tag_3\n      jumpi\n      dup1\n      0x18160ddd\n      eq\n      tag_4\n      jumpi\n      dup1\n      0x313ce567\n      eq\n      tag_5\n      jumpi\n      dup1\n      0x694c93d8\n      eq\n      tag_6\n      jumpi\n      dup1\n      0x70a08231\n      eq\n      tag_7\n      jumpi\n      dup1\n      0x95d89b41\n      eq\n      tag_8\n      jumpi\n    tag_2:\n      0x00\n      dup1\n      revert\n        /* \"Staking/JamToken.sol\":123:155  string public name = \"JAM Token\" */\n    tag_3:\n      tag_9\n      tag_10\n      jump\t// in\n    tag_9:\n      mload(0x40)\n      tag_11\n      swap2\n      swap1\n      tag_12\n      jump\t// in\n    tag_11:\n      mload(0x40)\n      dup1\n      swap2\n      sub\n      swap1\n      return\n        /* \"Staking/JamToken.sol\":189:245  uint public totalSupply = 100000000000000000000000000000 */\n    tag_4:\n      tag_13\n      tag_14\n      jump\t// in\n    tag_13:\n      mload(0x40)\n      tag_15\n      swap2\n      swap1\n      tag_16\n      jump\t// in\n    tag_15:\n      mload(0x40)\n      dup1\n      swap2\n      sub\n      swap1\n      return\n        /* \"Staking/JamToken.sol\":268:293  uint public decimals = 18 */\n    tag_5:\n      tag_17\n      tag_18\n      jump\t// in\n    tag_17:\n      mload(0x40)\n      tag_19\n      swap2\n      swap1\n      tag_16\n      jump\t// in\n    tag_19:\n      mload(0x40)\n      dup1\n      swap2\n      sub\n      swap1\n      return\n        /* \"Staking/JamToken.sol\":662:723  mapping(address => mapping(address  => uint)) public allwance */\n    tag_6:\n      tag_20\n      0x04\n      dup1\n      calldatasize\n      sub\n      dup2\n      add\n      swap1\n      tag_21\n      swap2\n      swap1\n      tag_22\n      jump\t// in\n    tag_21:\n      tag_23\n      jump\t// in\n    tag_20:\n      mload(0x40)\n      tag_24\n      swap2\n      swap1\n      tag_16\n      jump\t// in\n    tag_24:\n      mload(0x40)\n      dup1\n      swap2\n      sub\n      swap1\n      return\n        /* \"Staking/JamToken.sol\":618:659  mapping(address => uint) public balanceOf */\n    tag_7:\n      tag_25\n      0x04\n      dup1\n      calldatasize\n      sub\n      dup2\n      add\n      swap1\n      tag_26\n      swap2\n      swap1\n      tag_27\n      jump\t// in\n    tag_26:\n      tag_28\n      jump\t// in\n    tag_25:\n      mload(0x40)\n      tag_29\n      swap2\n      swap1\n      tag_16\n      jump\t// in\n    tag_29:\n      mload(0x40)\n      dup1\n      swap2\n      sub\n      swap1\n      return\n        /* \"Staking/JamToken.sol\":158:186  string public symbol = \"JAM\" */\n    tag_8:\n      tag_30\n      tag_31\n      jump\t// in\n    tag_30:\n      mload(0x40)\n      tag_32\n      swap2\n      swap1\n      tag_12\n      jump\t// in\n    tag_32:\n      mload(0x40)\n      dup1\n      swap2\n      sub\n      swap1\n      return\n        /* \"Staking/JamToken.sol\":123:155  string public name = \"JAM Token\" */\n    tag_10:\n      0x00\n      dup1\n      sload\n      tag_33\n      swap1\n      tag_34\n      jump\t// in\n    tag_33:\n      dup1\n      0x1f\n      add\n      0x20\n      dup1\n      swap2\n      div\n      mul\n      0x20\n      add\n      mload(0x40)\n      swap1\n      dup2\n      add\n      0x40\n      mstore\n      dup1\n      swap3\n      swap2\n      swap1\n      dup2\n      dup2\n      mstore\n      0x20\n      add\n      dup3\n      dup1\n      sload\n      tag_35\n      swap1\n      tag_34\n      jump\t// in\n    tag_35:\n      dup1\n      iszero\n      tag_36\n      jumpi\n      dup1\n      0x1f\n      lt\n      tag_37\n      jumpi\n      0x0100\n      dup1\n      dup4\n      sload\n      div\n      mul\n      dup4\n      mstore\n      swap2\n      0x20\n      add\n      swap2\n      jump(tag_36)\n    tag_37:\n      dup3\n      add\n      swap2\n      swap1\n      0x00\n      mstore\n      keccak256(0x00, 0x20)\n      swap1\n    tag_38:\n      dup2\n      sload\n      dup2\n      mstore\n      swap1\n      0x01\n      add\n      swap1\n      0x20\n      add\n      dup1\n      dup4\n      gt\n      tag_38\n      jumpi\n      dup3\n      swap1\n      sub\n      0x1f\n      and\n      dup3\n      add\n      swap2\n    tag_36:\n      pop\n      pop\n      pop\n      pop\n      pop\n      dup2\n      jump\t// out\n        /* \"Staking/JamToken.sol\":189:245  uint public totalSupply = 100000000000000000000000000000 */\n    tag_14:\n      sload(0x02)\n      dup2\n      jump\t// out\n        /* \"Staking/JamToken.sol\":268:293  uint public decimals = 18 */\n    tag_18:\n      sload(0x03)\n      dup2\n      jump\t// out\n        /* \"Staking/JamToken.sol\":662:723  mapping(address => mapping(address  => uint)) public allwance */\n    tag_23:\n      mstore(0x20, 0x05)\n      dup2\n      0x00\n      mstore\n      mstore(0x20, keccak256(0x00, 0x40))\n      dup1\n      0x00\n      mstore\n      keccak256(0x00, 0x40)\n      0x00\n      swap2\n      pop\n      swap2\n      pop\n      pop\n      sload\n      dup2\n      jump\t// out\n        /* \"Staking/JamToken.sol\":618:659  mapping(address => uint) public balanceOf */\n    tag_28:\n      mstore(0x20, 0x04)\n      dup1\n      0x00\n      mstore\n      keccak256(0x00, 0x40)\n      0x00\n      swap2\n      pop\n      swap1\n      pop\n      sload\n      dup2\n      jump\t// out\n        /* \"Staking/JamToken.sol\":158:186  string public symbol = \"JAM\" */\n    tag_31:\n      0x01\n      dup1\n      sload\n      tag_39\n      swap1\n      tag_34\n      jump\t// in\n    tag_39:\n      dup1\n      0x1f\n      add\n      0x20\n      dup1\n      swap2\n      div\n      mul\n      0x20\n      add\n      mload(0x40)\n      swap1\n      dup2\n      add\n      0x40\n      mstore\n      dup1\n      swap3\n      swap2\n      swap1\n      dup2\n      dup2\n      mstore\n      0x20\n      add\n      dup3\n      dup1\n      sload\n      tag_40\n      swap1\n      tag_34\n      jump\t// in\n    tag_40:\n      dup1\n      iszero\n      tag_41\n      jumpi\n      dup1\n      0x1f\n      lt\n      tag_42\n      jumpi\n      0x0100\n      dup1\n      dup4\n      sload\n      div\n      mul\n      dup4\n      mstore\n      swap2\n      0x20\n      add\n      swap2\n      jump(tag_41)\n    tag_42:\n      dup3\n      add\n      swap2\n      swap1\n      0x00\n      mstore\n      keccak256(0x00, 0x20)\n      swap1\n    tag_43:\n      dup2\n      sload\n      dup2\n      mstore\n      swap1\n      0x01\n      add\n      swap1\n      0x20\n      add\n      dup1\n      dup4\n      gt\n      tag_43\n      jumpi\n      dup3\n      swap1\n      sub\n      0x1f\n      and\n      dup3\n      add\n      swap2\n    tag_41:\n      pop\n      pop\n      pop\n      pop\n      pop\n      dup2\n      jump\t// out\n        /* \"#utility.yul\":7:146   */\n    tag_45:\n        /* \"#utility.yul\":53:58   */\n      0x00\n        /* \"#utility.yul\":91:97   */\n      dup2\n        /* \"#utility.yul\":78:98   */\n      calldataload\n        /* \"#utility.yul\":69:98   */\n      swap1\n      pop\n        /* \"#utility.yul\":107:140   */\n      tag_47\n        /* \"#utility.yul\":134:139   */\n      dup2\n        /* \"#utility.yul\":107:140   */\n      tag_48\n      jump\t// in\n    tag_47:\n        /* \"#utility.yul\":7:146   */\n      swap3\n      swap2\n      pop\n      pop\n      jump\t// out\n        /* \"#utility.yul\":152:481   */\n    tag_27:\n        /* \"#utility.yul\":211:217   */\n      0x00\n        /* \"#utility.yul\":260:262   */\n      0x20\n        /* \"#utility.yul\":248:257   */\n      dup3\n        /* \"#utility.yul\":239:246   */\n      dup5\n        /* \"#utility.yul\":235:258   */\n      sub\n        /* \"#utility.yul\":231:263   */\n      slt\n        /* \"#utility.yul\":228:347   */\n      iszero\n      tag_50\n      jumpi\n        /* \"#utility.yul\":266:345   */\n      tag_51\n      tag_52\n      jump\t// in\n    tag_51:\n        /* \"#utility.yul\":228:347   */\n    tag_50:\n        /* \"#utility.yul\":386:387   */\n      0x00\n        /* \"#utility.yul\":411:464   */\n      tag_53\n        /* \"#utility.yul\":456:463   */\n      dup5\n        /* \"#utility.yul\":447:453   */\n      dup3\n        /* \"#utility.yul\":436:445   */\n      dup6\n        /* \"#utility.yul\":432:454   */\n      add\n        /* \"#utility.yul\":411:464   */\n      tag_45\n      jump\t// in\n    tag_53:\n        /* \"#utility.yul\":401:464   */\n      swap2\n      pop\n        /* \"#utility.yul\":357:474   */\n      pop\n        /* \"#utility.yul\":152:481   */\n      swap3\n      swap2\n      pop\n      pop\n      jump\t// out\n        /* \"#utility.yul\":487:961   */\n    tag_22:\n        /* \"#utility.yul\":555:561   */\n      0x00\n        /* \"#utility.yul\":563:569   */\n      dup1\n        /* \"#utility.yul\":612:614   */\n      0x40\n        /* \"#utility.yul\":600:609   */\n      dup4\n        /* \"#utility.yul\":591:598   */\n      dup6\n        /* \"#utility.yul\":587:610   */\n      sub\n        /* \"#utility.yul\":583:615   */\n      slt\n        /* \"#utility.yul\":580:699   */\n      iszero\n      tag_55\n      jumpi\n        /* \"#utility.yul\":618:697   */\n      tag_56\n      tag_52\n      jump\t// in\n    tag_56:\n        /* \"#utility.yul\":580:699   */\n    tag_55:\n        /* \"#utility.yul\":738:739   */\n      0x00\n        /* \"#utility.yul\":763:816   */\n      tag_57\n        /* \"#utility.yul\":808:815   */\n      dup6\n        /* \"#utility.yul\":799:805   */\n      dup3\n        /* \"#utility.yul\":788:797   */\n      dup7\n        /* \"#utility.yul\":784:806   */\n      add\n        /* \"#utility.yul\":763:816   */\n      tag_45\n      jump\t// in\n    tag_57:\n        /* \"#utility.yul\":753:816   */\n      swap3\n      pop\n        /* \"#utility.yul\":709:826   */\n      pop\n        /* \"#utility.yul\":865:867   */\n      0x20\n        /* \"#utility.yul\":891:944   */\n      tag_58\n        /* \"#utility.yul\":936:943   */\n      dup6\n        /* \"#utility.yul\":927:933   */\n      dup3\n        /* \"#utility.yul\":916:925   */\n      dup7\n        /* \"#utility.yul\":912:934   */\n      add\n        /* \"#utility.yul\":891:944   */\n      tag_45\n      jump\t// in\n    tag_58:\n        /* \"#utility.yul\":881:944   */\n      swap2\n      pop\n        /* \"#utility.yul\":836:954   */\n      pop\n        /* \"#utility.yul\":487:961   */\n      swap3\n      pop\n      swap3\n      swap1\n      pop\n      jump\t// out\n        /* \"#utility.yul\":967:1331   */\n    tag_59:\n        /* \"#utility.yul\":1055:1058   */\n      0x00\n        /* \"#utility.yul\":1083:1122   */\n      tag_61\n        /* \"#utility.yul\":1116:1121   */\n      dup3\n        /* \"#utility.yul\":1083:1122   */\n      tag_62\n      jump\t// in\n    tag_61:\n        /* \"#utility.yul\":1138:1209   */\n      tag_63\n        /* \"#utility.yul\":1202:1208   */\n      dup2\n        /* \"#utility.yul\":1197:1200   */\n      dup6\n        /* \"#utility.yul\":1138:1209   */\n      tag_64\n      jump\t// in\n    tag_63:\n        /* \"#utility.yul\":1131:1209   */\n      swap4\n      pop\n        /* \"#utility.yul\":1218:1270   */\n      tag_65\n        /* \"#utility.yul\":1263:1269   */\n      dup2\n        /* \"#utility.yul\":1258:1261   */\n      dup6\n        /* \"#utility.yul\":1251:1255   */\n      0x20\n        /* \"#utility.yul\":1244:1249   */\n      dup7\n        /* \"#utility.yul\":1240:1256   */\n      add\n        /* \"#utility.yul\":1218:1270   */\n      tag_66\n      jump\t// in\n    tag_65:\n        /* \"#utility.yul\":1295:1324   */\n      tag_67\n        /* \"#utility.yul\":1317:1323   */\n      dup2\n        /* \"#utility.yul\":1295:1324   */\n      tag_68\n      jump\t// in\n    tag_67:\n        /* \"#utility.yul\":1290:1293   */\n      dup5\n        /* \"#utility.yul\":1286:1325   */\n      add\n        /* \"#utility.yul\":1279:1325   */\n      swap2\n      pop\n        /* \"#utility.yul\":1059:1331   */\n      pop\n        /* \"#utility.yul\":967:1331   */\n      swap3\n      swap2\n      pop\n      pop\n      jump\t// out\n        /* \"#utility.yul\":1337:1455   */\n    tag_69:\n        /* \"#utility.yul\":1424:1448   */\n      tag_71\n        /* \"#utility.yul\":1442:1447   */\n      dup2\n        /* \"#utility.yul\":1424:1448   */\n      tag_72\n      jump\t// in\n    tag_71:\n        /* \"#utility.yul\":1419:1422   */\n      dup3\n        /* \"#utility.yul\":1412:1449   */\n      mstore\n        /* \"#utility.yul\":1337:1455   */\n      pop\n      pop\n      jump\t// out\n        /* \"#utility.yul\":1461:1774   */\n    tag_12:\n        /* \"#utility.yul\":1574:1578   */\n      0x00\n        /* \"#utility.yul\":1612:1614   */\n      0x20\n        /* \"#utility.yul\":1601:1610   */\n      dup3\n        /* \"#utility.yul\":1597:1615   */\n      add\n        /* \"#utility.yul\":1589:1615   */\n      swap1\n      pop\n        /* \"#utility.yul\":1661:1670   */\n      dup2\n        /* \"#utility.yul\":1655:1659   */\n      dup2\n        /* \"#utility.yul\":1651:1671   */\n      sub\n        /* \"#utility.yul\":1647:1648   */\n      0x00\n        /* \"#utility.yul\":1636:1645   */\n      dup4\n        /* \"#utility.yul\":1632:1649   */\n      add\n        /* \"#utility.yul\":1625:1672   */\n      mstore\n        /* \"#utility.yul\":1689:1767   */\n      tag_74\n        /* \"#utility.yul\":1762:1766   */\n      dup2\n        /* \"#utility.yul\":1753:1759   */\n      dup5\n        /* \"#utility.yul\":1689:1767   */\n      tag_59\n      jump\t// in\n    tag_74:\n        /* \"#utility.yul\":1681:1767   */\n      swap1\n      pop\n        /* \"#utility.yul\":1461:1774   */\n      swap3\n      swap2\n      pop\n      pop\n      jump\t// out\n        /* \"#utility.yul\":1780:2002   */\n    tag_16:\n        /* \"#utility.yul\":1873:1877   */\n      0x00\n        /* \"#utility.yul\":1911:1913   */\n      0x20\n        /* \"#utility.yul\":1900:1909   */\n      dup3\n        /* \"#utility.yul\":1896:1914   */\n      add\n        /* \"#utility.yul\":1888:1914   */\n      swap1\n      pop\n        /* \"#utility.yul\":1924:1995   */\n      tag_76\n        /* \"#utility.yul\":1992:1993   */\n      0x00\n        /* \"#utility.yul\":1981:1990   */\n      dup4\n        /* \"#utility.yul\":1977:1994   */\n      add\n        /* \"#utility.yul\":1968:1974   */\n      dup5\n        /* \"#utility.yul\":1924:1995   */\n      tag_69\n      jump\t// in\n    tag_76:\n        /* \"#utility.yul\":1780:2002   */\n      swap3\n      swap2\n      pop\n      pop\n      jump\t// out\n        /* \"#utility.yul\":2089:2188   */\n    tag_62:\n        /* \"#utility.yul\":2141:2147   */\n      0x00\n        /* \"#utility.yul\":2175:2180   */\n      dup2\n        /* \"#utility.yul\":2169:2181   */\n      mload\n        /* \"#utility.yul\":2159:2181   */\n      swap1\n      pop\n        /* \"#utility.yul\":2089:2188   */\n      swap2\n      swap1\n      pop\n      jump\t// out\n        /* \"#utility.yul\":2194:2363   */\n    tag_64:\n        /* \"#utility.yul\":2278:2289   */\n      0x00\n        /* \"#utility.yul\":2312:2318   */\n      dup3\n        /* \"#utility.yul\":2307:2310   */\n      dup3\n        /* \"#utility.yul\":2300:2319   */\n      mstore\n        /* \"#utility.yul\":2352:2356   */\n      0x20\n        /* \"#utility.yul\":2347:2350   */\n      dup3\n        /* \"#utility.yul\":2343:2357   */\n      add\n        /* \"#utility.yul\":2328:2357   */\n      swap1\n      pop\n        /* \"#utility.yul\":2194:2363   */\n      swap3\n      swap2\n      pop\n      pop\n      jump\t// out\n        /* \"#utility.yul\":2369:2465   */\n    tag_81:\n        /* \"#utility.yul\":2406:2413   */\n      0x00\n        /* \"#utility.yul\":2435:2459   */\n      tag_83\n        /* \"#utility.yul\":2453:2458   */\n      dup3\n        /* \"#utility.yul\":2435:2459   */\n      tag_84\n      jump\t// in\n    tag_83:\n        /* \"#utility.yul\":2424:2459   */\n      swap1\n      pop\n        /* \"#utility.yul\":2369:2465   */\n      swap2\n      swap1\n      pop\n      jump\t// out\n        /* \"#utility.yul\":2471:2597   */\n    tag_84:\n        /* \"#utility.yul\":2508:2515   */\n      0x00\n        /* \"#utility.yul\":2548:2590   */\n      0xffffffffffffffffffffffffffffffffffffffff\n        /* \"#utility.yul\":2541:2546   */\n      dup3\n        /* \"#utility.yul\":2537:2591   */\n      and\n        /* \"#utility.yul\":2526:2591   */\n      swap1\n      pop\n        /* \"#utility.yul\":2471:2597   */\n      swap2\n      swap1\n      pop\n      jump\t// out\n        /* \"#utility.yul\":2603:2680   */\n    tag_72:\n        /* \"#utility.yul\":2640:2647   */\n      0x00\n        /* \"#utility.yul\":2669:2674   */\n      dup2\n        /* \"#utility.yul\":2658:2674   */\n      swap1\n      pop\n        /* \"#utility.yul\":2603:2680   */\n      swap2\n      swap1\n      pop\n      jump\t// out\n        /* \"#utility.yul\":2686:2993   */\n    tag_66:\n        /* \"#utility.yul\":2754:2755   */\n      0x00\n        /* \"#utility.yul\":2764:2877   */\n    tag_88:\n        /* \"#utility.yul\":2778:2784   */\n      dup4\n        /* \"#utility.yul\":2775:2776   */\n      dup2\n        /* \"#utility.yul\":2772:2785   */\n      lt\n        /* \"#utility.yul\":2764:2877   */\n      iszero\n      tag_90\n      jumpi\n        /* \"#utility.yul\":2863:2864   */\n      dup1\n        /* \"#utility.yul\":2858:2861   */\n      dup3\n        /* \"#utility.yul\":2854:2865   */\n      add\n        /* \"#utility.yul\":2848:2866   */\n      mload\n        /* \"#utility.yul\":2844:2845   */\n      dup2\n        /* \"#utility.yul\":2839:2842   */\n      dup5\n        /* \"#utility.yul\":2835:2846   */\n      add\n        /* \"#utility.yul\":2828:2867   */\n      mstore\n        /* \"#utility.yul\":2800:2802   */\n      0x20\n        /* \"#utility.yul\":2797:2798   */\n      dup2\n        /* \"#utility.yul\":2793:2803   */\n      add\n        /* \"#utility.yul\":2788:2803   */\n      swap1\n      pop\n        /* \"#utility.yul\":2764:2877   */\n      jump(tag_88)\n    tag_90:\n        /* \"#utility.yul\":2895:2901   */\n      dup4\n        /* \"#utility.yul\":2892:2893   */\n      dup2\n        /* \"#utility.yul\":2889:2902   */\n      gt\n        /* \"#utility.yul\":2886:2987   */\n      iszero\n      tag_91\n      jumpi\n        /* \"#utility.yul\":2975:2976   */\n      0x00\n        /* \"#utility.yul\":2966:2972   */\n      dup5\n        /* \"#utility.yul\":2961:2964   */\n      dup5\n        /* \"#utility.yul\":2957:2973   */\n      add\n        /* \"#utility.yul\":2950:2977   */\n      mstore\n        /* \"#utility.yul\":2886:2987   */\n    tag_91:\n        /* \"#utility.yul\":2735:2993   */\n      pop\n        /* \"#utility.yul\":2686:2993   */\n      pop\n      pop\n      pop\n      jump\t// out\n        /* \"#utility.yul\":2999:3319   */\n    tag_34:\n        /* \"#utility.yul\":3043:3049   */\n      0x00\n        /* \"#utility.yul\":3080:3081   */\n      0x02\n        /* \"#utility.yul\":3074:3078   */\n      dup3\n        /* \"#utility.yul\":3070:3082   */\n      div\n        /* \"#utility.yul\":3060:3082   */\n      swap1\n      pop\n        /* \"#utility.yul\":3127:3128   */\n      0x01\n        /* \"#utility.yul\":3121:3125   */\n      dup3\n        /* \"#utility.yul\":3117:3129   */\n      and\n        /* \"#utility.yul\":3148:3166   */\n      dup1\n        /* \"#utility.yul\":3138:3219   */\n      tag_93\n      jumpi\n        /* \"#utility.yul\":3204:3208   */\n      0x7f\n        /* \"#utility.yul\":3196:3202   */\n      dup3\n        /* \"#utility.yul\":3192:3209   */\n      and\n        /* \"#utility.yul\":3182:3209   */\n      swap2\n      pop\n        /* \"#utility.yul\":3138:3219   */\n    tag_93:\n        /* \"#utility.yul\":3266:3268   */\n      0x20\n        /* \"#utility.yul\":3258:3264   */\n      dup3\n        /* \"#utility.yul\":3255:3269   */\n      lt\n        /* \"#utility.yul\":3235:3253   */\n      dup2\n        /* \"#utility.yul\":3232:3270   */\n      eq\n        /* \"#utility.yul\":3229:3313   */\n      iszero\n      tag_94\n      jumpi\n        /* \"#utility.yul\":3285:3303   */\n      tag_95\n      tag_96\n      jump\t// in\n    tag_95:\n        /* \"#utility.yul\":3229:3313   */\n    tag_94:\n        /* \"#utility.yul\":3050:3319   */\n      pop\n        /* \"#utility.yul\":2999:3319   */\n      swap2\n      swap1\n      pop\n      jump\t// out\n        /* \"#utility.yul\":3325:3505   */\n    tag_96:\n        /* \"#utility.yul\":3373:3450   */\n      0x4e487b7100000000000000000000000000000000000000000000000000000000\n        /* \"#utility.yul\":3370:3371   */\n      0x00\n        /* \"#utility.yul\":3363:3451   */\n      mstore\n        /* \"#utility.yul\":3470:3474   */\n      0x22\n        /* \"#utility.yul\":3467:3468   */\n      0x04\n        /* \"#utility.yul\":3460:3475   */\n      mstore\n        /* \"#utility.yul\":3494:3498   */\n      0x24\n        /* \"#utility.yul\":3491:3492   */\n      0x00\n        /* \"#utility.yul\":3484:3499   */\n      revert\n        /* \"#utility.yul\":3634:3751   */\n    tag_52:\n        /* \"#utility.yul\":3743:3744   */\n      0x00\n        /* \"#utility.yul\":3740:3741   */\n      dup1\n        /* \"#utility.yul\":3733:3745   */\n      revert\n        /* \"#utility.yul\":3757:3859   */\n    tag_68:\n        /* \"#utility.yul\":3798:3804   */\n      0x00\n        /* \"#utility.yul\":3849:3851   */\n      0x1f\n        /* \"#utility.yul\":3845:3852   */\n      not\n        /* \"#utility.yul\":3840:3842   */\n      0x1f\n        /* \"#utility.yul\":3833:3838   */\n      dup4\n        /* \"#utility.yul\":3829:3843   */\n      add\n        /* \"#utility.yul\":3825:3853   */\n      and\n        /* \"#utility.yul\":3815:3853   */\n      swap1\n      pop\n        /* \"#utility.yul\":3757:3859   */\n      swap2\n      swap1\n      pop\n      jump\t// out\n        /* \"#utility.yul\":3865:3987   */\n    tag_48:\n        /* \"#utility.yul\":3938:3962   */\n      tag_103\n        /* \"#utility.yul\":3956:3961   */\n      dup2\n        /* \"#utility.yul\":3938:3962   */\n      tag_81\n      jump\t// in\n    tag_103:\n        /* \"#utility.yul\":3931:3936   */\n      dup2\n        /* \"#utility.yul\":3928:3963   */\n      eq\n        /* \"#utility.yul\":3918:3981   */\n      tag_104\n      jumpi\n        /* \"#utility.yul\":3977:3978   */\n      0x00\n        /* \"#utility.yul\":3974:3975   */\n      dup1\n        /* \"#utility.yul\":3967:3979   */\n      revert\n        /* \"#utility.yul\":3918:3981   */\n    tag_104:\n        /* \"#utility.yul\":3865:3987   */\n      pop\n      jump\t// out\n\n    auxdata: 0xa26469706673582212207ebcb852c12e3de98dc6ec509d55b244601977f9717db27f35910b7909f3542864736f6c63430008070033\n}\n",
				"bytecode": {
					"linkReferences": {},
					"object": "60806040526040518060400160405280600981526020017f4a414d20546f6b656e00000000000000000000000000000000000000000000008152506000908051906020019061004f9291906100c4565b506040518060400160405280600381526020017f4a414d00000000000000000000000000000000000000000000000000000000008152506001908051906020019061009b9291906100c4565b506c01431e0fae6d7217caa000000060025560126003553480156100be57600080fd5b506101c8565b8280546100d090610167565b90600052602060002090601f0160209004810192826100f25760008555610139565b82601f1061010b57805160ff1916838001178555610139565b82800160010185558215610139579182015b8281111561013857825182559160200191906001019061011d565b5b509050610146919061014a565b5090565b5b8082111561016357600081600090555060010161014b565b5090565b6000600282049050600182168061017f57607f821691505b6020821081141561019357610192610199565b5b50919050565b7f4e487b7100000000000000000000000000000000000000000000000000000000600052602260045260246000fd5b6104fa806101d76000396000f3fe608060405234801561001057600080fd5b50600436106100625760003560e01c806306fdde031461006757806318160ddd14610085578063313ce567146100a3578063694c93d8146100c157806370a08231146100f157806395d89b4114610121575b600080fd5b61006f61013f565b60405161007c919061036e565b60405180910390f35b61008d6101cd565b60405161009a9190610390565b60405180910390f35b6100ab6101d3565b6040516100b89190610390565b60405180910390f35b6100db60048036038101906100d691906102e6565b6101d9565b6040516100e89190610390565b60405180910390f35b61010b600480360381019061010691906102b9565b6101fe565b6040516101189190610390565b60405180910390f35b610129610216565b604051610136919061036e565b60405180910390f35b6000805461014c90610436565b80601f016020809104026020016040519081016040528092919081815260200182805461017890610436565b80156101c55780601f1061019a576101008083540402835291602001916101c5565b820191906000526020600020905b8154815290600101906020018083116101a857829003601f168201915b505050505081565b60025481565b60035481565b6005602052816000526040600020602052806000526040600020600091509150505481565b60046020528060005260406000206000915090505481565b6001805461022390610436565b80601f016020809104026020016040519081016040528092919081815260200182805461024f90610436565b801561029c5780601f106102715761010080835404028352916020019161029c565b820191906000526020600020905b81548152906001019060200180831161027f57829003601f168201915b505050505081565b6000813590506102b3816104ad565b92915050565b6000602082840312156102cf576102ce610497565b5b60006102dd848285016102a4565b91505092915050565b600080604083850312156102fd576102fc610497565b5b600061030b858286016102a4565b925050602061031c858286016102a4565b9150509250929050565b6000610331826103ab565b61033b81856103b6565b935061034b818560208601610403565b6103548161049c565b840191505092915050565b610368816103f9565b82525050565b600060208201905081810360008301526103888184610326565b905092915050565b60006020820190506103a5600083018461035f565b92915050565b600081519050919050565b600082825260208201905092915050565b60006103d2826103d9565b9050919050565b600073ffffffffffffffffffffffffffffffffffffffff82169050919050565b6000819050919050565b60005b83811015610421578082015181840152602081019050610406565b83811115610430576000848401525b50505050565b6000600282049050600182168061044e57607f821691505b6020821081141561046257610461610468565b5b50919050565b7f4e487b7100000000000000000000000000000000000000000000000000000000600052602260045260246000fd5b600080fd5b6000601f19601f8301169050919050565b6104b6816103c7565b81146104c157600080fd5b5056fea26469706673582212207ebcb852c12e3de98dc6ec509d55b244601977f9717db27f35910b7909f3542864736f6c63430008070033",
					"opcodes": "PUSH1 0x80 PUSH1 0x40 MSTORE PUSH1 0x40 MLOAD DUP1 PUSH1 0x40 ADD PUSH1 0x40 MSTORE DUP1 PUSH1 0x9 DUP2 MSTORE PUSH1 0x20 ADD PUSH32 0x4A414D20546F6B656E0000000000000000000000000000000000000000000000 DUP2 MSTORE POP PUSH1 0x0 SWAP1 DUP1 MLOAD SWAP1 PUSH1 0x20 ADD SWAP1 PUSH2 0x4F SWAP3 SWAP2 SWAP1 PUSH2 0xC4 JUMP JUMPDEST POP PUSH1 0x40 MLOAD DUP1 PUSH1 0x40 ADD PUSH1 0x40 MSTORE DUP1 PUSH1 0x3 DUP2 MSTORE PUSH1 0x20 ADD PUSH32 0x4A414D0000000000000000000000000000000000000000000000000000000000 DUP2 MSTORE POP PUSH1 0x1 SWAP1 DUP1 MLOAD SWAP1 PUSH1 0x20 ADD SWAP1 PUSH2 0x9B SWAP3 SWAP2 SWAP1 PUSH2 0xC4 JUMP JUMPDEST POP PUSH13 0x1431E0FAE6D7217CAA0000000 PUSH1 0x2 SSTORE PUSH1 0x12 PUSH1 0x3 SSTORE CALLVALUE DUP1 ISZERO PUSH2 0xBE JUMPI PUSH1 0x0 DUP1 REVERT JUMPDEST POP PUSH2 0x1C8 JUMP JUMPDEST DUP3 DUP1 SLOAD PUSH2 0xD0 SWAP1 PUSH2 0x167 JUMP JUMPDEST SWAP1 PUSH1 0x0 MSTORE PUSH1 0x20 PUSH1 0x0 KECCAK256 SWAP1 PUSH1 0x1F ADD PUSH1 0x20 SWAP1 DIV DUP2 ADD SWAP3 DUP3 PUSH2 0xF2 JUMPI PUSH1 0x0 DUP6 SSTORE PUSH2 0x139 JUMP JUMPDEST DUP3 PUSH1 0x1F LT PUSH2 0x10B JUMPI DUP1 MLOAD PUSH1 0xFF NOT AND DUP4 DUP1 ADD OR DUP6 SSTORE PUSH2 0x139 JUMP JUMPDEST DUP3 DUP1 ADD PUSH1 0x1 ADD DUP6 SSTORE DUP3 ISZERO PUSH2 0x139 JUMPI SWAP2 DUP3 ADD JUMPDEST DUP3 DUP2 GT ISZERO PUSH2 0x138 JUMPI DUP3 MLOAD DUP3 SSTORE SWAP2 PUSH1 0x20 ADD SWAP2 SWAP1 PUSH1 0x1 ADD SWAP1 PUSH2 0x11D JUMP JUMPDEST JUMPDEST POP SWAP1 POP PUSH2 0x146 SWAP2 SWAP1 PUSH2 0x14A JUMP JUMPDEST POP SWAP1 JUMP JUMPDEST JUMPDEST DUP1 DUP3 GT ISZERO PUSH2 0x163 JUMPI PUSH1 0x0 DUP2 PUSH1 0x0 SWAP1 SSTORE POP PUSH1 0x1 ADD PUSH2 0x14B JUMP JUMPDEST POP SWAP1 JUMP JUMPDEST PUSH1 0x0 PUSH1 0x2 DUP3 DIV SWAP1 POP PUSH1 0x1 DUP3 AND DUP1 PUSH2 0x17F JUMPI PUSH1 0x7F DUP3 AND SWAP2 POP JUMPDEST PUSH1 0x20 DUP3 LT DUP2 EQ ISZERO PUSH2 0x193 JUMPI PUSH2 0x192 PUSH2 0x199 JUMP JUMPDEST JUMPDEST POP SWAP2 SWAP1 POP JUMP JUMPDEST PUSH32 0x4E487B7100000000000000000000000000000000000000000000000000000000 PUSH1 0x0 MSTORE PUSH1 0x22 PUSH1 0x4 MSTORE PUSH1 0x24 PUSH1 0x0 REVERT JUMPDEST PUSH2 0x4FA DUP1 PUSH2 0x1D7 PUSH1 0x0 CODECOPY PUSH1 0x0 RETURN INVALID PUSH1 0x80 PUSH1 0x40 MSTORE CALLVALUE DUP1 ISZERO PUSH2 0x10 JUMPI PUSH1 0x0 DUP1 REVERT JUMPDEST POP PUSH1 0x4 CALLDATASIZE LT PUSH2 0x62 JUMPI PUSH1 0x0 CALLDATALOAD PUSH1 0xE0 SHR DUP1 PUSH4 0x6FDDE03 EQ PUSH2 0x67 JUMPI DUP1 PUSH4 0x18160DDD EQ PUSH2 0x85 JUMPI DUP1 PUSH4 0x313CE567 EQ PUSH2 0xA3 JUMPI DUP1 PUSH4 0x694C93D8 EQ PUSH2 0xC1 JUMPI DUP1 PUSH4 0x70A08231 EQ PUSH2 0xF1 JUMPI DUP1 PUSH4 0x95D89B41 EQ PUSH2 0x121 JUMPI JUMPDEST PUSH1 0x0 DUP1 REVERT JUMPDEST PUSH2 0x6F PUSH2 0x13F JUMP JUMPDEST PUSH1 0x40 MLOAD PUSH2 0x7C SWAP2 SWAP1 PUSH2 0x36E JUMP JUMPDEST PUSH1 0x40 MLOAD DUP1 SWAP2 SUB SWAP1 RETURN JUMPDEST PUSH2 0x8D PUSH2 0x1CD JUMP JUMPDEST PUSH1 0x40 MLOAD PUSH2 0x9A SWAP2 SWAP1 PUSH2 0x390 JUMP JUMPDEST PUSH1 0x40 MLOAD DUP1 SWAP2 SUB SWAP1 RETURN JUMPDEST PUSH2 0xAB PUSH2 0x1D3 JUMP JUMPDEST PUSH1 0x40 MLOAD PUSH2 0xB8 SWAP2 SWAP1 PUSH2 0x390 JUMP JUMPDEST PUSH1 0x40 MLOAD DUP1 SWAP2 SUB SWAP1 RETURN JUMPDEST PUSH2 0xDB PUSH1 0x4 DUP1 CALLDATASIZE SUB DUP2 ADD SWAP1 PUSH2 0xD6 SWAP2 SWAP1 PUSH2 0x2E6 JUMP JUMPDEST PUSH2 0x1D9 JUMP JUMPDEST PUSH1 0x40 MLOAD PUSH2 0xE8 SWAP2 SWAP1 PUSH2 0x390 JUMP JUMPDEST PUSH1 0x40 MLOAD DUP1 SWAP2 SUB SWAP1 RETURN JUMPDEST PUSH2 0x10B PUSH1 0x4 DUP1 CALLDATASIZE SUB DUP2 ADD SWAP1 PUSH2 0x106 SWAP2 SWAP1 PUSH2 0x2B9 JUMP JUMPDEST PUSH2 0x1FE JUMP JUMPDEST PUSH1 0x40 MLOAD PUSH2 0x118 SWAP2 SWAP1 PUSH2 0x390 JUMP JUMPDEST PUSH1 0x40 MLOAD DUP1 SWAP2 SUB SWAP1 RETURN JUMPDEST PUSH2 0x129 PUSH2 0x216 JUMP JUMPDEST PUSH1 0x40 MLOAD PUSH2 0x136 SWAP2 SWAP1 PUSH2 0x36E JUMP JUMPDEST PUSH1 0x40 MLOAD DUP1 SWAP2 SUB SWAP1 RETURN JUMPDEST PUSH1 0x0 DUP1 SLOAD PUSH2 0x14C SWAP1 PUSH2 0x436 JUMP JUMPDEST DUP1 PUSH1 0x1F ADD PUSH1 0x20 DUP1 SWAP2 DIV MUL PUSH1 0x20 ADD PUSH1 0x40 MLOAD SWAP1 DUP2 ADD PUSH1 0x40 MSTORE DUP1 SWAP3 SWAP2 SWAP1 DUP2 DUP2 MSTORE PUSH1 0x20 ADD DUP3 DUP1 SLOAD PUSH2 0x178 SWAP1 PUSH2 0x436 JUMP JUMPDEST DUP1 ISZERO PUSH2 0x1C5 JUMPI DUP1 PUSH1 0x1F LT PUSH2 0x19A JUMPI PUSH2 0x100 DUP1 DUP4 SLOAD DIV MUL DUP4 MSTORE SWAP2 PUSH1 0x20 ADD SWAP2 PUSH2 0x1C5 JUMP JUMPDEST DUP3 ADD SWAP2 SWAP1 PUSH1 0x0 MSTORE PUSH1 0x20 PUSH1 0x0 KECCAK256 SWAP1 JUMPDEST DUP2 SLOAD DUP2 MSTORE SWAP1 PUSH1 0x1 ADD SWAP1 PUSH1 0x20 ADD DUP1 DUP4 GT PUSH2 0x1A8 JUMPI DUP3 SWAP1 SUB PUSH1 0x1F AND DUP3 ADD SWAP2 JUMPDEST POP POP POP POP POP DUP2 JUMP JUMPDEST PUSH1 0x2 SLOAD DUP2 JUMP JUMPDEST PUSH1 0x3 SLOAD DUP2 JUMP JUMPDEST PUSH1 0x5 PUSH1 0x20 MSTORE DUP2 PUSH1 0x0 MSTORE PUSH1 0x40 PUSH1 0x0 KECCAK256 PUSH1 0x20 MSTORE DUP1 PUSH1 0x0 MSTORE PUSH1 0x40 PUSH1 0x0 KECCAK256 PUSH1 0x0 SWAP2 POP SWAP2 POP POP SLOAD DUP2 JUMP JUMPDEST PUSH1 0x4 PUSH1 0x20 MSTORE DUP1 PUSH1 0x0 MSTORE PUSH1 0x40 PUSH1 0x0 KECCAK256 PUSH1 0x0 SWAP2 POP SWAP1 POP SLOAD DUP2 JUMP JUMPDEST PUSH1 0x1 DUP1 SLOAD PUSH2 0x223 SWAP1 PUSH2 0x436 JUMP JUMPDEST DUP1 PUSH1 0x1F ADD PUSH1 0x20 DUP1 SWAP2 DIV MUL PUSH1 0x20 ADD PUSH1 0x40 MLOAD SWAP1 DUP2 ADD PUSH1 0x40 MSTORE DUP1 SWAP3 SWAP2 SWAP1 DUP2 DUP2 MSTORE PUSH1 0x20 ADD DUP3 DUP1 SLOAD PUSH2 0x24F SWAP1 PUSH2 0x436 JUMP JUMPDEST DUP1 ISZERO PUSH2 0x29C JUMPI DUP1 PUSH1 0x1F LT PUSH2 0x271 JUMPI PUSH2 0x100 DUP1 DUP4 SLOAD DIV MUL DUP4 MSTORE SWAP2 PUSH1 0x20 ADD SWAP2 PUSH2 0x29C JUMP JUMPDEST DUP3 ADD SWAP2 SWAP1 PUSH1 0x0 MSTORE PUSH1 0x20 PUSH1 0x0 KECCAK256 SWAP1 JUMPDEST DUP2 SLOAD DUP2 MSTORE SWAP1 PUSH1 0x1 ADD SWAP1 PUSH1 0x20 ADD DUP1 DUP4 GT PUSH2 0x27F JUMPI DUP3 SWAP1 SUB PUSH1 0x1F AND DUP3 ADD SWAP2 JUMPDEST POP POP POP POP POP DUP2 JUMP JUMPDEST PUSH1 0x0 DUP2 CALLDATALOAD SWAP1 POP PUSH2 0x2B3 DUP2 PUSH2 0x4AD JUMP JUMPDEST SWAP3 SWAP2 POP POP JUMP JUMPDEST PUSH1 0x0 PUSH1 0x20 DUP3 DUP5 SUB SLT ISZERO PUSH2 0x2CF JUMPI PUSH2 0x2CE PUSH2 0x497 JUMP JUMPDEST JUMPDEST PUSH1 0x0 PUSH2 0x2DD DUP5 DUP3 DUP6 ADD PUSH2 0x2A4 JUMP JUMPDEST SWAP2 POP POP SWAP3 SWAP2 POP POP JUMP JUMPDEST PUSH1 0x0 DUP1 PUSH1 0x40 DUP4 DUP6 SUB SLT ISZERO PUSH2 0x2FD JUMPI PUSH2 0x2FC PUSH2 0x497 JUMP JUMPDEST JUMPDEST PUSH1 0x0 PUSH2 0x30B DUP6 DUP3 DUP7 ADD PUSH2 0x2A4 JUMP JUMPDEST SWAP3 POP POP PUSH1 0x20 PUSH2 0x31C DUP6 DUP3 DUP7 ADD PUSH2 0x2A4 JUMP JUMPDEST SWAP2 POP POP SWAP3 POP SWAP3 SWAP1 POP JUMP JUMPDEST PUSH1 0x0 PUSH2 0x331 DUP3 PUSH2 0x3AB JUMP JUMPDEST PUSH2 0x33B DUP2 DUP6 PUSH2 0x3B6 JUMP JUMPDEST SWAP4 POP PUSH2 0x34B DUP2 DUP6 PUSH1 0x20 DUP7 ADD PUSH2 0x403 JUMP JUMPDEST PUSH2 0x354 DUP2 PUSH2 0x49C JUMP JUMPDEST DUP5 ADD SWAP2 POP POP SWAP3 SWAP2 POP POP JUMP JUMPDEST PUSH2 0x368 DUP2 PUSH2 0x3F9 JUMP JUMPDEST DUP3 MSTORE POP POP JUMP JUMPDEST PUSH1 0x0 PUSH1 0x20 DUP3 ADD SWAP1 POP DUP2 DUP2 SUB PUSH1 0x0 DUP4 ADD MSTORE PUSH2 0x388 DUP2 DUP5 PUSH2 0x326 JUMP JUMPDEST SWAP1 POP SWAP3 SWAP2 POP POP JUMP JUMPDEST PUSH1 0x0 PUSH1 0x20 DUP3 ADD SWAP1 POP PUSH2 0x3A5 PUSH1 0x0 DUP4 ADD DUP5 PUSH2 0x35F JUMP JUMPDEST SWAP3 SWAP2 POP POP JUMP JUMPDEST PUSH1 0x0 DUP2 MLOAD SWAP1 POP SWAP2 SWAP1 POP JUMP JUMPDEST PUSH1 0x0 DUP3 DUP3 MSTORE PUSH1 0x20 DUP3 ADD SWAP1 POP SWAP3 SWAP2 POP POP JUMP JUMPDEST PUSH1 0x0 PUSH2 0x3D2 DUP3 PUSH2 0x3D9 JUMP JUMPDEST SWAP1 POP SWAP2 SWAP1 POP JUMP JUMPDEST PUSH1 0x0 PUSH20 0xFFFFFFFFFFFFFFFFFFFFFFFFFFFFFFFFFFFFFFFF DUP3 AND SWAP1 POP SWAP2 SWAP1 POP JUMP JUMPDEST PUSH1 0x0 DUP2 SWAP1 POP SWAP2 SWAP1 POP JUMP JUMPDEST PUSH1 0x0 JUMPDEST DUP4 DUP2 LT ISZERO PUSH2 0x421 JUMPI DUP1 DUP3 ADD MLOAD DUP2 DUP5 ADD MSTORE PUSH1 0x20 DUP2 ADD SWAP1 POP PUSH2 0x406 JUMP JUMPDEST DUP4 DUP2 GT ISZERO PUSH2 0x430 JUMPI PUSH1 0x0 DUP5 DUP5 ADD MSTORE JUMPDEST POP POP POP POP JUMP JUMPDEST PUSH1 0x0 PUSH1 0x2 DUP3 DIV SWAP1 POP PUSH1 0x1 DUP3 AND DUP1 PUSH2 0x44E JUMPI PUSH1 0x7F DUP3 AND SWAP2 POP JUMPDEST PUSH1 0x20 DUP3 LT DUP2 EQ ISZERO PUSH2 0x462 JUMPI PUSH2 0x461 PUSH2 0x468 JUMP JUMPDEST JUMPDEST POP SWAP2 SWAP1 POP JUMP JUMPDEST PUSH32 0x4E487B7100000000000000000000000000000000000000000000000000000000 PUSH1 0x0 MSTORE PUSH1 0x22 PUSH1 0x4 MSTORE PUSH1 0x24 PUSH1 0x0 REVERT JUMPDEST PUSH1 0x0 DUP1 REVERT JUMPDEST PUSH1 0x0 PUSH1 0x1F NOT PUSH1 0x1F DUP4 ADD AND SWAP1 POP SWAP2 SWAP1 POP JUMP JUMPDEST PUSH2 0x4B6 DUP2 PUSH2 0x3C7 JUMP JUMPDEST DUP2 EQ PUSH2 0x4C1 JUMPI PUSH1 0x0 DUP1 REVERT JUMPDEST POP JUMP INVALID LOG2 PUSH5 0x6970667358 0x22 SLT KECCAK256 PUSH31 0xBCB852C12E3DE98DC6EC509D55B244601977F9717DB27F35910B7909F35428 PUSH5 0x736F6C6343 STOP ADDMOD SMOD STOP CALLER "
				},
				"gasEstimates": {
					"creation": {
						"codeDepositCost": "254800",
						"executionCost": "infinite",
						"totalCost": "infinite"
					},
					"external": {
						"allwance(address,address)": "infinite",
						"balanceOf(address)": "2880",
						"decimals()": "2451",
						"name()": "infinite",
						"symbol()": "infinite",
						"totalSupply()": "2429"
					}
				},
				"methodIdentifiers": {
					"allwance(address,address)": "694c93d8",
					"balanceOf(address)": "70a08231",
					"decimals()": "313ce567",
					"name()": "06fdde03",
					"symbol()": "95d89b41",
					"totalSupply()": "18160ddd"
				}
			},
			"storageLayout": {
				"storage": [
					{
						"astId": 4,
						"contract": "Staking/JamToken.sol:JamToken",
						"label": "name",
						"offset": 0,
						"slot": "0",
						"type": "t_string_storage"
					},
					{
						"astId": 7,
						"contract": "Staking/JamToken.sol:JamToken",
						"label": "symbol",
						"offset": 0,
						"slot": "1",
						"type": "t_string_storage"
					},
					{
						"astId": 10,
						"contract": "Staking/JamToken.sol:JamToken",
						"label": "totalSupply",
						"offset": 0,
						"slot": "2",
						"type": "t_uint256"
					},
					{
						"astId": 13,
						"contract": "Staking/JamToken.sol:JamToken",
						"label": "decimals",
						"offset": 0,
						"slot": "3",
						"type": "t_uint256"
					},
					{
						"astId": 33,
						"contract": "Staking/JamToken.sol:JamToken",
						"label": "balanceOf",
						"offset": 0,
						"slot": "4",
						"type": "t_mapping(t_address,t_uint256)"
					},
					{
						"astId": 39,
						"contract": "Staking/JamToken.sol:JamToken",
						"label": "allwance",
						"offset": 0,
						"slot": "5",
						"type": "t_mapping(t_address,t_mapping(t_address,t_uint256))"
					}
				],
				"types": {
					"t_address": {
						"encoding": "inplace",
						"label": "address",
						"numberOfBytes": "20"
					},
					"t_mapping(t_address,t_mapping(t_address,t_uint256))": {
						"encoding": "mapping",
						"key": "t_address",
						"label": "mapping(address => mapping(address => uint256))",
						"numberOfBytes": "32",
						"value": "t_mapping(t_address,t_uint256)"
					},
					"t_mapping(t_address,t_uint256)": {
						"encoding": "mapping",
						"key": "t_address",
						"label": "mapping(address => uint256)",
						"numberOfBytes": "32",
						"value": "t_uint256"
					},
					"t_string_storage": {
						"encoding": "bytes",
						"label": "string",
						"numberOfBytes": "32"
					},
					"t_uint256": {
						"encoding": "inplace",
						"label": "uint256",
						"numberOfBytes": "32"
					}
				}
			},
			"userdoc": {
				"kind": "user",
				"methods": {},
				"version": 1
			}
		}
	}
}